{
  "contractName": "MultiSigWallet",
  "abi": [
    {
      "inputs": [
        {
          "internalType": "string",
          "name": "_name",
          "type": "string"
        },
        {
          "internalType": "address[]",
          "name": "_owners",
          "type": "address[]"
        },
        {
          "internalType": "address",
          "name": "_singleAuthority",
          "type": "address"
        },
        {
          "internalType": "uint256",
          "name": "_required",
          "type": "uint256"
        }
      ],
      "stateMutability": "nonpayable",
      "type": "constructor"
    },
    {
      "anonymous": false,
      "inputs": [
        {
          "indexed": true,
          "internalType": "address",
          "name": "sender",
          "type": "address"
        },
        {
          "indexed": true,
          "internalType": "uint256",
          "name": "txId",
          "type": "uint256"
        }
      ],
      "name": "Approve",
      "type": "event"
    },
    {
      "anonymous": false,
      "inputs": [
        {
          "indexed": true,
          "internalType": "address",
          "name": "sender",
          "type": "address"
        },
        {
          "indexed": false,
          "internalType": "uint256",
          "name": "amount",
          "type": "uint256"
        },
        {
          "indexed": false,
          "internalType": "uint256",
          "name": "balance",
          "type": "uint256"
        }
      ],
      "name": "Deposit",
      "type": "event"
    },
    {
      "anonymous": false,
      "inputs": [
        {
          "indexed": true,
          "internalType": "uint256",
          "name": "txId",
          "type": "uint256"
        }
      ],
      "name": "Execute",
      "type": "event"
    },
    {
      "anonymous": false,
      "inputs": [
        {
          "indexed": true,
          "internalType": "address",
          "name": "sender",
          "type": "address"
        },
        {
          "indexed": true,
          "internalType": "uint256",
          "name": "txId",
          "type": "uint256"
        }
      ],
      "name": "Revoke",
      "type": "event"
    },
    {
      "anonymous": false,
      "inputs": [
        {
          "indexed": true,
          "internalType": "uint256",
          "name": "txId",
          "type": "uint256"
        }
      ],
      "name": "Submit",
      "type": "event"
    },
    {
      "inputs": [
        {
          "internalType": "uint256",
          "name": "",
          "type": "uint256"
        },
        {
          "internalType": "address",
          "name": "",
          "type": "address"
        }
      ],
      "name": "approved",
      "outputs": [
        {
          "internalType": "bool",
          "name": "",
          "type": "bool"
        }
      ],
      "stateMutability": "view",
      "type": "function"
    },
    {
      "inputs": [
        {
          "internalType": "address",
          "name": "",
          "type": "address"
        }
      ],
      "name": "isOwner",
      "outputs": [
        {
          "internalType": "bool",
          "name": "",
          "type": "bool"
        }
      ],
      "stateMutability": "view",
      "type": "function"
    },
    {
      "inputs": [
        {
          "internalType": "uint256",
          "name": "",
          "type": "uint256"
        }
      ],
      "name": "owners",
      "outputs": [
        {
          "internalType": "address",
          "name": "",
          "type": "address"
        }
      ],
      "stateMutability": "view",
      "type": "function"
    },
    {
      "inputs": [],
      "name": "required",
      "outputs": [
        {
          "internalType": "uint256",
          "name": "",
          "type": "uint256"
        }
      ],
      "stateMutability": "view",
      "type": "function"
    },
    {
      "inputs": [],
      "name": "singleAuthority",
      "outputs": [
        {
          "internalType": "address",
          "name": "",
          "type": "address"
        }
      ],
      "stateMutability": "view",
      "type": "function"
    },
    {
      "inputs": [
        {
          "internalType": "uint256",
          "name": "",
          "type": "uint256"
        }
      ],
      "name": "transactions",
      "outputs": [
        {
          "internalType": "address payable",
          "name": "to",
          "type": "address"
        },
        {
          "internalType": "uint256",
          "name": "value",
          "type": "uint256"
        },
        {
          "internalType": "bytes",
          "name": "data",
          "type": "bytes"
        },
        {
          "internalType": "bool",
          "name": "executed",
          "type": "bool"
        }
      ],
      "stateMutability": "view",
      "type": "function"
    },
    {
      "inputs": [],
      "name": "walletName",
      "outputs": [
        {
          "internalType": "string",
          "name": "",
          "type": "string"
        }
      ],
      "stateMutability": "view",
      "type": "function"
    },
    {
      "stateMutability": "payable",
      "type": "receive"
    },
    {
      "inputs": [
        {
          "internalType": "address payable",
          "name": "_to",
          "type": "address"
        },
        {
          "internalType": "uint256",
          "name": "_value",
          "type": "uint256"
        },
        {
          "internalType": "bytes",
          "name": "_data",
          "type": "bytes"
        }
      ],
      "name": "submit",
      "outputs": [],
      "stateMutability": "nonpayable",
      "type": "function"
    },
    {
      "inputs": [
        {
          "internalType": "uint256",
          "name": "_txId",
          "type": "uint256"
        },
        {
          "internalType": "address",
          "name": "owneradd",
          "type": "address"
        }
      ],
      "name": "approve",
      "outputs": [],
      "stateMutability": "nonpayable",
      "type": "function"
    },
    {
      "inputs": [
        {
          "internalType": "uint256",
          "name": "_txId",
          "type": "uint256"
        }
      ],
      "name": "_getApprovalCount",
      "outputs": [
        {
          "internalType": "uint256",
          "name": "count",
          "type": "uint256"
        }
      ],
      "stateMutability": "view",
      "type": "function"
    },
    {
      "inputs": [
        {
          "internalType": "uint256",
          "name": "_txId",
          "type": "uint256"
        }
      ],
      "name": "execute",
      "outputs": [],
      "stateMutability": "payable",
      "type": "function"
    },
    {
      "inputs": [
        {
          "internalType": "uint256",
          "name": "_txId",
          "type": "uint256"
        }
      ],
      "name": "revoke",
      "outputs": [],
      "stateMutability": "nonpayable",
      "type": "function"
    },
    {
      "inputs": [],
      "name": "getName",
      "outputs": [
        {
          "internalType": "string",
          "name": "",
          "type": "string"
        }
      ],
      "stateMutability": "view",
      "type": "function"
    },
    {
      "inputs": [],
      "name": "getRequired",
      "outputs": [
        {
          "internalType": "uint256",
          "name": "",
          "type": "uint256"
        }
      ],
      "stateMutability": "view",
      "type": "function"
    },
    {
      "inputs": [],
      "name": "getOwnersCount",
      "outputs": [
        {
          "internalType": "uint256",
          "name": "",
          "type": "uint256"
        }
      ],
      "stateMutability": "view",
      "type": "function"
    },
    {
      "inputs": [],
      "name": "getOwners",
      "outputs": [
        {
          "internalType": "address[]",
          "name": "",
          "type": "address[]"
        }
      ],
      "stateMutability": "view",
      "type": "function"
    },
    {
      "inputs": [
        {
          "internalType": "address",
          "name": "_sender",
          "type": "address"
        }
      ],
      "name": "verifyOwner",
      "outputs": [
        {
          "internalType": "bool",
          "name": "",
          "type": "bool"
        }
      ],
      "stateMutability": "view",
      "type": "function"
    },
    {
      "inputs": [],
      "name": "getAsset",
      "outputs": [
        {
          "internalType": "uint256",
          "name": "",
          "type": "uint256"
        }
      ],
      "stateMutability": "view",
      "type": "function"
    },
    {
      "inputs": [],
      "name": "getTxs",
      "outputs": [
        {
          "components": [
            {
              "internalType": "address payable",
              "name": "to",
              "type": "address"
            },
            {
              "internalType": "uint256",
              "name": "value",
              "type": "uint256"
            },
            {
              "internalType": "bytes",
              "name": "data",
              "type": "bytes"
            },
            {
              "internalType": "bool",
              "name": "executed",
              "type": "bool"
            }
          ],
          "internalType": "struct MultiSigWallet.Transaction[]",
          "name": "",
          "type": "tuple[]"
        }
      ],
      "stateMutability": "view",
      "type": "function"
    }
  ],
  "bytecode": "0x60806040523480156200001157600080fd5b5060405162002d3c38038062002d3c83398181016040528101906200003791906200070a565b60008351116200007e576040517f08c379a0000000000000000000000000000000000000000000000000000000008152600401620000759062000841565b60405180910390fd5b60008111801562000090575082518111155b620000d2576040517f08c379a0000000000000000000000000000000000000000000000000000000008152600401620000c990620008d9565b60405180910390fd5b81600260006101000a81548173ffffffffffffffffffffffffffffffffffffffff021916908373ffffffffffffffffffffffffffffffffffffffff16021790555060005b835181101562000317576000848281518110620001385762000137620008fb565b5b60200260200101519050600073ffffffffffffffffffffffffffffffffffffffff168173ffffffffffffffffffffffffffffffffffffffff161415620001b5576040517f08c379a0000000000000000000000000000000000000000000000000000000008152600401620001ac906200097a565b60405180910390fd5b600560008273ffffffffffffffffffffffffffffffffffffffff1673ffffffffffffffffffffffffffffffffffffffff16815260200190815260200160002060009054906101000a900460ff161562000245576040517f08c379a00000000000000000000000000000000000000000000000000000000081526004016200023c90620009ec565b60405180910390fd5b6001600560008373ffffffffffffffffffffffffffffffffffffffff1673ffffffffffffffffffffffffffffffffffffffff16815260200190815260200160002060006101000a81548160ff0219169083151502179055506001819080600181540180825580915050600190039060005260206000200160009091909190916101000a81548173ffffffffffffffffffffffffffffffffffffffff021916908373ffffffffffffffffffffffffffffffffffffffff1602179055505080806200030e9062000a3d565b91505062000116565b5083600090805190602001906200033092919062000342565b50806003819055505050505062000af0565b828054620003509062000aba565b90600052602060002090601f016020900481019282620003745760008555620003c0565b82601f106200038f57805160ff1916838001178555620003c0565b82800160010185558215620003c0579182015b82811115620003bf578251825591602001919060010190620003a2565b5b509050620003cf9190620003d3565b5090565b5b80821115620003ee576000816000905550600101620003d4565b5090565b6000604051905090565b600080fd5b600080fd5b600080fd5b600080fd5b6000601f19601f8301169050919050565b7f4e487b7100000000000000000000000000000000000000000000000000000000600052604160045260246000fd5b6200045b8262000410565b810181811067ffffffffffffffff821117156200047d576200047c62000421565b5b80604052505050565b600062000492620003f2565b9050620004a0828262000450565b919050565b600067ffffffffffffffff821115620004c357620004c262000421565b5b620004ce8262000410565b9050602081019050919050565b60005b83811015620004fb578082015181840152602081019050620004de565b838111156200050b576000848401525b50505050565b6000620005286200052284620004a5565b62000486565b9050828152602081018484840111156200054757620005466200040b565b5b62000554848285620004db565b509392505050565b600082601f83011262000574576200057362000406565b5b81516200058684826020860162000511565b91505092915050565b600067ffffffffffffffff821115620005ad57620005ac62000421565b5b602082029050602081019050919050565b600080fd5b600073ffffffffffffffffffffffffffffffffffffffff82169050919050565b6000620005f082620005c3565b9050919050565b6200060281620005e3565b81146200060e57600080fd5b50565b6000815190506200062281620005f7565b92915050565b60006200063f62000639846200058f565b62000486565b90508083825260208201905060208402830185811115620006655762000664620005be565b5b835b818110156200069257806200067d888262000611565b84526020840193505060208101905062000667565b5050509392505050565b600082601f830112620006b457620006b362000406565b5b8151620006c684826020860162000628565b91505092915050565b6000819050919050565b620006e481620006cf565b8114620006f057600080fd5b50565b6000815190506200070481620006d9565b92915050565b60008060008060808587031215620007275762000726620003fc565b5b600085015167ffffffffffffffff81111562000748576200074762000401565b5b62000756878288016200055c565b945050602085015167ffffffffffffffff8111156200077a576200077962000401565b5b62000788878288016200069c565b93505060406200079b8782880162000611565b9250506060620007ae87828801620006f3565b91505092959194509250565b600082825260208201905092915050565b7f6e756d626572206f66206f776e657220616464726573736573206d757374206260008201527f65206d6f7265207468616e207a65726f21210000000000000000000000000000602082015250565b600062000829603283620007ba565b91506200083682620007cb565b604082019050919050565b600060208201905081810360008301526200085c816200081a565b9050919050565b7f696e76616c6964207265717569726564206e756d626572206f66206f776e657260008201527f7300000000000000000000000000000000000000000000000000000000000000602082015250565b6000620008c1602183620007ba565b9150620008ce8262000863565b604082019050919050565b60006020820190508181036000830152620008f481620008b2565b9050919050565b7f4e487b7100000000000000000000000000000000000000000000000000000000600052603260045260246000fd5b7f696e76616c696420616464726573730000000000000000000000000000000000600082015250565b600062000962600f83620007ba565b91506200096f826200092a565b602082019050919050565b60006020820190508181036000830152620009958162000953565b9050919050565b7f6f776e6572206973206e6f7420756e6971756500000000000000000000000000600082015250565b6000620009d4601383620007ba565b9150620009e1826200099c565b602082019050919050565b6000602082019050818103600083015262000a0781620009c5565b9050919050565b7f4e487b7100000000000000000000000000000000000000000000000000000000600052601160045260246000fd5b600062000a4a82620006cf565b91507fffffffffffffffffffffffffffffffffffffffffffffffffffffffffffffffff82141562000a805762000a7f62000a0e565b5b600182019050919050565b7f4e487b7100000000000000000000000000000000000000000000000000000000600052602260045260246000fd5b6000600282049050600182168062000ad357607f821691505b6020821081141562000aea5762000ae962000a8b565b5b50919050565b61223c8062000b006000396000f3fe6080604052600436106101185760003560e01c80638253951a116100a0578063dc8452cd11610064578063dc8452cd14610427578063e0cedd9c14610452578063eda8b7cd1461047d578063fe0d94c1146104ba578063febe4909146104d65761016f565b80638253951a146103175780638c85cd85146103545780639ace38c214610391578063a0e67e2b146103d1578063cf8d8ca0146103fc5761016f565b806320c5429b116100e757806320c5429b146102305780632ec4c6ae146102595780632f54bf6e146102845780635c222bad146102c157806373ff81cc146102ec5761016f565b8063025e7c27146101745780631398a5f6146101b157806314de327f146101dc57806317d7de7c146102055761016f565b3661016f573373ffffffffffffffffffffffffffffffffffffffff167f90890809c654f11d6e72a28fa60149770a0d11ec6c92319d6ceb2bb0a4ea1a153447604051610165929190611644565b60405180910390a2005b600080fd5b34801561018057600080fd5b5061019b600480360381019061019691906116a3565b6104ff565b6040516101a89190611711565b60405180910390f35b3480156101bd57600080fd5b506101c661053e565b6040516101d3919061172c565b60405180910390f35b3480156101e857600080fd5b5061020360048036038101906101fe91906117ea565b610548565b005b34801561021157600080fd5b5061021a6107a9565b60405161022791906118f7565b60405180910390f35b34801561023c57600080fd5b50610257600480360381019061025291906116a3565b61083b565b005b34801561026557600080fd5b5061026e610afe565b60405161027b9190611711565b60405180910390f35b34801561029057600080fd5b506102ab60048036038101906102a69190611945565b610b24565b6040516102b8919061198d565b60405180910390f35b3480156102cd57600080fd5b506102d6610b44565b6040516102e3919061172c565b60405180910390f35b3480156102f857600080fd5b50610301610b4c565b60405161030e919061172c565b60405180910390f35b34801561032357600080fd5b5061033e600480360381019061033991906119a8565b610b59565b60405161034b919061198d565b60405180910390f35b34801561036057600080fd5b5061037b60048036038101906103769190611945565b610b88565b604051610388919061198d565b60405180910390f35b34801561039d57600080fd5b506103b860048036038101906103b391906116a3565b610bde565b6040516103c89493929190611a4c565b60405180910390f35b3480156103dd57600080fd5b506103e6610cd3565b6040516103f39190611b56565b60405180910390f35b34801561040857600080fd5b50610411610d61565b60405161041e91906118f7565b60405180910390f35b34801561043357600080fd5b5061043c610def565b604051610449919061172c565b60405180910390f35b34801561045e57600080fd5b50610467610df5565b6040516104749190611d14565b60405180910390f35b34801561048957600080fd5b506104a4600480360381019061049f91906116a3565b610f61565b6040516104b1919061172c565b60405180910390f35b6104d460048036038101906104cf91906116a3565b61103c565b005b3480156104e257600080fd5b506104fd60048036038101906104f891906119a8565b611295565b005b6001818154811061050f57600080fd5b906000526020600020016000915054906101000a900473ffffffffffffffffffffffffffffffffffffffff1681565b6000600354905090565b600560003373ffffffffffffffffffffffffffffffffffffffff1673ffffffffffffffffffffffffffffffffffffffff16815260200190815260200160002060009054906101000a900460ff16806105ed5750600260009054906101000a900473ffffffffffffffffffffffffffffffffffffffff1673ffffffffffffffffffffffffffffffffffffffff163373ffffffffffffffffffffffffffffffffffffffff16145b61062c576040517f08c379a000000000000000000000000000000000000000000000000000000000815260040161062390611d82565b60405180910390fd5b600460405180608001604052808673ffffffffffffffffffffffffffffffffffffffff16815260200185815260200184848080601f016020809104026020016040519081016040528093929190818152602001838380828437600081840152601f19601f82011690508083019250505050505050815260200160001515815250908060018154018082558091505060019003906000526020600020906004020160009091909190915060008201518160000160006101000a81548173ffffffffffffffffffffffffffffffffffffffff021916908373ffffffffffffffffffffffffffffffffffffffff160217905550602082015181600101556040820151816002019080519060200190610742929190611588565b5060608201518160030160006101000a81548160ff021916908315150217905550505060016004805490506107779190611dd1565b7f08324b3d745b914e3abd4ffbfead91e3b78391a98c173202129215ab933adfbe60405160405180910390a250505050565b6060600080546107b890611e34565b80601f01602080910402602001604051908101604052809291908181526020018280546107e490611e34565b80156108315780601f1061080657610100808354040283529160200191610831565b820191906000526020600020905b81548152906001019060200180831161081457829003601f168201915b5050505050905090565b600560003373ffffffffffffffffffffffffffffffffffffffff1673ffffffffffffffffffffffffffffffffffffffff16815260200190815260200160002060009054906101000a900460ff16806108e05750600260009054906101000a900473ffffffffffffffffffffffffffffffffffffffff1673ffffffffffffffffffffffffffffffffffffffff163373ffffffffffffffffffffffffffffffffffffffff16145b61091f576040517f08c379a000000000000000000000000000000000000000000000000000000000815260040161091690611d82565b60405180910390fd5b806004805490508110610967576040517f08c379a000000000000000000000000000000000000000000000000000000000815260040161095e90611eb2565b60405180910390fd5b816004818154811061097c5761097b611ed2565b5b906000526020600020906004020160030160009054906101000a900460ff16156109db576040517f08c379a00000000000000000000000000000000000000000000000000000000081526004016109d290611f4d565b60405180910390fd5b60016006600085815260200190815260200160002060003373ffffffffffffffffffffffffffffffffffffffff1673ffffffffffffffffffffffffffffffffffffffff16815260200190815260200160002060006101000a81548160ff0219169083151502179055610a4c57600080fd5b60006006600085815260200190815260200160002060003373ffffffffffffffffffffffffffffffffffffffff1673ffffffffffffffffffffffffffffffffffffffff16815260200190815260200160002060006101000a81548160ff021916908315150217905550823373ffffffffffffffffffffffffffffffffffffffff167fec9ab91322523c899ede7830ec9bfc992b5981cdcc27b91162fb23de5791117b60405160405180910390a3505050565b600260009054906101000a900473ffffffffffffffffffffffffffffffffffffffff1681565b60056020528060005260406000206000915054906101000a900460ff1681565b600047905090565b6000600180549050905090565b60066020528160005260406000206020528060005260406000206000915091509054906101000a900460ff1681565b6000600560008373ffffffffffffffffffffffffffffffffffffffff1673ffffffffffffffffffffffffffffffffffffffff16815260200190815260200160002060009054906101000a900460ff169050919050565b60048181548110610bee57600080fd5b90600052602060002090600402016000915090508060000160009054906101000a900473ffffffffffffffffffffffffffffffffffffffff1690806001015490806002018054610c3d90611e34565b80601f0160208091040260200160405190810160405280929190818152602001828054610c6990611e34565b8015610cb65780601f10610c8b57610100808354040283529160200191610cb6565b820191906000526020600020905b815481529060010190602001808311610c9957829003601f168201915b5050505050908060030160009054906101000a900460ff16905084565b60606001805480602002602001604051908101604052809291908181526020018280548015610d5757602002820191906000526020600020905b8160009054906101000a900473ffffffffffffffffffffffffffffffffffffffff1673ffffffffffffffffffffffffffffffffffffffff1681526020019060010190808311610d0d575b5050505050905090565b60008054610d6e90611e34565b80601f0160208091040260200160405190810160405280929190818152602001828054610d9a90611e34565b8015610de75780601f10610dbc57610100808354040283529160200191610de7565b820191906000526020600020905b815481529060010190602001808311610dca57829003601f168201915b505050505081565b60035481565b60606004805480602002602001604051908101604052809291908181526020016000905b82821015610f5857838290600052602060002090600402016040518060800160405290816000820160009054906101000a900473ffffffffffffffffffffffffffffffffffffffff1673ffffffffffffffffffffffffffffffffffffffff1673ffffffffffffffffffffffffffffffffffffffff16815260200160018201548152602001600282018054610eac90611e34565b80601f0160208091040260200160405190810160405280929190818152602001828054610ed890611e34565b8015610f255780601f10610efa57610100808354040283529160200191610f25565b820191906000526020600020905b815481529060010190602001808311610f0857829003601f168201915b505050505081526020016003820160009054906101000a900460ff16151515158152505081526020019060010190610e19565b50505050905090565b6000805b6001805490508110156110365760066000848152602001908152602001600020600060018381548110610f9b57610f9a611ed2565b5b9060005260206000200160009054906101000a900473ffffffffffffffffffffffffffffffffffffffff1673ffffffffffffffffffffffffffffffffffffffff1673ffffffffffffffffffffffffffffffffffffffff16815260200190815260200160002060009054906101000a900460ff1615611023576001826110209190611f6d565b91505b808061102e90611fc3565b915050610f65565b50919050565b806004805490508110611084576040517f08c379a000000000000000000000000000000000000000000000000000000000815260040161107b90611eb2565b60405180910390fd5b816004818154811061109957611098611ed2565b5b906000526020600020906004020160030160009054906101000a900460ff16156110f8576040517f08c379a00000000000000000000000000000000000000000000000000000000081526004016110ef90611f4d565b60405180910390fd5b60035461110484610f61565b1015611145576040517f08c379a000000000000000000000000000000000000000000000000000000000815260040161113c90612058565b60405180910390fd5b60006004848154811061115b5761115a611ed2565b5b9060005260206000209060040201905060008160000160009054906101000a900473ffffffffffffffffffffffffffffffffffffffff1673ffffffffffffffffffffffffffffffffffffffff168260010154836002016040516111be9190612117565b60006040518083038185875af1925050503d80600081146111fb576040519150601f19603f3d011682016040523d82523d6000602084013e611200565b606091505b5050905080611244576040517f08c379a000000000000000000000000000000000000000000000000000000000815260040161123b9061217a565b60405180910390fd5b60018260030160006101000a81548160ff021916908315150217905550847fddb556f1d2c1ec821e910b019d3685b229db152a0ecd517ca7e24b8bd713928960405160405180910390a25050505050565b600560003373ffffffffffffffffffffffffffffffffffffffff1673ffffffffffffffffffffffffffffffffffffffff16815260200190815260200160002060009054906101000a900460ff168061133a5750600260009054906101000a900473ffffffffffffffffffffffffffffffffffffffff1673ffffffffffffffffffffffffffffffffffffffff163373ffffffffffffffffffffffffffffffffffffffff16145b611379576040517f08c379a000000000000000000000000000000000000000000000000000000000815260040161137090611d82565b60405180910390fd5b8160048054905081106113c1576040517f08c379a00000000000000000000000000000000000000000000000000000000081526004016113b890611eb2565b60405180910390fd5b826006600082815260200190815260200160002060003373ffffffffffffffffffffffffffffffffffffffff1673ffffffffffffffffffffffffffffffffffffffff16815260200190815260200160002060009054906101000a900460ff1615611460576040517f08c379a0000000000000000000000000000000000000000000000000000000008152600401611457906121e6565b60405180910390fd5b836004818154811061147557611474611ed2565b5b906000526020600020906004020160030160009054906101000a900460ff16156114d4576040517f08c379a00000000000000000000000000000000000000000000000000000000081526004016114cb90611f4d565b60405180910390fd5b60016006600087815260200190815260200160002060008673ffffffffffffffffffffffffffffffffffffffff1673ffffffffffffffffffffffffffffffffffffffff16815260200190815260200160002060006101000a81548160ff021916908315150217905550848473ffffffffffffffffffffffffffffffffffffffff167f90ec57f18fa7b15c6b8d5e4d1deb90796c74b2ff23d4d0cecad0cb42a96b312860405160405180910390a35050505050565b82805461159490611e34565b90600052602060002090601f0160209004810192826115b657600085556115fd565b82601f106115cf57805160ff19168380011785556115fd565b828001600101855582156115fd579182015b828111156115fc5782518255916020019190600101906115e1565b5b50905061160a919061160e565b5090565b5b8082111561162757600081600090555060010161160f565b5090565b6000819050919050565b61163e8161162b565b82525050565b60006040820190506116596000830185611635565b6116666020830184611635565b9392505050565b600080fd5b600080fd5b6116808161162b565b811461168b57600080fd5b50565b60008135905061169d81611677565b92915050565b6000602082840312156116b9576116b861166d565b5b60006116c78482850161168e565b91505092915050565b600073ffffffffffffffffffffffffffffffffffffffff82169050919050565b60006116fb826116d0565b9050919050565b61170b816116f0565b82525050565b60006020820190506117266000830184611702565b92915050565b60006020820190506117416000830184611635565b92915050565b6000611752826116d0565b9050919050565b61176281611747565b811461176d57600080fd5b50565b60008135905061177f81611759565b92915050565b600080fd5b600080fd5b600080fd5b60008083601f8401126117aa576117a9611785565b5b8235905067ffffffffffffffff8111156117c7576117c661178a565b5b6020830191508360018202830111156117e3576117e261178f565b5b9250929050565b600080600080606085870312156118045761180361166d565b5b600061181287828801611770565b94505060206118238782880161168e565b935050604085013567ffffffffffffffff81111561184457611843611672565b5b61185087828801611794565b925092505092959194509250565b600081519050919050565b600082825260208201905092915050565b60005b8381101561189857808201518184015260208101905061187d565b838111156118a7576000848401525b50505050565b6000601f19601f8301169050919050565b60006118c98261185e565b6118d38185611869565b93506118e381856020860161187a565b6118ec816118ad565b840191505092915050565b6000602082019050818103600083015261191181846118be565b905092915050565b611922816116f0565b811461192d57600080fd5b50565b60008135905061193f81611919565b92915050565b60006020828403121561195b5761195a61166d565b5b600061196984828501611930565b91505092915050565b60008115159050919050565b61198781611972565b82525050565b60006020820190506119a2600083018461197e565b92915050565b600080604083850312156119bf576119be61166d565b5b60006119cd8582860161168e565b92505060206119de85828601611930565b9150509250929050565b6119f181611747565b82525050565b600081519050919050565b600082825260208201905092915050565b6000611a1e826119f7565b611a288185611a02565b9350611a3881856020860161187a565b611a41816118ad565b840191505092915050565b6000608082019050611a6160008301876119e8565b611a6e6020830186611635565b8181036040830152611a808185611a13565b9050611a8f606083018461197e565b95945050505050565b600081519050919050565b600082825260208201905092915050565b6000819050602082019050919050565b611acd816116f0565b82525050565b6000611adf8383611ac4565b60208301905092915050565b6000602082019050919050565b6000611b0382611a98565b611b0d8185611aa3565b9350611b1883611ab4565b8060005b83811015611b49578151611b308882611ad3565b9750611b3b83611aeb565b925050600181019050611b1c565b5085935050505092915050565b60006020820190508181036000830152611b708184611af8565b905092915050565b600081519050919050565b600082825260208201905092915050565b6000819050602082019050919050565b611bad81611747565b82525050565b611bbc8161162b565b82525050565b600082825260208201905092915050565b6000611bde826119f7565b611be88185611bc2565b9350611bf881856020860161187a565b611c01816118ad565b840191505092915050565b611c1581611972565b82525050565b6000608083016000830151611c336000860182611ba4565b506020830151611c466020860182611bb3565b5060408301518482036040860152611c5e8282611bd3565b9150506060830151611c736060860182611c0c565b508091505092915050565b6000611c8a8383611c1b565b905092915050565b6000602082019050919050565b6000611caa82611b78565b611cb48185611b83565b935083602082028501611cc685611b94565b8060005b85811015611d025784840389528151611ce38582611c7e565b9450611cee83611c92565b925060208a01995050600181019050611cca565b50829750879550505050505092915050565b60006020820190508181036000830152611d2e8184611c9f565b905092915050565b7f556e617574686f72697a65640000000000000000000000000000000000000000600082015250565b6000611d6c600c83611869565b9150611d7782611d36565b602082019050919050565b60006020820190508181036000830152611d9b81611d5f565b9050919050565b7f4e487b7100000000000000000000000000000000000000000000000000000000600052601160045260246000fd5b6000611ddc8261162b565b9150611de78361162b565b925082821015611dfa57611df9611da2565b5b828203905092915050565b7f4e487b7100000000000000000000000000000000000000000000000000000000600052602260045260246000fd5b60006002820490506001821680611e4c57607f821691505b60208210811415611e6057611e5f611e05565b5b50919050565b7f747820646f6573206e6f74206578697374000000000000000000000000000000600082015250565b6000611e9c601183611869565b9150611ea782611e66565b602082019050919050565b60006020820190508181036000830152611ecb81611e8f565b9050919050565b7f4e487b7100000000000000000000000000000000000000000000000000000000600052603260045260246000fd5b7f7468697320747820616c72656164792065786563757465640000000000000000600082015250565b6000611f37601883611869565b9150611f4282611f01565b602082019050919050565b60006020820190508181036000830152611f6681611f2a565b9050919050565b6000611f788261162b565b9150611f838361162b565b9250827fffffffffffffffffffffffffffffffffffffffffffffffffffffffffffffffff03821115611fb857611fb7611da2565b5b828201905092915050565b6000611fce8261162b565b91507fffffffffffffffffffffffffffffffffffffffffffffffffffffffffffffffff82141561200157612000611da2565b5b600182019050919050565b7f617070726f76616c73203c207265717569726564000000000000000000000000600082015250565b6000612042601483611869565b915061204d8261200c565b602082019050919050565b6000602082019050818103600083015261207181612035565b9050919050565b600081905092915050565b60008190508160005260206000209050919050565b600081546120a581611e34565b6120af8186612078565b945060018216600081146120ca57600181146120db5761210e565b60ff1983168652818601935061210e565b6120e485612083565b60005b83811015612106578154818901526001820191506020810190506120e7565b838801955050505b50505092915050565b60006121238284612098565b915081905092915050565b7f7478206661696c69640000000000000000000000000000000000000000000000600082015250565b6000612164600983611869565b915061216f8261212e565b602082019050919050565b6000602082019050818103600083015261219381612157565b9050919050565b7f747820616c726561647920617070726f76656400000000000000000000000000600082015250565b60006121d0601383611869565b91506121db8261219a565b602082019050919050565b600060208201905081810360008301526121ff816121c3565b905091905056fea26469706673582212200207b08de766703d0bf919e91994219616c82b43c0c28869c5100f28b32cb31264736f6c63430008090033",
  "immutableReferences": {},
  "source": "// SPDX-License-Identifier: MIT\r\npragma solidity >=0.8.0;\r\n\r\n/**\r\n * MultiSigWallet\r\n */\r\ncontract MultiSigWallet {\r\n    \r\n    // \r\n    struct Transaction {\r\n        // \r\n        address payable to;\r\n        // \r\n        uint256 value;\r\n        // \r\n        bytes data;\r\n        // \r\n        bool executed;\r\n    }\r\n\r\n    // \r\n    string public walletName;\r\n    // Owner\r\n    address[] public owners;\r\n    //owner of thw walletfactory paying for all trasaction\r\n    address public singleAuthority;\r\n    // \r\n    uint256 public required;\r\n    // \r\n    Transaction[] public transactions;\r\n\r\n    // ownermap\r\n    mapping(address => bool) public isOwner;\r\n    // IDonwermap\r\n    mapping(uint256 => mapping(address => bool)) public approved;\r\n\r\n    // \r\n    event Deposit(address indexed sender, uint256 amount, uint256 balance);\r\n    event Submit(uint256 indexed txId);\r\n    event Approve(address indexed sender, uint256 indexed txId);\r\n    event Revoke(address indexed sender, uint256 indexed txId);\r\n    event Execute(uint256 indexed txId);\r\n\r\n    // owner\r\n    modifier onlyOwnerOrAuthority() {\r\n        require(isOwner[msg.sender] || msg.sender == singleAuthority, \"Unauthorized\");\r\n        _;\r\n    }\r\n\r\n    // ID\r\n    modifier txExists(uint256 _txId) {\r\n        require(_txId < transactions.length, \"tx does not exist\");\r\n        _;\r\n    }\r\n\r\n    // \r\n    modifier notApproved(uint256 _txId) {\r\n        require(!approved[_txId][msg.sender], \"tx already approved\");\r\n        _;\r\n    }\r\n\r\n    // ID\r\n    modifier notExecuted(uint256 _txId) {\r\n        require(!transactions[_txId].executed, \"this tx already executed\");\r\n        _;\r\n    }\r\n\r\n    /**\r\n     * \r\n     * @param _name \r\n     * @param _owners owner\r\n     * @param _required \r\n     */\r\n    constructor(\r\n        string memory _name,\r\n        address[] memory _owners,\r\n        address _singleAuthority,\r\n        uint256 _required\r\n    ) {\r\n        // \r\n        require(\r\n            _owners.length > 0,\r\n            \"number of owner addresses must be more than zero!!\"\r\n        );\r\n        require(\r\n            _required > 0 && _required <= _owners.length,\r\n            \"invalid required number of owners\"\r\n        );\r\n\r\n        singleAuthority = _singleAuthority;\r\n\r\n        // ownermap\r\n        for (uint256 i; i < _owners.length; i++) {\r\n            // owner\r\n            address owner = _owners[i];\r\n            // owner\r\n            require(owner != address(0), \"invalid address\");\r\n            // \r\n            require(!isOwner[owner], \"owner is not unique\");\r\n            // map\r\n            isOwner[owner] = true;\r\n            owners.push(owner);\r\n        }\r\n\r\n        // \r\n        walletName = _name;\r\n        // \r\n        required = _required;\r\n    }\r\n\r\n    /**\r\n     * \r\n     */\r\n    receive() external payable {\r\n        // \r\n        emit Deposit(msg.sender, msg.value, address(this).balance);\r\n    }\r\n\r\n    /**\r\n     * \r\n     * @param _to \r\n     * @param _value \r\n     * @param _data \r\n     */\r\n    function submit(\r\n        address payable _to,\r\n        uint256 _value,\r\n        bytes calldata _data\r\n    ) external onlyOwnerOrAuthority {\r\n        // Transaction\r\n        transactions.push(\r\n            Transaction({to: _to, value: _value, data: _data, executed: false})\r\n        );\r\n        // \r\n        emit Submit(transactions.length - 1);\r\n    }\r\n\r\n    /**\r\n     * ID\r\n     * @param _txId ID\r\n     */\r\n    function approve(uint256 _txId, address owneradd)\r\n        external\r\n        onlyOwnerOrAuthority\r\n        txExists(_txId)\r\n        notApproved(_txId)\r\n        notExecuted(_txId)\r\n    {\r\n        // \r\n        approved[_txId][owneradd] = true;\r\n        // \r\n        emit Approve(owneradd, _txId);\r\n    }\r\n\r\n    /**\r\n     * ID\r\n     * @param _txId ID\r\n     */\r\n    function _getApprovalCount(uint256 _txId)\r\n        public\r\n        view\r\n        returns (uint256 count)\r\n    {\r\n        // \r\n        for (uint256 i; i < owners.length; i++) {\r\n            // count\r\n            if (approved[_txId][owners[i]]) {\r\n                count += 1;\r\n            }\r\n        }\r\n    }\r\n\r\n    /**\r\n     * \r\n     * @param _txId ID\r\n     */\r\n    function execute(uint256 _txId)\r\n        external\r\n        payable\r\n        txExists(_txId)\r\n        notExecuted(_txId)\r\n    {\r\n        // \r\n        require(_getApprovalCount(_txId) >= required, \"approvals < required\");\r\n        // \r\n        Transaction storage transaction = transactions[_txId];\r\n     \r\n        // \r\n        (bool success, ) = transaction.to.call{value: transaction.value}(\r\n           transaction.data\r\n       );\r\n        // \r\n        require(success, \"tx failid\");\r\n        \r\n           // \r\n        transaction.executed = true;\r\n        // \r\n        emit Execute(_txId);\r\n    }\r\n\r\n    /**\r\n     * \r\n     * @param _txId ID\r\n     */\r\n    function revoke(uint256 _txId)\r\n        external\r\n        onlyOwnerOrAuthority\r\n        txExists(_txId)\r\n        notExecuted(_txId)\r\n    {\r\n        // \r\n        require(approved[_txId][msg.sender] = true);\r\n        // \r\n        approved[_txId][msg.sender] = false;\r\n        // \r\n        emit Revoke(msg.sender, _txId);\r\n    }\r\n\r\n    /**\r\n     * \r\n     */\r\n    function getName() public view returns (string memory) {\r\n        return walletName;\r\n    }\r\n\r\n    /**\r\n     * \r\n     */\r\n    function getRequired() public view returns (uint256) {\r\n        return required;\r\n    }\r\n\r\n    /**\r\n     * owner\r\n     */\r\n    function getOwnersCount() public view returns (uint256) {\r\n        return owners.length;\r\n    }\r\n\r\n    //returns all owners addresss\r\n    function getOwners() public view returns (address[] memory) {\r\n        return owners;\r\n    }\r\n\r\n    //returns all owners addresss\r\n    function verifyOwner(address _sender) public view returns (bool) {\r\n        return isOwner[_sender];\r\n    }\r\n\r\n    //return balance of the wallet\r\n    function getAsset() public view returns (uint256) {\r\n        return address(this).balance;\r\n    }\r\n\r\n    /**\r\n     * \r\n     */\r\n    function getTxs() public view returns (Transaction[] memory) {\r\n        return transactions;\r\n    }\r\n}\r\n\r\n\r\n\r\n\r\n\r\n\r\n\r\n\r\n\r\n\r\n\r\n\r\n\r\n\r\n\r\n\r\n\r\n\r\n",
  "sourcePath": "/mnt/c/Users/papiarana/Downloads/IDQ Wallet/backend/contracts/Wallet/MultiSigWallet.sol",
  "compiler": {
    "name": "solc",
    "version": "0.8.9+commit.e5eed63a.Emscripten.clang"
  },
  "schemaVersion": "3.4.15",
  "updatedAt": "2023-09-15T14:28:32.616Z",
  "devdoc": {
    "kind": "dev",
    "methods": {
      "_getApprovalCount(uint256)": {
        "params": {
          "_txId": "ID"
        }
      },
      "approve(uint256,address)": {
        "params": {
          "_txId": "ID"
        }
      },
      "constructor": {
        "params": {
          "_name": "",
          "_owners": "owner",
          "_required": ""
        }
      },
      "execute(uint256)": {
        "params": {
          "_txId": "ID"
        }
      },
      "revoke(uint256)": {
        "params": {
          "_txId": "ID"
        }
      },
      "submit(address,uint256,bytes)": {
        "params": {
          "_data": "",
          "_to": "",
          "_value": ""
        }
      }
    },
    "version": 1
  },
  "userdoc": {
    "kind": "user",
    "methods": {
      "_getApprovalCount(uint256)": {
        "notice": "ID"
      },
      "approve(uint256,address)": {
        "notice": "ID"
      },
      "constructor": {
        "notice": ""
      },
      "execute(uint256)": {
        "notice": ""
      },
      "getName()": {
        "notice": ""
      },
      "getOwnersCount()": {
        "notice": "owner"
      },
      "getRequired()": {
        "notice": ""
      },
      "getTxs()": {
        "notice": ""
      },
      "revoke(uint256)": {
        "notice": ""
      },
      "submit(address,uint256,bytes)": {
        "notice": ""
      }
    },
    "notice": "MultiSigWallet",
    "version": 1
  }
}