{
  "contractName": "MultiSigWallet",
  "abi": [
    {
      "inputs": [
        {
          "internalType": "string",
          "name": "_name",
          "type": "string"
        },
        {
          "internalType": "address[]",
          "name": "_owners",
          "type": "address[]"
        },
        {
          "internalType": "uint256",
          "name": "_required",
          "type": "uint256"
        }
      ],
      "stateMutability": "nonpayable",
      "type": "constructor"
    },
    {
      "anonymous": false,
      "inputs": [
        {
          "indexed": true,
          "internalType": "address",
          "name": "owner",
          "type": "address"
        },
        {
          "indexed": true,
          "internalType": "uint256",
          "name": "txId",
          "type": "uint256"
        }
      ],
      "name": "Approve",
      "type": "event"
    },
    {
      "anonymous": false,
      "inputs": [
        {
          "indexed": true,
          "internalType": "address",
          "name": "sender",
          "type": "address"
        },
        {
          "indexed": false,
          "internalType": "uint256",
          "name": "amount",
          "type": "uint256"
        },
        {
          "indexed": false,
          "internalType": "uint256",
          "name": "balance",
          "type": "uint256"
        }
      ],
      "name": "Deposit",
      "type": "event"
    },
    {
      "anonymous": false,
      "inputs": [
        {
          "indexed": true,
          "internalType": "uint256",
          "name": "txId",
          "type": "uint256"
        }
      ],
      "name": "Execute",
      "type": "event"
    },
    {
      "anonymous": false,
      "inputs": [
        {
          "indexed": true,
          "internalType": "address",
          "name": "owner",
          "type": "address"
        },
        {
          "indexed": true,
          "internalType": "uint256",
          "name": "txId",
          "type": "uint256"
        }
      ],
      "name": "Revoke",
      "type": "event"
    },
    {
      "anonymous": false,
      "inputs": [
        {
          "indexed": true,
          "internalType": "uint256",
          "name": "txId",
          "type": "uint256"
        }
      ],
      "name": "Submit",
      "type": "event"
    },
    {
      "inputs": [
        {
          "internalType": "uint256",
          "name": "",
          "type": "uint256"
        },
        {
          "internalType": "address",
          "name": "",
          "type": "address"
        }
      ],
      "name": "approved",
      "outputs": [
        {
          "internalType": "bool",
          "name": "",
          "type": "bool"
        }
      ],
      "stateMutability": "view",
      "type": "function"
    },
    {
      "inputs": [
        {
          "internalType": "address",
          "name": "",
          "type": "address"
        }
      ],
      "name": "isOwner",
      "outputs": [
        {
          "internalType": "bool",
          "name": "",
          "type": "bool"
        }
      ],
      "stateMutability": "view",
      "type": "function"
    },
    {
      "inputs": [
        {
          "internalType": "uint256",
          "name": "",
          "type": "uint256"
        }
      ],
      "name": "owners",
      "outputs": [
        {
          "internalType": "address",
          "name": "",
          "type": "address"
        }
      ],
      "stateMutability": "view",
      "type": "function"
    },
    {
      "inputs": [],
      "name": "required",
      "outputs": [
        {
          "internalType": "uint256",
          "name": "",
          "type": "uint256"
        }
      ],
      "stateMutability": "view",
      "type": "function"
    },
    {
      "inputs": [
        {
          "internalType": "uint256",
          "name": "",
          "type": "uint256"
        }
      ],
      "name": "transactions",
      "outputs": [
        {
          "internalType": "address payable",
          "name": "to",
          "type": "address"
        },
        {
          "internalType": "uint256",
          "name": "value",
          "type": "uint256"
        },
        {
          "internalType": "bytes",
          "name": "data",
          "type": "bytes"
        },
        {
          "internalType": "bool",
          "name": "executed",
          "type": "bool"
        }
      ],
      "stateMutability": "view",
      "type": "function"
    },
    {
      "inputs": [],
      "name": "walletName",
      "outputs": [
        {
          "internalType": "string",
          "name": "",
          "type": "string"
        }
      ],
      "stateMutability": "view",
      "type": "function"
    },
    {
      "stateMutability": "payable",
      "type": "receive"
    },
    {
      "inputs": [
        {
          "internalType": "address payable",
          "name": "_to",
          "type": "address"
        },
        {
          "internalType": "uint256",
          "name": "_value",
          "type": "uint256"
        },
        {
          "internalType": "bytes",
          "name": "_data",
          "type": "bytes"
        }
      ],
      "name": "submit",
      "outputs": [],
      "stateMutability": "nonpayable",
      "type": "function"
    },
    {
      "inputs": [
        {
          "internalType": "uint256",
          "name": "_txId",
          "type": "uint256"
        }
      ],
      "name": "approve",
      "outputs": [],
      "stateMutability": "nonpayable",
      "type": "function"
    },
    {
      "inputs": [
        {
          "internalType": "uint256",
          "name": "_txId",
          "type": "uint256"
        }
      ],
      "name": "_getApprovalCount",
      "outputs": [
        {
          "internalType": "uint256",
          "name": "count",
          "type": "uint256"
        }
      ],
      "stateMutability": "view",
      "type": "function"
    },
    {
      "inputs": [
        {
          "internalType": "uint256",
          "name": "_txId",
          "type": "uint256"
        }
      ],
      "name": "execute",
      "outputs": [],
      "stateMutability": "payable",
      "type": "function"
    },
    {
      "inputs": [
        {
          "internalType": "uint256",
          "name": "_txId",
          "type": "uint256"
        }
      ],
      "name": "revoke",
      "outputs": [],
      "stateMutability": "nonpayable",
      "type": "function"
    },
    {
      "inputs": [],
      "name": "getName",
      "outputs": [
        {
          "internalType": "string",
          "name": "",
          "type": "string"
        }
      ],
      "stateMutability": "view",
      "type": "function"
    },
    {
      "inputs": [],
      "name": "getRequired",
      "outputs": [
        {
          "internalType": "uint256",
          "name": "",
          "type": "uint256"
        }
      ],
      "stateMutability": "view",
      "type": "function"
    },
    {
      "inputs": [],
      "name": "getOwnersCount",
      "outputs": [
        {
          "internalType": "uint256",
          "name": "",
          "type": "uint256"
        }
      ],
      "stateMutability": "view",
      "type": "function"
    },
    {
      "inputs": [],
      "name": "getTxs",
      "outputs": [
        {
          "components": [
            {
              "internalType": "address payable",
              "name": "to",
              "type": "address"
            },
            {
              "internalType": "uint256",
              "name": "value",
              "type": "uint256"
            },
            {
              "internalType": "bytes",
              "name": "data",
              "type": "bytes"
            },
            {
              "internalType": "bool",
              "name": "executed",
              "type": "bool"
            }
          ],
          "internalType": "struct MultiSigWallet.Transaction[]",
          "name": "",
          "type": "tuple[]"
        }
      ],
      "stateMutability": "view",
      "type": "function"
    }
  ],
  "bytecode": "0x60806040523480156200001157600080fd5b50604051620028ff380380620028ff8339818101604052810190620000379190620006c8565b60008251116200007e576040517f08c379a00000000000000000000000000000000000000000000000000000000081526004016200007590620007e9565b60405180910390fd5b60008111801562000090575081518111155b620000d2576040517f08c379a0000000000000000000000000000000000000000000000000000000008152600401620000c99062000881565b60405180910390fd5b60005b8251811015620002d6576000838281518110620000f757620000f6620008a3565b5b60200260200101519050600073ffffffffffffffffffffffffffffffffffffffff168173ffffffffffffffffffffffffffffffffffffffff16141562000174576040517f08c379a00000000000000000000000000000000000000000000000000000000081526004016200016b9062000922565b60405180910390fd5b600460008273ffffffffffffffffffffffffffffffffffffffff1673ffffffffffffffffffffffffffffffffffffffff16815260200190815260200160002060009054906101000a900460ff161562000204576040517f08c379a0000000000000000000000000000000000000000000000000000000008152600401620001fb9062000994565b60405180910390fd5b6001600460008373ffffffffffffffffffffffffffffffffffffffff1673ffffffffffffffffffffffffffffffffffffffff16815260200190815260200160002060006101000a81548160ff0219169083151502179055506001819080600181540180825580915050600190039060005260206000200160009091909190916101000a81548173ffffffffffffffffffffffffffffffffffffffff021916908373ffffffffffffffffffffffffffffffffffffffff160217905550508080620002cd90620009e5565b915050620000d5565b508260009080519060200190620002ef92919062000300565b508060028190555050505062000a98565b8280546200030e9062000a62565b90600052602060002090601f0160209004810192826200033257600085556200037e565b82601f106200034d57805160ff19168380011785556200037e565b828001600101855582156200037e579182015b828111156200037d57825182559160200191906001019062000360565b5b5090506200038d919062000391565b5090565b5b80821115620003ac57600081600090555060010162000392565b5090565b6000604051905090565b600080fd5b600080fd5b600080fd5b600080fd5b6000601f19601f8301169050919050565b7f4e487b7100000000000000000000000000000000000000000000000000000000600052604160045260246000fd5b6200041982620003ce565b810181811067ffffffffffffffff821117156200043b576200043a620003df565b5b80604052505050565b600062000450620003b0565b90506200045e82826200040e565b919050565b600067ffffffffffffffff821115620004815762000480620003df565b5b6200048c82620003ce565b9050602081019050919050565b60005b83811015620004b95780820151818401526020810190506200049c565b83811115620004c9576000848401525b50505050565b6000620004e6620004e08462000463565b62000444565b905082815260208101848484011115620005055762000504620003c9565b5b6200051284828562000499565b509392505050565b600082601f830112620005325762000531620003c4565b5b815162000544848260208601620004cf565b91505092915050565b600067ffffffffffffffff8211156200056b576200056a620003df565b5b602082029050602081019050919050565b600080fd5b600073ffffffffffffffffffffffffffffffffffffffff82169050919050565b6000620005ae8262000581565b9050919050565b620005c081620005a1565b8114620005cc57600080fd5b50565b600081519050620005e081620005b5565b92915050565b6000620005fd620005f7846200054d565b62000444565b905080838252602082019050602084028301858111156200062357620006226200057c565b5b835b818110156200065057806200063b8882620005cf565b84526020840193505060208101905062000625565b5050509392505050565b600082601f830112620006725762000671620003c4565b5b815162000684848260208601620005e6565b91505092915050565b6000819050919050565b620006a2816200068d565b8114620006ae57600080fd5b50565b600081519050620006c28162000697565b92915050565b600080600060608486031215620006e457620006e3620003ba565b5b600084015167ffffffffffffffff811115620007055762000704620003bf565b5b62000713868287016200051a565b935050602084015167ffffffffffffffff811115620007375762000736620003bf565b5b62000745868287016200065a565b92505060406200075886828701620006b1565b9150509250925092565b600082825260208201905092915050565b7f6e756d626572206f66206f776e657220616464726573736573206d757374206260008201527f65206d6f7265207468616e207a65726f21210000000000000000000000000000602082015250565b6000620007d160328362000762565b9150620007de8262000773565b604082019050919050565b600060208201905081810360008301526200080481620007c2565b9050919050565b7f696e76616c6964207265717569726564206e756d626572206f66206f776e657260008201527f7300000000000000000000000000000000000000000000000000000000000000602082015250565b60006200086960218362000762565b915062000876826200080b565b604082019050919050565b600060208201905081810360008301526200089c816200085a565b9050919050565b7f4e487b7100000000000000000000000000000000000000000000000000000000600052603260045260246000fd5b7f696e76616c696420616464726573730000000000000000000000000000000000600082015250565b60006200090a600f8362000762565b91506200091782620008d2565b602082019050919050565b600060208201905081810360008301526200093d81620008fb565b9050919050565b7f6f776e6572206973206e6f7420756e6971756500000000000000000000000000600082015250565b60006200097c60138362000762565b9150620009898262000944565b602082019050919050565b60006020820190508181036000830152620009af816200096d565b9050919050565b7f4e487b7100000000000000000000000000000000000000000000000000000000600052601160045260246000fd5b6000620009f2826200068d565b91507fffffffffffffffffffffffffffffffffffffffffffffffffffffffffffffffff82141562000a285762000a27620009b6565b5b600182019050919050565b7f4e487b7100000000000000000000000000000000000000000000000000000000600052602260045260246000fd5b6000600282049050600182168062000a7b57607f821691505b6020821081141562000a925762000a9162000a33565b5b50919050565b611e578062000aa86000396000f3fe6080604052600436106100ec5760003560e01c80638253951a1161008a578063dc8452cd11610059578063dc8452cd14610366578063e0cedd9c14610391578063eda8b7cd146103bc578063fe0d94c1146103f957610143565b80638253951a146102955780639ace38c2146102d2578063b759f95414610312578063cf8d8ca01461033b57610143565b806317d7de7c116100c657806317d7de7c146101d957806320c5429b146102045780632f54bf6e1461022d57806373ff81cc1461026a57610143565b8063025e7c27146101485780631398a5f61461018557806314de327f146101b057610143565b36610143573373ffffffffffffffffffffffffffffffffffffffff167f90890809c654f11d6e72a28fa60149770a0d11ec6c92319d6ceb2bb0a4ea1a15344760405161013992919061133f565b60405180910390a2005b600080fd5b34801561015457600080fd5b5061016f600480360381019061016a919061139e565b610415565b60405161017c919061140c565b60405180910390f35b34801561019157600080fd5b5061019a610454565b6040516101a79190611427565b60405180910390f35b3480156101bc57600080fd5b506101d760048036038101906101d291906114e5565b61045e565b005b3480156101e557600080fd5b506101ee610667565b6040516101fb91906115f2565b60405180910390f35b34801561021057600080fd5b5061022b6004803603810190610226919061139e565b6106f9565b005b34801561023957600080fd5b50610254600480360381019061024f9190611640565b610964565b6040516102619190611688565b60405180910390f35b34801561027657600080fd5b5061027f610984565b60405161028c9190611427565b60405180910390f35b3480156102a157600080fd5b506102bc60048036038101906102b791906116a3565b610991565b6040516102c99190611688565b60405180910390f35b3480156102de57600080fd5b506102f960048036038101906102f4919061139e565b6109c0565b6040516103099493929190611747565b60405180910390f35b34801561031e57600080fd5b506103396004803603810190610334919061139e565b610ab5565b005b34801561034757600080fd5b50610350610d4f565b60405161035d91906115f2565b60405180910390f35b34801561037257600080fd5b5061037b610ddd565b6040516103889190611427565b60405180910390f35b34801561039d57600080fd5b506103a6610de3565b6040516103b3919061192f565b60405180910390f35b3480156103c857600080fd5b506103e360048036038101906103de919061139e565b610f4f565b6040516103f09190611427565b60405180910390f35b610413600480360381019061040e919061139e565b61102a565b005b6001818154811061042557600080fd5b906000526020600020016000915054906101000a900473ffffffffffffffffffffffffffffffffffffffff1681565b6000600254905090565b600460003373ffffffffffffffffffffffffffffffffffffffff1673ffffffffffffffffffffffffffffffffffffffff16815260200190815260200160002060009054906101000a900460ff166104ea576040517f08c379a00000000000000000000000000000000000000000000000000000000081526004016104e19061199d565b60405180910390fd5b600360405180608001604052808673ffffffffffffffffffffffffffffffffffffffff16815260200185815260200184848080601f016020809104026020016040519081016040528093929190818152602001838380828437600081840152601f19601f82011690508083019250505050505050815260200160001515815250908060018154018082558091505060019003906000526020600020906004020160009091909190915060008201518160000160006101000a81548173ffffffffffffffffffffffffffffffffffffffff021916908373ffffffffffffffffffffffffffffffffffffffff160217905550602082015181600101556040820151816002019080519060200190610600929190611283565b5060608201518160030160006101000a81548160ff0219169083151502179055505050600160038054905061063591906119ec565b7f08324b3d745b914e3abd4ffbfead91e3b78391a98c173202129215ab933adfbe60405160405180910390a250505050565b60606000805461067690611a4f565b80601f01602080910402602001604051908101604052809291908181526020018280546106a290611a4f565b80156106ef5780601f106106c4576101008083540402835291602001916106ef565b820191906000526020600020905b8154815290600101906020018083116106d257829003601f168201915b5050505050905090565b600460003373ffffffffffffffffffffffffffffffffffffffff1673ffffffffffffffffffffffffffffffffffffffff16815260200190815260200160002060009054906101000a900460ff16610785576040517f08c379a000000000000000000000000000000000000000000000000000000000815260040161077c9061199d565b60405180910390fd5b8060038054905081106107cd576040517f08c379a00000000000000000000000000000000000000000000000000000000081526004016107c490611acd565b60405180910390fd5b81600381815481106107e2576107e1611aed565b5b906000526020600020906004020160030160009054906101000a900460ff1615610841576040517f08c379a000000000000000000000000000000000000000000000000000000000815260040161083890611b68565b60405180910390fd5b60016005600085815260200190815260200160002060003373ffffffffffffffffffffffffffffffffffffffff1673ffffffffffffffffffffffffffffffffffffffff16815260200190815260200160002060006101000a81548160ff02191690831515021790556108b257600080fd5b60006005600085815260200190815260200160002060003373ffffffffffffffffffffffffffffffffffffffff1673ffffffffffffffffffffffffffffffffffffffff16815260200190815260200160002060006101000a81548160ff021916908315150217905550823373ffffffffffffffffffffffffffffffffffffffff167fec9ab91322523c899ede7830ec9bfc992b5981cdcc27b91162fb23de5791117b60405160405180910390a3505050565b60046020528060005260406000206000915054906101000a900460ff1681565b6000600180549050905090565b60056020528160005260406000206020528060005260406000206000915091509054906101000a900460ff1681565b600381815481106109d057600080fd5b90600052602060002090600402016000915090508060000160009054906101000a900473ffffffffffffffffffffffffffffffffffffffff1690806001015490806002018054610a1f90611a4f565b80601f0160208091040260200160405190810160405280929190818152602001828054610a4b90611a4f565b8015610a985780601f10610a6d57610100808354040283529160200191610a98565b820191906000526020600020905b815481529060010190602001808311610a7b57829003601f168201915b5050505050908060030160009054906101000a900460ff16905084565b600460003373ffffffffffffffffffffffffffffffffffffffff1673ffffffffffffffffffffffffffffffffffffffff16815260200190815260200160002060009054906101000a900460ff16610b41576040517f08c379a0000000000000000000000000000000000000000000000000000000008152600401610b389061199d565b60405180910390fd5b806003805490508110610b89576040517f08c379a0000000000000000000000000000000000000000000000000000000008152600401610b8090611acd565b60405180910390fd5b816005600082815260200190815260200160002060003373ffffffffffffffffffffffffffffffffffffffff1673ffffffffffffffffffffffffffffffffffffffff16815260200190815260200160002060009054906101000a900460ff1615610c28576040517f08c379a0000000000000000000000000000000000000000000000000000000008152600401610c1f90611bd4565b60405180910390fd5b8260038181548110610c3d57610c3c611aed565b5b906000526020600020906004020160030160009054906101000a900460ff1615610c9c576040517f08c379a0000000000000000000000000000000000000000000000000000000008152600401610c9390611b68565b60405180910390fd5b60016005600086815260200190815260200160002060003373ffffffffffffffffffffffffffffffffffffffff1673ffffffffffffffffffffffffffffffffffffffff16815260200190815260200160002060006101000a81548160ff021916908315150217905550833373ffffffffffffffffffffffffffffffffffffffff167f90ec57f18fa7b15c6b8d5e4d1deb90796c74b2ff23d4d0cecad0cb42a96b312860405160405180910390a350505050565b60008054610d5c90611a4f565b80601f0160208091040260200160405190810160405280929190818152602001828054610d8890611a4f565b8015610dd55780601f10610daa57610100808354040283529160200191610dd5565b820191906000526020600020905b815481529060010190602001808311610db857829003601f168201915b505050505081565b60025481565b60606003805480602002602001604051908101604052809291908181526020016000905b82821015610f4657838290600052602060002090600402016040518060800160405290816000820160009054906101000a900473ffffffffffffffffffffffffffffffffffffffff1673ffffffffffffffffffffffffffffffffffffffff1673ffffffffffffffffffffffffffffffffffffffff16815260200160018201548152602001600282018054610e9a90611a4f565b80601f0160208091040260200160405190810160405280929190818152602001828054610ec690611a4f565b8015610f135780601f10610ee857610100808354040283529160200191610f13565b820191906000526020600020905b815481529060010190602001808311610ef657829003601f168201915b505050505081526020016003820160009054906101000a900460ff16151515158152505081526020019060010190610e07565b50505050905090565b6000805b6001805490508110156110245760056000848152602001908152602001600020600060018381548110610f8957610f88611aed565b5b9060005260206000200160009054906101000a900473ffffffffffffffffffffffffffffffffffffffff1673ffffffffffffffffffffffffffffffffffffffff1673ffffffffffffffffffffffffffffffffffffffff16815260200190815260200160002060009054906101000a900460ff16156110115760018261100e9190611bf4565b91505b808061101c90611c4a565b915050610f53565b50919050565b806003805490508110611072576040517f08c379a000000000000000000000000000000000000000000000000000000000815260040161106990611acd565b60405180910390fd5b816003818154811061108757611086611aed565b5b906000526020600020906004020160030160009054906101000a900460ff16156110e6576040517f08c379a00000000000000000000000000000000000000000000000000000000081526004016110dd90611b68565b60405180910390fd5b6002546110f284610f4f565b1015611133576040517f08c379a000000000000000000000000000000000000000000000000000000000815260040161112a90611cdf565b60405180910390fd5b60006003848154811061114957611148611aed565b5b9060005260206000209060040201905060008160000160009054906101000a900473ffffffffffffffffffffffffffffffffffffffff1673ffffffffffffffffffffffffffffffffffffffff168260010154836002016040516111ac9190611d9e565b60006040518083038185875af1925050503d80600081146111e9576040519150601f19603f3d011682016040523d82523d6000602084013e6111ee565b606091505b5050905080611232576040517f08c379a000000000000000000000000000000000000000000000000000000000815260040161122990611e01565b60405180910390fd5b60018260030160006101000a81548160ff021916908315150217905550847fddb556f1d2c1ec821e910b019d3685b229db152a0ecd517ca7e24b8bd713928960405160405180910390a25050505050565b82805461128f90611a4f565b90600052602060002090601f0160209004810192826112b157600085556112f8565b82601f106112ca57805160ff19168380011785556112f8565b828001600101855582156112f8579182015b828111156112f75782518255916020019190600101906112dc565b5b5090506113059190611309565b5090565b5b8082111561132257600081600090555060010161130a565b5090565b6000819050919050565b61133981611326565b82525050565b60006040820190506113546000830185611330565b6113616020830184611330565b9392505050565b600080fd5b600080fd5b61137b81611326565b811461138657600080fd5b50565b60008135905061139881611372565b92915050565b6000602082840312156113b4576113b3611368565b5b60006113c284828501611389565b91505092915050565b600073ffffffffffffffffffffffffffffffffffffffff82169050919050565b60006113f6826113cb565b9050919050565b611406816113eb565b82525050565b600060208201905061142160008301846113fd565b92915050565b600060208201905061143c6000830184611330565b92915050565b600061144d826113cb565b9050919050565b61145d81611442565b811461146857600080fd5b50565b60008135905061147a81611454565b92915050565b600080fd5b600080fd5b600080fd5b60008083601f8401126114a5576114a4611480565b5b8235905067ffffffffffffffff8111156114c2576114c1611485565b5b6020830191508360018202830111156114de576114dd61148a565b5b9250929050565b600080600080606085870312156114ff576114fe611368565b5b600061150d8782880161146b565b945050602061151e87828801611389565b935050604085013567ffffffffffffffff81111561153f5761153e61136d565b5b61154b8782880161148f565b925092505092959194509250565b600081519050919050565b600082825260208201905092915050565b60005b83811015611593578082015181840152602081019050611578565b838111156115a2576000848401525b50505050565b6000601f19601f8301169050919050565b60006115c482611559565b6115ce8185611564565b93506115de818560208601611575565b6115e7816115a8565b840191505092915050565b6000602082019050818103600083015261160c81846115b9565b905092915050565b61161d816113eb565b811461162857600080fd5b50565b60008135905061163a81611614565b92915050565b60006020828403121561165657611655611368565b5b60006116648482850161162b565b91505092915050565b60008115159050919050565b6116828161166d565b82525050565b600060208201905061169d6000830184611679565b92915050565b600080604083850312156116ba576116b9611368565b5b60006116c885828601611389565b92505060206116d98582860161162b565b9150509250929050565b6116ec81611442565b82525050565b600081519050919050565b600082825260208201905092915050565b6000611719826116f2565b61172381856116fd565b9350611733818560208601611575565b61173c816115a8565b840191505092915050565b600060808201905061175c60008301876116e3565b6117696020830186611330565b818103604083015261177b818561170e565b905061178a6060830184611679565b95945050505050565b600081519050919050565b600082825260208201905092915050565b6000819050602082019050919050565b6117c881611442565b82525050565b6117d781611326565b82525050565b600082825260208201905092915050565b60006117f9826116f2565b61180381856117dd565b9350611813818560208601611575565b61181c816115a8565b840191505092915050565b6118308161166d565b82525050565b600060808301600083015161184e60008601826117bf565b50602083015161186160208601826117ce565b506040830151848203604086015261187982826117ee565b915050606083015161188e6060860182611827565b508091505092915050565b60006118a58383611836565b905092915050565b6000602082019050919050565b60006118c582611793565b6118cf818561179e565b9350836020820285016118e1856117af565b8060005b8581101561191d57848403895281516118fe8582611899565b9450611909836118ad565b925060208a019950506001810190506118e5565b50829750879550505050505092915050565b6000602082019050818103600083015261194981846118ba565b905092915050565b7f6d73672e73656e646572206d757374206265206f776e65722061646472657373600082015250565b6000611987602083611564565b915061199282611951565b602082019050919050565b600060208201905081810360008301526119b68161197a565b9050919050565b7f4e487b7100000000000000000000000000000000000000000000000000000000600052601160045260246000fd5b60006119f782611326565b9150611a0283611326565b925082821015611a1557611a146119bd565b5b828203905092915050565b7f4e487b7100000000000000000000000000000000000000000000000000000000600052602260045260246000fd5b60006002820490506001821680611a6757607f821691505b60208210811415611a7b57611a7a611a20565b5b50919050565b7f747820646f6573206e6f74206578697374000000000000000000000000000000600082015250565b6000611ab7601183611564565b9150611ac282611a81565b602082019050919050565b60006020820190508181036000830152611ae681611aaa565b9050919050565b7f4e487b7100000000000000000000000000000000000000000000000000000000600052603260045260246000fd5b7f7468697320747820616c72656164792065786563757465640000000000000000600082015250565b6000611b52601883611564565b9150611b5d82611b1c565b602082019050919050565b60006020820190508181036000830152611b8181611b45565b9050919050565b7f747820616c726561647920617070726f76656400000000000000000000000000600082015250565b6000611bbe601383611564565b9150611bc982611b88565b602082019050919050565b60006020820190508181036000830152611bed81611bb1565b9050919050565b6000611bff82611326565b9150611c0a83611326565b9250827fffffffffffffffffffffffffffffffffffffffffffffffffffffffffffffffff03821115611c3f57611c3e6119bd565b5b828201905092915050565b6000611c5582611326565b91507fffffffffffffffffffffffffffffffffffffffffffffffffffffffffffffffff821415611c8857611c876119bd565b5b600182019050919050565b7f617070726f76616c73203c207265717569726564000000000000000000000000600082015250565b6000611cc9601483611564565b9150611cd482611c93565b602082019050919050565b60006020820190508181036000830152611cf881611cbc565b9050919050565b600081905092915050565b60008190508160005260206000209050919050565b60008154611d2c81611a4f565b611d368186611cff565b94506001821660008114611d515760018114611d6257611d95565b60ff19831686528186019350611d95565b611d6b85611d0a565b60005b83811015611d8d57815481890152600182019150602081019050611d6e565b838801955050505b50505092915050565b6000611daa8284611d1f565b915081905092915050565b7f7478206661696c69640000000000000000000000000000000000000000000000600082015250565b6000611deb600983611564565b9150611df682611db5565b602082019050919050565b60006020820190508181036000830152611e1a81611dde565b905091905056fea26469706673582212208665473ee0364f35bd26d1d97d08713bc02b53bcddcb16fec8ccdb79dc969c8664736f6c63430008090033",
  "immutableReferences": {},
  "source": "// SPDX-License-Identifier: MIT\r\npragma solidity >=0.8.0;\r\n\r\n/**\r\n * MultiSigWallet\r\n */\r\ncontract MultiSigWallet {\r\n    // \r\n    struct Transaction {\r\n        // \r\n        address payable to;\r\n        // \r\n        uint256 value;\r\n        // \r\n        bytes data;\r\n        // \r\n        bool executed;\r\n    }\r\n\r\n    // \r\n    string public walletName;\r\n    // Owner\r\n    address[] public owners;\r\n    // \r\n    uint256 public required;\r\n    // \r\n    Transaction[] public transactions;\r\n\r\n    // ownermap\r\n    mapping(address => bool) public isOwner;\r\n    // IDonwermap\r\n    mapping(uint256 => mapping(address => bool)) public approved;\r\n\r\n    // \r\n    event Deposit(address indexed sender, uint256 amount, uint256 balance);\r\n    event Submit(uint256 indexed txId);\r\n    event Approve(address indexed owner, uint256 indexed txId);\r\n    event Revoke(address indexed owner, uint256 indexed txId);\r\n    event Execute(uint256 indexed txId);\r\n\r\n    // owner\r\n    modifier onlyOwner() {\r\n        require(isOwner[msg.sender], \"msg.sender must be owner address\");\r\n        _;\r\n    }\r\n\r\n    // ID\r\n    modifier txExists(uint256 _txId) {\r\n        require(_txId < transactions.length, \"tx does not exist\");\r\n        _;\r\n    }\r\n\r\n    // \r\n    modifier notApproved(uint256 _txId) {\r\n        require(!approved[_txId][msg.sender], \"tx already approved\");\r\n        _;\r\n    }\r\n\r\n    // ID\r\n    modifier notExecuted(uint256 _txId) {\r\n        require(!transactions[_txId].executed, \"this tx already executed\");\r\n        _;\r\n    }\r\n\r\n    /**\r\n     * \r\n     * @param _name \r\n     * @param _owners owner\r\n     * @param _required \r\n     */\r\n    constructor(\r\n        string memory _name,\r\n        address[] memory _owners,\r\n        uint256 _required\r\n    ) {\r\n        // \r\n        require(\r\n            _owners.length > 0,\r\n            \"number of owner addresses must be more than zero!!\"\r\n        );\r\n        require(\r\n            _required > 0 && _required <= _owners.length,\r\n            \"invalid required number of owners\"\r\n        );\r\n\r\n        // ownermap\r\n        for (uint256 i; i < _owners.length; i++) {\r\n            // owner\r\n            address owner = _owners[i];\r\n            // owner\r\n            require(owner != address(0), \"invalid address\");\r\n            // \r\n            require(!isOwner[owner], \"owner is not unique\");\r\n            // map\r\n            isOwner[owner] = true;\r\n            owners.push(owner);\r\n        }\r\n\r\n        // \r\n        walletName = _name;\r\n        // \r\n        required = _required;\r\n    }\r\n\r\n    /**\r\n     * \r\n     */\r\n    receive() external payable {\r\n        // \r\n        emit Deposit(msg.sender, msg.value, address(this).balance);\r\n    }\r\n\r\n    /**\r\n     * \r\n     * @param _to \r\n     * @param _value \r\n     * @param _data \r\n     */\r\n    function submit(\r\n        address payable _to,\r\n        uint256 _value,\r\n        bytes calldata _data\r\n    ) external onlyOwner {\r\n        // Transaction\r\n        transactions.push(\r\n            Transaction({to: _to, value: _value, data: _data, executed: false})\r\n        );\r\n        // \r\n        emit Submit(transactions.length - 1);\r\n    }\r\n\r\n    /**\r\n     * ID\r\n     * @param _txId ID\r\n     */\r\n    function approve(uint256 _txId)\r\n        external\r\n        onlyOwner\r\n        txExists(_txId)\r\n        notApproved(_txId)\r\n        notExecuted(_txId)\r\n    {\r\n        // \r\n        approved[_txId][msg.sender] = true;\r\n        // \r\n        emit Approve(msg.sender, _txId);\r\n    }\r\n\r\n    /**\r\n     * ID\r\n     * @param _txId ID\r\n     */\r\n    function _getApprovalCount(uint256 _txId)\r\n        public\r\n        view\r\n        returns (uint256 count)\r\n    {\r\n        // \r\n        for (uint256 i; i < owners.length; i++) {\r\n            // count\r\n            if (approved[_txId][owners[i]]) {\r\n                count += 1;\r\n            }\r\n        }\r\n    }\r\n\r\n    /**\r\n     * \r\n     * @param _txId ID\r\n     */\r\n    function execute(uint256 _txId)\r\n        external\r\n        payable\r\n        txExists(_txId)\r\n        notExecuted(_txId)\r\n    {\r\n        // \r\n        require(_getApprovalCount(_txId) >= required, \"approvals < required\");\r\n        // \r\n        Transaction storage transaction = transactions[_txId];\r\n     \r\n        // \r\n        (bool success, ) = transaction.to.call{value: transaction.value}(\r\n           transaction.data\r\n       );\r\n        // \r\n        require(success, \"tx failid\");\r\n        \r\n           // \r\n        transaction.executed = true;\r\n        // \r\n        emit Execute(_txId);\r\n    }\r\n\r\n    /**\r\n     * \r\n     * @param _txId ID\r\n     */\r\n    function revoke(uint256 _txId)\r\n        external\r\n        onlyOwner\r\n        txExists(_txId)\r\n        notExecuted(_txId)\r\n    {\r\n        // \r\n        require(approved[_txId][msg.sender] = true);\r\n        // \r\n        approved[_txId][msg.sender] = false;\r\n        // \r\n        emit Revoke(msg.sender, _txId);\r\n    }\r\n\r\n    /**\r\n     * \r\n     */\r\n    function getName() public view returns (string memory) {\r\n        return walletName;\r\n    }\r\n\r\n    /**\r\n     * \r\n     */\r\n    function getRequired() public view returns (uint256) {\r\n        return required;\r\n    }\r\n\r\n    /**\r\n     * owner\r\n     */\r\n    function getOwnersCount() public view returns (uint256) {\r\n        return owners.length;\r\n    }\r\n\r\n    /**\r\n     * \r\n     */\r\n    function getTxs() public view returns (Transaction[] memory) {\r\n        return transactions;\r\n    }\r\n}\r\n\r\n\r\n\r\n\r\n\r\n\r\n\r\n\r\n\r\n\r\n\r\n\r\n\r\n\r\n\r\n\r\n\r\n\r\n",
  "sourcePath": "/mnt/c/Users/papiarana/Downloads/IDQ Wallet/backend/contracts/Wallet/MultiSigWallet.sol",
  "compiler": {
    "name": "solc",
    "version": "0.8.9+commit.e5eed63a.Emscripten.clang"
  },
  "schemaVersion": "3.4.15",
  "updatedAt": "2023-09-10T14:47:23.120Z",
  "devdoc": {
    "kind": "dev",
    "methods": {
      "_getApprovalCount(uint256)": {
        "params": {
          "_txId": "ID"
        }
      },
      "approve(uint256)": {
        "params": {
          "_txId": "ID"
        }
      },
      "constructor": {
        "params": {
          "_name": "",
          "_owners": "owner",
          "_required": ""
        }
      },
      "execute(uint256)": {
        "params": {
          "_txId": "ID"
        }
      },
      "revoke(uint256)": {
        "params": {
          "_txId": "ID"
        }
      },
      "submit(address,uint256,bytes)": {
        "params": {
          "_data": "",
          "_to": "",
          "_value": ""
        }
      }
    },
    "version": 1
  },
  "userdoc": {
    "kind": "user",
    "methods": {
      "_getApprovalCount(uint256)": {
        "notice": "ID"
      },
      "approve(uint256)": {
        "notice": "ID"
      },
      "constructor": {
        "notice": ""
      },
      "execute(uint256)": {
        "notice": ""
      },
      "getName()": {
        "notice": ""
      },
      "getOwnersCount()": {
        "notice": "owner"
      },
      "getRequired()": {
        "notice": ""
      },
      "getTxs()": {
        "notice": ""
      },
      "revoke(uint256)": {
        "notice": ""
      },
      "submit(address,uint256,bytes)": {
        "notice": ""
      }
    },
    "notice": "MultiSigWallet",
    "version": 1
  }
}