{
  "contractName": "MultiSigWallet",
  "abi": [
    {
      "inputs": [
        {
          "internalType": "string",
          "name": "_name",
          "type": "string"
        },
        {
          "internalType": "address[]",
          "name": "_owners",
          "type": "address[]"
        },
        {
          "internalType": "uint256",
          "name": "_required",
          "type": "uint256"
        }
      ],
      "stateMutability": "nonpayable",
      "type": "constructor"
    },
    {
      "anonymous": false,
      "inputs": [
        {
          "indexed": true,
          "internalType": "address",
          "name": "owner",
          "type": "address"
        },
        {
          "indexed": true,
          "internalType": "uint256",
          "name": "txId",
          "type": "uint256"
        }
      ],
      "name": "Approve",
      "type": "event"
    },
    {
      "anonymous": false,
      "inputs": [
        {
          "indexed": true,
          "internalType": "address",
          "name": "sender",
          "type": "address"
        },
        {
          "indexed": false,
          "internalType": "uint256",
          "name": "amount",
          "type": "uint256"
        },
        {
          "indexed": false,
          "internalType": "uint256",
          "name": "balance",
          "type": "uint256"
        }
      ],
      "name": "Deposit",
      "type": "event"
    },
    {
      "anonymous": false,
      "inputs": [
        {
          "indexed": true,
          "internalType": "uint256",
          "name": "txId",
          "type": "uint256"
        }
      ],
      "name": "Execute",
      "type": "event"
    },
    {
      "anonymous": false,
      "inputs": [
        {
          "indexed": true,
          "internalType": "address",
          "name": "owner",
          "type": "address"
        },
        {
          "indexed": true,
          "internalType": "uint256",
          "name": "txId",
          "type": "uint256"
        }
      ],
      "name": "Revoke",
      "type": "event"
    },
    {
      "anonymous": false,
      "inputs": [
        {
          "indexed": true,
          "internalType": "uint256",
          "name": "txId",
          "type": "uint256"
        }
      ],
      "name": "Submit",
      "type": "event"
    },
    {
      "inputs": [
        {
          "internalType": "uint256",
          "name": "",
          "type": "uint256"
        },
        {
          "internalType": "address",
          "name": "",
          "type": "address"
        }
      ],
      "name": "approved",
      "outputs": [
        {
          "internalType": "bool",
          "name": "",
          "type": "bool"
        }
      ],
      "stateMutability": "view",
      "type": "function"
    },
    {
      "inputs": [
        {
          "internalType": "address",
          "name": "",
          "type": "address"
        }
      ],
      "name": "isOwner",
      "outputs": [
        {
          "internalType": "bool",
          "name": "",
          "type": "bool"
        }
      ],
      "stateMutability": "view",
      "type": "function"
    },
    {
      "inputs": [
        {
          "internalType": "uint256",
          "name": "",
          "type": "uint256"
        }
      ],
      "name": "owners",
      "outputs": [
        {
          "internalType": "address",
          "name": "",
          "type": "address"
        }
      ],
      "stateMutability": "view",
      "type": "function"
    },
    {
      "inputs": [],
      "name": "required",
      "outputs": [
        {
          "internalType": "uint256",
          "name": "",
          "type": "uint256"
        }
      ],
      "stateMutability": "view",
      "type": "function"
    },
    {
      "inputs": [
        {
          "internalType": "uint256",
          "name": "",
          "type": "uint256"
        }
      ],
      "name": "transactions",
      "outputs": [
        {
          "internalType": "address payable",
          "name": "to",
          "type": "address"
        },
        {
          "internalType": "uint256",
          "name": "value",
          "type": "uint256"
        },
        {
          "internalType": "bytes",
          "name": "data",
          "type": "bytes"
        },
        {
          "internalType": "bool",
          "name": "executed",
          "type": "bool"
        }
      ],
      "stateMutability": "view",
      "type": "function"
    },
    {
      "inputs": [],
      "name": "walletName",
      "outputs": [
        {
          "internalType": "string",
          "name": "",
          "type": "string"
        }
      ],
      "stateMutability": "view",
      "type": "function"
    },
    {
      "stateMutability": "payable",
      "type": "receive"
    },
    {
      "inputs": [
        {
          "internalType": "address payable",
          "name": "_to",
          "type": "address"
        },
        {
          "internalType": "uint256",
          "name": "_value",
          "type": "uint256"
        },
        {
          "internalType": "bytes",
          "name": "_data",
          "type": "bytes"
        }
      ],
      "name": "submit",
      "outputs": [],
      "stateMutability": "nonpayable",
      "type": "function"
    },
    {
      "inputs": [
        {
          "internalType": "uint256",
          "name": "_txId",
          "type": "uint256"
        }
      ],
      "name": "approve",
      "outputs": [],
      "stateMutability": "nonpayable",
      "type": "function"
    },
    {
      "inputs": [
        {
          "internalType": "uint256",
          "name": "_txId",
          "type": "uint256"
        }
      ],
      "name": "_getApprovalCount",
      "outputs": [
        {
          "internalType": "uint256",
          "name": "count",
          "type": "uint256"
        }
      ],
      "stateMutability": "view",
      "type": "function"
    },
    {
      "inputs": [
        {
          "internalType": "uint256",
          "name": "_txId",
          "type": "uint256"
        }
      ],
      "name": "execute",
      "outputs": [],
      "stateMutability": "payable",
      "type": "function"
    },
    {
      "inputs": [
        {
          "internalType": "uint256",
          "name": "_txId",
          "type": "uint256"
        }
      ],
      "name": "revoke",
      "outputs": [],
      "stateMutability": "nonpayable",
      "type": "function"
    },
    {
      "inputs": [],
      "name": "getName",
      "outputs": [
        {
          "internalType": "string",
          "name": "",
          "type": "string"
        }
      ],
      "stateMutability": "view",
      "type": "function"
    },
    {
      "inputs": [],
      "name": "getRequired",
      "outputs": [
        {
          "internalType": "uint256",
          "name": "",
          "type": "uint256"
        }
      ],
      "stateMutability": "view",
      "type": "function"
    },
    {
      "inputs": [],
      "name": "getOwnersCount",
      "outputs": [
        {
          "internalType": "uint256",
          "name": "",
          "type": "uint256"
        }
      ],
      "stateMutability": "view",
      "type": "function"
    },
    {
      "inputs": [],
      "name": "getOwners",
      "outputs": [
        {
          "internalType": "address[]",
          "name": "",
          "type": "address[]"
        }
      ],
      "stateMutability": "view",
      "type": "function"
    },
    {
      "inputs": [],
      "name": "getAsset",
      "outputs": [
        {
          "internalType": "uint256",
          "name": "",
          "type": "uint256"
        }
      ],
      "stateMutability": "view",
      "type": "function"
    },
    {
      "inputs": [],
      "name": "getTxs",
      "outputs": [
        {
          "components": [
            {
              "internalType": "address payable",
              "name": "to",
              "type": "address"
            },
            {
              "internalType": "uint256",
              "name": "value",
              "type": "uint256"
            },
            {
              "internalType": "bytes",
              "name": "data",
              "type": "bytes"
            },
            {
              "internalType": "bool",
              "name": "executed",
              "type": "bool"
            }
          ],
          "internalType": "struct MultiSigWallet.Transaction[]",
          "name": "",
          "type": "tuple[]"
        }
      ],
      "stateMutability": "view",
      "type": "function"
    }
  ],
  "bytecode": "0x60806040523480156200001157600080fd5b5060405162002ae138038062002ae18339818101604052810190620000379190620006c8565b60008251116200007e576040517f08c379a00000000000000000000000000000000000000000000000000000000081526004016200007590620007e9565b60405180910390fd5b60008111801562000090575081518111155b620000d2576040517f08c379a0000000000000000000000000000000000000000000000000000000008152600401620000c99062000881565b60405180910390fd5b60005b8251811015620002d6576000838281518110620000f757620000f6620008a3565b5b60200260200101519050600073ffffffffffffffffffffffffffffffffffffffff168173ffffffffffffffffffffffffffffffffffffffff16141562000174576040517f08c379a00000000000000000000000000000000000000000000000000000000081526004016200016b9062000922565b60405180910390fd5b600460008273ffffffffffffffffffffffffffffffffffffffff1673ffffffffffffffffffffffffffffffffffffffff16815260200190815260200160002060009054906101000a900460ff161562000204576040517f08c379a0000000000000000000000000000000000000000000000000000000008152600401620001fb9062000994565b60405180910390fd5b6001600460008373ffffffffffffffffffffffffffffffffffffffff1673ffffffffffffffffffffffffffffffffffffffff16815260200190815260200160002060006101000a81548160ff0219169083151502179055506001819080600181540180825580915050600190039060005260206000200160009091909190916101000a81548173ffffffffffffffffffffffffffffffffffffffff021916908373ffffffffffffffffffffffffffffffffffffffff160217905550508080620002cd90620009e5565b915050620000d5565b508260009080519060200190620002ef92919062000300565b508060028190555050505062000a98565b8280546200030e9062000a62565b90600052602060002090601f0160209004810192826200033257600085556200037e565b82601f106200034d57805160ff19168380011785556200037e565b828001600101855582156200037e579182015b828111156200037d57825182559160200191906001019062000360565b5b5090506200038d919062000391565b5090565b5b80821115620003ac57600081600090555060010162000392565b5090565b6000604051905090565b600080fd5b600080fd5b600080fd5b600080fd5b6000601f19601f8301169050919050565b7f4e487b7100000000000000000000000000000000000000000000000000000000600052604160045260246000fd5b6200041982620003ce565b810181811067ffffffffffffffff821117156200043b576200043a620003df565b5b80604052505050565b600062000450620003b0565b90506200045e82826200040e565b919050565b600067ffffffffffffffff821115620004815762000480620003df565b5b6200048c82620003ce565b9050602081019050919050565b60005b83811015620004b95780820151818401526020810190506200049c565b83811115620004c9576000848401525b50505050565b6000620004e6620004e08462000463565b62000444565b905082815260208101848484011115620005055762000504620003c9565b5b6200051284828562000499565b509392505050565b600082601f830112620005325762000531620003c4565b5b815162000544848260208601620004cf565b91505092915050565b600067ffffffffffffffff8211156200056b576200056a620003df565b5b602082029050602081019050919050565b600080fd5b600073ffffffffffffffffffffffffffffffffffffffff82169050919050565b6000620005ae8262000581565b9050919050565b620005c081620005a1565b8114620005cc57600080fd5b50565b600081519050620005e081620005b5565b92915050565b6000620005fd620005f7846200054d565b62000444565b905080838252602082019050602084028301858111156200062357620006226200057c565b5b835b818110156200065057806200063b8882620005cf565b84526020840193505060208101905062000625565b5050509392505050565b600082601f830112620006725762000671620003c4565b5b815162000684848260208601620005e6565b91505092915050565b6000819050919050565b620006a2816200068d565b8114620006ae57600080fd5b50565b600081519050620006c28162000697565b92915050565b600080600060608486031215620006e457620006e3620003ba565b5b600084015167ffffffffffffffff811115620007055762000704620003bf565b5b62000713868287016200051a565b935050602084015167ffffffffffffffff811115620007375762000736620003bf565b5b62000745868287016200065a565b92505060406200075886828701620006b1565b9150509250925092565b600082825260208201905092915050565b7f6e756d626572206f66206f776e657220616464726573736573206d757374206260008201527f65206d6f7265207468616e207a65726f21210000000000000000000000000000602082015250565b6000620007d160328362000762565b9150620007de8262000773565b604082019050919050565b600060208201905081810360008301526200080481620007c2565b9050919050565b7f696e76616c6964207265717569726564206e756d626572206f66206f776e657260008201527f7300000000000000000000000000000000000000000000000000000000000000602082015250565b60006200086960218362000762565b915062000876826200080b565b604082019050919050565b600060208201905081810360008301526200089c816200085a565b9050919050565b7f4e487b7100000000000000000000000000000000000000000000000000000000600052603260045260246000fd5b7f696e76616c696420616464726573730000000000000000000000000000000000600082015250565b60006200090a600f8362000762565b91506200091782620008d2565b602082019050919050565b600060208201905081810360008301526200093d81620008fb565b9050919050565b7f6f776e6572206973206e6f7420756e6971756500000000000000000000000000600082015250565b60006200097c60138362000762565b9150620009898262000944565b602082019050919050565b60006020820190508181036000830152620009af816200096d565b9050919050565b7f4e487b7100000000000000000000000000000000000000000000000000000000600052601160045260246000fd5b6000620009f2826200068d565b91507fffffffffffffffffffffffffffffffffffffffffffffffffffffffffffffffff82141562000a285762000a27620009b6565b5b600182019050919050565b7f4e487b7100000000000000000000000000000000000000000000000000000000600052602260045260246000fd5b6000600282049050600182168062000a7b57607f821691505b6020821081141562000a925762000a9162000a33565b5b50919050565b6120398062000aa86000396000f3fe6080604052600436106101025760003560e01c80638253951a11610095578063cf8d8ca011610064578063cf8d8ca0146103a7578063dc8452cd146103d2578063e0cedd9c146103fd578063eda8b7cd14610428578063fe0d94c11461046557610159565b80638253951a146102d65780639ace38c214610313578063a0e67e2b14610353578063b759f9541461037e57610159565b806320c5429b116100d157806320c5429b1461021a5780632f54bf6e146102435780635c222bad1461028057806373ff81cc146102ab57610159565b8063025e7c271461015e5780631398a5f61461019b57806314de327f146101c657806317d7de7c146101ef57610159565b36610159573373ffffffffffffffffffffffffffffffffffffffff167f90890809c654f11d6e72a28fa60149770a0d11ec6c92319d6ceb2bb0a4ea1a15344760405161014f929190611441565b60405180910390a2005b600080fd5b34801561016a57600080fd5b50610185600480360381019061018091906114a0565b610481565b604051610192919061150e565b60405180910390f35b3480156101a757600080fd5b506101b06104c0565b6040516101bd9190611529565b60405180910390f35b3480156101d257600080fd5b506101ed60048036038101906101e891906115e7565b6104ca565b005b3480156101fb57600080fd5b506102046106d3565b60405161021191906116f4565b60405180910390f35b34801561022657600080fd5b50610241600480360381019061023c91906114a0565b610765565b005b34801561024f57600080fd5b5061026a60048036038101906102659190611742565b6109d0565b604051610277919061178a565b60405180910390f35b34801561028c57600080fd5b506102956109f0565b6040516102a29190611529565b60405180910390f35b3480156102b757600080fd5b506102c06109f8565b6040516102cd9190611529565b60405180910390f35b3480156102e257600080fd5b506102fd60048036038101906102f891906117a5565b610a05565b60405161030a919061178a565b60405180910390f35b34801561031f57600080fd5b5061033a600480360381019061033591906114a0565b610a34565b60405161034a9493929190611849565b60405180910390f35b34801561035f57600080fd5b50610368610b29565b6040516103759190611953565b60405180910390f35b34801561038a57600080fd5b506103a560048036038101906103a091906114a0565b610bb7565b005b3480156103b357600080fd5b506103bc610e51565b6040516103c991906116f4565b60405180910390f35b3480156103de57600080fd5b506103e7610edf565b6040516103f49190611529565b60405180910390f35b34801561040957600080fd5b50610412610ee5565b60405161041f9190611b11565b60405180910390f35b34801561043457600080fd5b5061044f600480360381019061044a91906114a0565b611051565b60405161045c9190611529565b60405180910390f35b61047f600480360381019061047a91906114a0565b61112c565b005b6001818154811061049157600080fd5b906000526020600020016000915054906101000a900473ffffffffffffffffffffffffffffffffffffffff1681565b6000600254905090565b600460003373ffffffffffffffffffffffffffffffffffffffff1673ffffffffffffffffffffffffffffffffffffffff16815260200190815260200160002060009054906101000a900460ff16610556576040517f08c379a000000000000000000000000000000000000000000000000000000000815260040161054d90611b7f565b60405180910390fd5b600360405180608001604052808673ffffffffffffffffffffffffffffffffffffffff16815260200185815260200184848080601f016020809104026020016040519081016040528093929190818152602001838380828437600081840152601f19601f82011690508083019250505050505050815260200160001515815250908060018154018082558091505060019003906000526020600020906004020160009091909190915060008201518160000160006101000a81548173ffffffffffffffffffffffffffffffffffffffff021916908373ffffffffffffffffffffffffffffffffffffffff16021790555060208201518160010155604082015181600201908051906020019061066c929190611385565b5060608201518160030160006101000a81548160ff021916908315150217905550505060016003805490506106a19190611bce565b7f08324b3d745b914e3abd4ffbfead91e3b78391a98c173202129215ab933adfbe60405160405180910390a250505050565b6060600080546106e290611c31565b80601f016020809104026020016040519081016040528092919081815260200182805461070e90611c31565b801561075b5780601f106107305761010080835404028352916020019161075b565b820191906000526020600020905b81548152906001019060200180831161073e57829003601f168201915b5050505050905090565b600460003373ffffffffffffffffffffffffffffffffffffffff1673ffffffffffffffffffffffffffffffffffffffff16815260200190815260200160002060009054906101000a900460ff166107f1576040517f08c379a00000000000000000000000000000000000000000000000000000000081526004016107e890611b7f565b60405180910390fd5b806003805490508110610839576040517f08c379a000000000000000000000000000000000000000000000000000000000815260040161083090611caf565b60405180910390fd5b816003818154811061084e5761084d611ccf565b5b906000526020600020906004020160030160009054906101000a900460ff16156108ad576040517f08c379a00000000000000000000000000000000000000000000000000000000081526004016108a490611d4a565b60405180910390fd5b60016005600085815260200190815260200160002060003373ffffffffffffffffffffffffffffffffffffffff1673ffffffffffffffffffffffffffffffffffffffff16815260200190815260200160002060006101000a81548160ff021916908315150217905561091e57600080fd5b60006005600085815260200190815260200160002060003373ffffffffffffffffffffffffffffffffffffffff1673ffffffffffffffffffffffffffffffffffffffff16815260200190815260200160002060006101000a81548160ff021916908315150217905550823373ffffffffffffffffffffffffffffffffffffffff167fec9ab91322523c899ede7830ec9bfc992b5981cdcc27b91162fb23de5791117b60405160405180910390a3505050565b60046020528060005260406000206000915054906101000a900460ff1681565b600047905090565b6000600180549050905090565b60056020528160005260406000206020528060005260406000206000915091509054906101000a900460ff1681565b60038181548110610a4457600080fd5b90600052602060002090600402016000915090508060000160009054906101000a900473ffffffffffffffffffffffffffffffffffffffff1690806001015490806002018054610a9390611c31565b80601f0160208091040260200160405190810160405280929190818152602001828054610abf90611c31565b8015610b0c5780601f10610ae157610100808354040283529160200191610b0c565b820191906000526020600020905b815481529060010190602001808311610aef57829003601f168201915b5050505050908060030160009054906101000a900460ff16905084565b60606001805480602002602001604051908101604052809291908181526020018280548015610bad57602002820191906000526020600020905b8160009054906101000a900473ffffffffffffffffffffffffffffffffffffffff1673ffffffffffffffffffffffffffffffffffffffff1681526020019060010190808311610b63575b5050505050905090565b600460003373ffffffffffffffffffffffffffffffffffffffff1673ffffffffffffffffffffffffffffffffffffffff16815260200190815260200160002060009054906101000a900460ff16610c43576040517f08c379a0000000000000000000000000000000000000000000000000000000008152600401610c3a90611b7f565b60405180910390fd5b806003805490508110610c8b576040517f08c379a0000000000000000000000000000000000000000000000000000000008152600401610c8290611caf565b60405180910390fd5b816005600082815260200190815260200160002060003373ffffffffffffffffffffffffffffffffffffffff1673ffffffffffffffffffffffffffffffffffffffff16815260200190815260200160002060009054906101000a900460ff1615610d2a576040517f08c379a0000000000000000000000000000000000000000000000000000000008152600401610d2190611db6565b60405180910390fd5b8260038181548110610d3f57610d3e611ccf565b5b906000526020600020906004020160030160009054906101000a900460ff1615610d9e576040517f08c379a0000000000000000000000000000000000000000000000000000000008152600401610d9590611d4a565b60405180910390fd5b60016005600086815260200190815260200160002060003373ffffffffffffffffffffffffffffffffffffffff1673ffffffffffffffffffffffffffffffffffffffff16815260200190815260200160002060006101000a81548160ff021916908315150217905550833373ffffffffffffffffffffffffffffffffffffffff167f90ec57f18fa7b15c6b8d5e4d1deb90796c74b2ff23d4d0cecad0cb42a96b312860405160405180910390a350505050565b60008054610e5e90611c31565b80601f0160208091040260200160405190810160405280929190818152602001828054610e8a90611c31565b8015610ed75780601f10610eac57610100808354040283529160200191610ed7565b820191906000526020600020905b815481529060010190602001808311610eba57829003601f168201915b505050505081565b60025481565b60606003805480602002602001604051908101604052809291908181526020016000905b8282101561104857838290600052602060002090600402016040518060800160405290816000820160009054906101000a900473ffffffffffffffffffffffffffffffffffffffff1673ffffffffffffffffffffffffffffffffffffffff1673ffffffffffffffffffffffffffffffffffffffff16815260200160018201548152602001600282018054610f9c90611c31565b80601f0160208091040260200160405190810160405280929190818152602001828054610fc890611c31565b80156110155780601f10610fea57610100808354040283529160200191611015565b820191906000526020600020905b815481529060010190602001808311610ff857829003601f168201915b505050505081526020016003820160009054906101000a900460ff16151515158152505081526020019060010190610f09565b50505050905090565b6000805b600180549050811015611126576005600084815260200190815260200160002060006001838154811061108b5761108a611ccf565b5b9060005260206000200160009054906101000a900473ffffffffffffffffffffffffffffffffffffffff1673ffffffffffffffffffffffffffffffffffffffff1673ffffffffffffffffffffffffffffffffffffffff16815260200190815260200160002060009054906101000a900460ff1615611113576001826111109190611dd6565b91505b808061111e90611e2c565b915050611055565b50919050565b806003805490508110611174576040517f08c379a000000000000000000000000000000000000000000000000000000000815260040161116b90611caf565b60405180910390fd5b816003818154811061118957611188611ccf565b5b906000526020600020906004020160030160009054906101000a900460ff16156111e8576040517f08c379a00000000000000000000000000000000000000000000000000000000081526004016111df90611d4a565b60405180910390fd5b6002546111f484611051565b1015611235576040517f08c379a000000000000000000000000000000000000000000000000000000000815260040161122c90611ec1565b60405180910390fd5b60006003848154811061124b5761124a611ccf565b5b9060005260206000209060040201905060008160000160009054906101000a900473ffffffffffffffffffffffffffffffffffffffff1673ffffffffffffffffffffffffffffffffffffffff168260010154836002016040516112ae9190611f80565b60006040518083038185875af1925050503d80600081146112eb576040519150601f19603f3d011682016040523d82523d6000602084013e6112f0565b606091505b5050905080611334576040517f08c379a000000000000000000000000000000000000000000000000000000000815260040161132b90611fe3565b60405180910390fd5b60018260030160006101000a81548160ff021916908315150217905550847fddb556f1d2c1ec821e910b019d3685b229db152a0ecd517ca7e24b8bd713928960405160405180910390a25050505050565b82805461139190611c31565b90600052602060002090601f0160209004810192826113b357600085556113fa565b82601f106113cc57805160ff19168380011785556113fa565b828001600101855582156113fa579182015b828111156113f95782518255916020019190600101906113de565b5b509050611407919061140b565b5090565b5b8082111561142457600081600090555060010161140c565b5090565b6000819050919050565b61143b81611428565b82525050565b60006040820190506114566000830185611432565b6114636020830184611432565b9392505050565b600080fd5b600080fd5b61147d81611428565b811461148857600080fd5b50565b60008135905061149a81611474565b92915050565b6000602082840312156114b6576114b561146a565b5b60006114c48482850161148b565b91505092915050565b600073ffffffffffffffffffffffffffffffffffffffff82169050919050565b60006114f8826114cd565b9050919050565b611508816114ed565b82525050565b600060208201905061152360008301846114ff565b92915050565b600060208201905061153e6000830184611432565b92915050565b600061154f826114cd565b9050919050565b61155f81611544565b811461156a57600080fd5b50565b60008135905061157c81611556565b92915050565b600080fd5b600080fd5b600080fd5b60008083601f8401126115a7576115a6611582565b5b8235905067ffffffffffffffff8111156115c4576115c3611587565b5b6020830191508360018202830111156115e0576115df61158c565b5b9250929050565b600080600080606085870312156116015761160061146a565b5b600061160f8782880161156d565b94505060206116208782880161148b565b935050604085013567ffffffffffffffff8111156116415761164061146f565b5b61164d87828801611591565b925092505092959194509250565b600081519050919050565b600082825260208201905092915050565b60005b8381101561169557808201518184015260208101905061167a565b838111156116a4576000848401525b50505050565b6000601f19601f8301169050919050565b60006116c68261165b565b6116d08185611666565b93506116e0818560208601611677565b6116e9816116aa565b840191505092915050565b6000602082019050818103600083015261170e81846116bb565b905092915050565b61171f816114ed565b811461172a57600080fd5b50565b60008135905061173c81611716565b92915050565b6000602082840312156117585761175761146a565b5b60006117668482850161172d565b91505092915050565b60008115159050919050565b6117848161176f565b82525050565b600060208201905061179f600083018461177b565b92915050565b600080604083850312156117bc576117bb61146a565b5b60006117ca8582860161148b565b92505060206117db8582860161172d565b9150509250929050565b6117ee81611544565b82525050565b600081519050919050565b600082825260208201905092915050565b600061181b826117f4565b61182581856117ff565b9350611835818560208601611677565b61183e816116aa565b840191505092915050565b600060808201905061185e60008301876117e5565b61186b6020830186611432565b818103604083015261187d8185611810565b905061188c606083018461177b565b95945050505050565b600081519050919050565b600082825260208201905092915050565b6000819050602082019050919050565b6118ca816114ed565b82525050565b60006118dc83836118c1565b60208301905092915050565b6000602082019050919050565b600061190082611895565b61190a81856118a0565b9350611915836118b1565b8060005b8381101561194657815161192d88826118d0565b9750611938836118e8565b925050600181019050611919565b5085935050505092915050565b6000602082019050818103600083015261196d81846118f5565b905092915050565b600081519050919050565b600082825260208201905092915050565b6000819050602082019050919050565b6119aa81611544565b82525050565b6119b981611428565b82525050565b600082825260208201905092915050565b60006119db826117f4565b6119e581856119bf565b93506119f5818560208601611677565b6119fe816116aa565b840191505092915050565b611a128161176f565b82525050565b6000608083016000830151611a3060008601826119a1565b506020830151611a4360208601826119b0565b5060408301518482036040860152611a5b82826119d0565b9150506060830151611a706060860182611a09565b508091505092915050565b6000611a878383611a18565b905092915050565b6000602082019050919050565b6000611aa782611975565b611ab18185611980565b935083602082028501611ac385611991565b8060005b85811015611aff5784840389528151611ae08582611a7b565b9450611aeb83611a8f565b925060208a01995050600181019050611ac7565b50829750879550505050505092915050565b60006020820190508181036000830152611b2b8184611a9c565b905092915050565b7f6d73672e73656e646572206d757374206265206f776e65722061646472657373600082015250565b6000611b69602083611666565b9150611b7482611b33565b602082019050919050565b60006020820190508181036000830152611b9881611b5c565b9050919050565b7f4e487b7100000000000000000000000000000000000000000000000000000000600052601160045260246000fd5b6000611bd982611428565b9150611be483611428565b925082821015611bf757611bf6611b9f565b5b828203905092915050565b7f4e487b7100000000000000000000000000000000000000000000000000000000600052602260045260246000fd5b60006002820490506001821680611c4957607f821691505b60208210811415611c5d57611c5c611c02565b5b50919050565b7f747820646f6573206e6f74206578697374000000000000000000000000000000600082015250565b6000611c99601183611666565b9150611ca482611c63565b602082019050919050565b60006020820190508181036000830152611cc881611c8c565b9050919050565b7f4e487b7100000000000000000000000000000000000000000000000000000000600052603260045260246000fd5b7f7468697320747820616c72656164792065786563757465640000000000000000600082015250565b6000611d34601883611666565b9150611d3f82611cfe565b602082019050919050565b60006020820190508181036000830152611d6381611d27565b9050919050565b7f747820616c726561647920617070726f76656400000000000000000000000000600082015250565b6000611da0601383611666565b9150611dab82611d6a565b602082019050919050565b60006020820190508181036000830152611dcf81611d93565b9050919050565b6000611de182611428565b9150611dec83611428565b9250827fffffffffffffffffffffffffffffffffffffffffffffffffffffffffffffffff03821115611e2157611e20611b9f565b5b828201905092915050565b6000611e3782611428565b91507fffffffffffffffffffffffffffffffffffffffffffffffffffffffffffffffff821415611e6a57611e69611b9f565b5b600182019050919050565b7f617070726f76616c73203c207265717569726564000000000000000000000000600082015250565b6000611eab601483611666565b9150611eb682611e75565b602082019050919050565b60006020820190508181036000830152611eda81611e9e565b9050919050565b600081905092915050565b60008190508160005260206000209050919050565b60008154611f0e81611c31565b611f188186611ee1565b94506001821660008114611f335760018114611f4457611f77565b60ff19831686528186019350611f77565b611f4d85611eec565b60005b83811015611f6f57815481890152600182019150602081019050611f50565b838801955050505b50505092915050565b6000611f8c8284611f01565b915081905092915050565b7f7478206661696c69640000000000000000000000000000000000000000000000600082015250565b6000611fcd600983611666565b9150611fd882611f97565b602082019050919050565b60006020820190508181036000830152611ffc81611fc0565b905091905056fea26469706673582212200e29ab69640340e3a957fdbcb51de86d3daceee26b47878e297afa65083fdc0564736f6c63430008090033",
  "immutableReferences": {},
  "source": "// SPDX-License-Identifier: MIT\r\npragma solidity >=0.8.0;\r\n\r\n/**\r\n * MultiSigWallet\r\n */\r\ncontract MultiSigWallet {\r\n    // \r\n    struct Transaction {\r\n        // \r\n        address payable to;\r\n        // \r\n        uint256 value;\r\n        // \r\n        bytes data;\r\n        // \r\n        bool executed;\r\n    }\r\n\r\n    // \r\n    string public walletName;\r\n    // Owner\r\n    address[] public owners;\r\n    // \r\n    uint256 public required;\r\n    // \r\n    Transaction[] public transactions;\r\n\r\n    // ownermap\r\n    mapping(address => bool) public isOwner;\r\n    // IDonwermap\r\n    mapping(uint256 => mapping(address => bool)) public approved;\r\n\r\n    // \r\n    event Deposit(address indexed sender, uint256 amount, uint256 balance);\r\n    event Submit(uint256 indexed txId);\r\n    event Approve(address indexed owner, uint256 indexed txId);\r\n    event Revoke(address indexed owner, uint256 indexed txId);\r\n    event Execute(uint256 indexed txId);\r\n\r\n    // owner\r\n    modifier onlyOwner() {\r\n        require(isOwner[msg.sender], \"msg.sender must be owner address\");\r\n        _;\r\n    }\r\n\r\n    // ID\r\n    modifier txExists(uint256 _txId) {\r\n        require(_txId < transactions.length, \"tx does not exist\");\r\n        _;\r\n    }\r\n\r\n    // \r\n    modifier notApproved(uint256 _txId) {\r\n        require(!approved[_txId][msg.sender], \"tx already approved\");\r\n        _;\r\n    }\r\n\r\n    // ID\r\n    modifier notExecuted(uint256 _txId) {\r\n        require(!transactions[_txId].executed, \"this tx already executed\");\r\n        _;\r\n    }\r\n\r\n    /**\r\n     * \r\n     * @param _name \r\n     * @param _owners owner\r\n     * @param _required \r\n     */\r\n    constructor(\r\n        string memory _name,\r\n        address[] memory _owners,\r\n        uint256 _required\r\n    ) {\r\n        // \r\n        require(\r\n            _owners.length > 0,\r\n            \"number of owner addresses must be more than zero!!\"\r\n        );\r\n        require(\r\n            _required > 0 && _required <= _owners.length,\r\n            \"invalid required number of owners\"\r\n        );\r\n\r\n        // ownermap\r\n        for (uint256 i; i < _owners.length; i++) {\r\n            // owner\r\n            address owner = _owners[i];\r\n            // owner\r\n            require(owner != address(0), \"invalid address\");\r\n            // \r\n            require(!isOwner[owner], \"owner is not unique\");\r\n            // map\r\n            isOwner[owner] = true;\r\n            owners.push(owner);\r\n        }\r\n\r\n        // \r\n        walletName = _name;\r\n        // \r\n        required = _required;\r\n    }\r\n\r\n    /**\r\n     * \r\n     */\r\n    receive() external payable {\r\n        // \r\n        emit Deposit(msg.sender, msg.value, address(this).balance);\r\n    }\r\n\r\n    /**\r\n     * \r\n     * @param _to \r\n     * @param _value \r\n     * @param _data \r\n     */\r\n    function submit(\r\n        address payable _to,\r\n        uint256 _value,\r\n        bytes calldata _data\r\n    ) external onlyOwner {\r\n        // Transaction\r\n        transactions.push(\r\n            Transaction({to: _to, value: _value, data: _data, executed: false})\r\n        );\r\n        // \r\n        emit Submit(transactions.length - 1);\r\n    }\r\n\r\n    /**\r\n     * ID\r\n     * @param _txId ID\r\n     */\r\n    function approve(uint256 _txId)\r\n        external\r\n        onlyOwner\r\n        txExists(_txId)\r\n        notApproved(_txId)\r\n        notExecuted(_txId)\r\n    {\r\n        // \r\n        approved[_txId][msg.sender] = true;\r\n        // \r\n        emit Approve(msg.sender, _txId);\r\n    }\r\n\r\n    /**\r\n     * ID\r\n     * @param _txId ID\r\n     */\r\n    function _getApprovalCount(uint256 _txId)\r\n        public\r\n        view\r\n        returns (uint256 count)\r\n    {\r\n        // \r\n        for (uint256 i; i < owners.length; i++) {\r\n            // count\r\n            if (approved[_txId][owners[i]]) {\r\n                count += 1;\r\n            }\r\n        }\r\n    }\r\n\r\n    /**\r\n     * \r\n     * @param _txId ID\r\n     */\r\n    function execute(uint256 _txId)\r\n        external\r\n        payable\r\n        txExists(_txId)\r\n        notExecuted(_txId)\r\n    {\r\n        // \r\n        require(_getApprovalCount(_txId) >= required, \"approvals < required\");\r\n        // \r\n        Transaction storage transaction = transactions[_txId];\r\n     \r\n        // \r\n        (bool success, ) = transaction.to.call{value: transaction.value}(\r\n           transaction.data\r\n       );\r\n        // \r\n        require(success, \"tx failid\");\r\n        \r\n           // \r\n        transaction.executed = true;\r\n        // \r\n        emit Execute(_txId);\r\n    }\r\n\r\n    /**\r\n     * \r\n     * @param _txId ID\r\n     */\r\n    function revoke(uint256 _txId)\r\n        external\r\n        onlyOwner\r\n        txExists(_txId)\r\n        notExecuted(_txId)\r\n    {\r\n        // \r\n        require(approved[_txId][msg.sender] = true);\r\n        // \r\n        approved[_txId][msg.sender] = false;\r\n        // \r\n        emit Revoke(msg.sender, _txId);\r\n    }\r\n\r\n    /**\r\n     * \r\n     */\r\n    function getName() public view returns (string memory) {\r\n        return walletName;\r\n    }\r\n\r\n    /**\r\n     * \r\n     */\r\n    function getRequired() public view returns (uint256) {\r\n        return required;\r\n    }\r\n\r\n    /**\r\n     * owner\r\n     */\r\n    function getOwnersCount() public view returns (uint256) {\r\n        return owners.length;\r\n    }\r\n\r\n    //returns all owners addresss\r\n    function getOwners() public view returns (address[] memory) {\r\n        return owners;\r\n    }\r\n\r\n    //return balance of the wallet\r\n    function getAsset() public view returns (uint256) {\r\n        return address(this).balance;\r\n    }\r\n\r\n    /**\r\n     * \r\n     */\r\n    function getTxs() public view returns (Transaction[] memory) {\r\n        return transactions;\r\n    }\r\n}\r\n\r\n\r\n\r\n\r\n\r\n\r\n\r\n\r\n\r\n\r\n\r\n\r\n\r\n\r\n\r\n\r\n\r\n\r\n",
  "sourcePath": "/mnt/c/Users/papiarana/Downloads/IDQ Wallet/backend/contracts/Wallet/MultiSigWallet.sol",
  "compiler": {
    "name": "solc",
    "version": "0.8.9+commit.e5eed63a.Emscripten.clang"
  },
  "schemaVersion": "3.4.15",
  "updatedAt": "2023-09-13T13:35:12.577Z",
  "devdoc": {
    "kind": "dev",
    "methods": {
      "_getApprovalCount(uint256)": {
        "params": {
          "_txId": "ID"
        }
      },
      "approve(uint256)": {
        "params": {
          "_txId": "ID"
        }
      },
      "constructor": {
        "params": {
          "_name": "",
          "_owners": "owner",
          "_required": ""
        }
      },
      "execute(uint256)": {
        "params": {
          "_txId": "ID"
        }
      },
      "revoke(uint256)": {
        "params": {
          "_txId": "ID"
        }
      },
      "submit(address,uint256,bytes)": {
        "params": {
          "_data": "",
          "_to": "",
          "_value": ""
        }
      }
    },
    "version": 1
  },
  "userdoc": {
    "kind": "user",
    "methods": {
      "_getApprovalCount(uint256)": {
        "notice": "ID"
      },
      "approve(uint256)": {
        "notice": "ID"
      },
      "constructor": {
        "notice": ""
      },
      "execute(uint256)": {
        "notice": ""
      },
      "getName()": {
        "notice": ""
      },
      "getOwnersCount()": {
        "notice": "owner"
      },
      "getRequired()": {
        "notice": ""
      },
      "getTxs()": {
        "notice": ""
      },
      "revoke(uint256)": {
        "notice": ""
      },
      "submit(address,uint256,bytes)": {
        "notice": ""
      }
    },
    "notice": "MultiSigWallet",
    "version": 1
  }
}