{
  "contractName": "MyToken",
  "abi": [
    {
      "inputs": [
        {
          "internalType": "string",
          "name": "_name",
          "type": "string"
        },
        {
          "internalType": "string",
          "name": "_symbol",
          "type": "string"
        }
      ],
      "stateMutability": "nonpayable",
      "type": "constructor"
    },
    {
      "inputs": [],
      "name": "InvalidShortString",
      "type": "error"
    },
    {
      "inputs": [
        {
          "internalType": "string",
          "name": "str",
          "type": "string"
        }
      ],
      "name": "StringTooLong",
      "type": "error"
    },
    {
      "anonymous": false,
      "inputs": [
        {
          "indexed": true,
          "internalType": "address",
          "name": "owner",
          "type": "address"
        },
        {
          "indexed": true,
          "internalType": "address",
          "name": "spender",
          "type": "address"
        },
        {
          "indexed": false,
          "internalType": "uint256",
          "name": "value",
          "type": "uint256"
        }
      ],
      "name": "Approval",
      "type": "event"
    },
    {
      "anonymous": false,
      "inputs": [
        {
          "indexed": true,
          "internalType": "address",
          "name": "delegator",
          "type": "address"
        },
        {
          "indexed": true,
          "internalType": "address",
          "name": "fromDelegate",
          "type": "address"
        },
        {
          "indexed": true,
          "internalType": "address",
          "name": "toDelegate",
          "type": "address"
        }
      ],
      "name": "DelegateChanged",
      "type": "event"
    },
    {
      "anonymous": false,
      "inputs": [
        {
          "indexed": true,
          "internalType": "address",
          "name": "delegate",
          "type": "address"
        },
        {
          "indexed": false,
          "internalType": "uint256",
          "name": "previousBalance",
          "type": "uint256"
        },
        {
          "indexed": false,
          "internalType": "uint256",
          "name": "newBalance",
          "type": "uint256"
        }
      ],
      "name": "DelegateVotesChanged",
      "type": "event"
    },
    {
      "anonymous": false,
      "inputs": [],
      "name": "EIP712DomainChanged",
      "type": "event"
    },
    {
      "anonymous": false,
      "inputs": [
        {
          "indexed": true,
          "internalType": "address",
          "name": "previousOwner",
          "type": "address"
        },
        {
          "indexed": true,
          "internalType": "address",
          "name": "newOwner",
          "type": "address"
        }
      ],
      "name": "OwnershipTransferred",
      "type": "event"
    },
    {
      "anonymous": false,
      "inputs": [
        {
          "indexed": false,
          "internalType": "address",
          "name": "account",
          "type": "address"
        }
      ],
      "name": "Paused",
      "type": "event"
    },
    {
      "anonymous": false,
      "inputs": [
        {
          "indexed": true,
          "internalType": "address",
          "name": "from",
          "type": "address"
        },
        {
          "indexed": true,
          "internalType": "address",
          "name": "to",
          "type": "address"
        },
        {
          "indexed": false,
          "internalType": "uint256",
          "name": "value",
          "type": "uint256"
        }
      ],
      "name": "Transfer",
      "type": "event"
    },
    {
      "anonymous": false,
      "inputs": [
        {
          "indexed": false,
          "internalType": "address",
          "name": "account",
          "type": "address"
        }
      ],
      "name": "Unpaused",
      "type": "event"
    },
    {
      "inputs": [],
      "name": "CLOCK_MODE",
      "outputs": [
        {
          "internalType": "string",
          "name": "",
          "type": "string"
        }
      ],
      "stateMutability": "view",
      "type": "function",
      "constant": true
    },
    {
      "inputs": [],
      "name": "DOMAIN_SEPARATOR",
      "outputs": [
        {
          "internalType": "bytes32",
          "name": "",
          "type": "bytes32"
        }
      ],
      "stateMutability": "view",
      "type": "function",
      "constant": true
    },
    {
      "inputs": [
        {
          "internalType": "address",
          "name": "owner",
          "type": "address"
        },
        {
          "internalType": "address",
          "name": "spender",
          "type": "address"
        }
      ],
      "name": "allowance",
      "outputs": [
        {
          "internalType": "uint256",
          "name": "",
          "type": "uint256"
        }
      ],
      "stateMutability": "view",
      "type": "function",
      "constant": true
    },
    {
      "inputs": [
        {
          "internalType": "address",
          "name": "spender",
          "type": "address"
        },
        {
          "internalType": "uint256",
          "name": "amount",
          "type": "uint256"
        }
      ],
      "name": "approve",
      "outputs": [
        {
          "internalType": "bool",
          "name": "",
          "type": "bool"
        }
      ],
      "stateMutability": "nonpayable",
      "type": "function"
    },
    {
      "inputs": [
        {
          "internalType": "address",
          "name": "account",
          "type": "address"
        }
      ],
      "name": "balanceOf",
      "outputs": [
        {
          "internalType": "uint256",
          "name": "",
          "type": "uint256"
        }
      ],
      "stateMutability": "view",
      "type": "function",
      "constant": true
    },
    {
      "inputs": [
        {
          "internalType": "uint256",
          "name": "amount",
          "type": "uint256"
        }
      ],
      "name": "burn",
      "outputs": [],
      "stateMutability": "nonpayable",
      "type": "function"
    },
    {
      "inputs": [
        {
          "internalType": "address",
          "name": "account",
          "type": "address"
        },
        {
          "internalType": "uint256",
          "name": "amount",
          "type": "uint256"
        }
      ],
      "name": "burnFrom",
      "outputs": [],
      "stateMutability": "nonpayable",
      "type": "function"
    },
    {
      "inputs": [
        {
          "internalType": "address",
          "name": "account",
          "type": "address"
        },
        {
          "internalType": "uint32",
          "name": "pos",
          "type": "uint32"
        }
      ],
      "name": "checkpoints",
      "outputs": [
        {
          "components": [
            {
              "internalType": "uint32",
              "name": "fromBlock",
              "type": "uint32"
            },
            {
              "internalType": "uint224",
              "name": "votes",
              "type": "uint224"
            }
          ],
          "internalType": "struct ERC20Votes.Checkpoint",
          "name": "",
          "type": "tuple"
        }
      ],
      "stateMutability": "view",
      "type": "function",
      "constant": true
    },
    {
      "inputs": [],
      "name": "clock",
      "outputs": [
        {
          "internalType": "uint48",
          "name": "",
          "type": "uint48"
        }
      ],
      "stateMutability": "view",
      "type": "function",
      "constant": true
    },
    {
      "inputs": [],
      "name": "decimals",
      "outputs": [
        {
          "internalType": "uint8",
          "name": "",
          "type": "uint8"
        }
      ],
      "stateMutability": "view",
      "type": "function",
      "constant": true
    },
    {
      "inputs": [
        {
          "internalType": "address",
          "name": "spender",
          "type": "address"
        },
        {
          "internalType": "uint256",
          "name": "subtractedValue",
          "type": "uint256"
        }
      ],
      "name": "decreaseAllowance",
      "outputs": [
        {
          "internalType": "bool",
          "name": "",
          "type": "bool"
        }
      ],
      "stateMutability": "nonpayable",
      "type": "function"
    },
    {
      "inputs": [
        {
          "internalType": "address",
          "name": "delegatee",
          "type": "address"
        }
      ],
      "name": "delegate",
      "outputs": [],
      "stateMutability": "nonpayable",
      "type": "function"
    },
    {
      "inputs": [
        {
          "internalType": "address",
          "name": "delegatee",
          "type": "address"
        },
        {
          "internalType": "uint256",
          "name": "nonce",
          "type": "uint256"
        },
        {
          "internalType": "uint256",
          "name": "expiry",
          "type": "uint256"
        },
        {
          "internalType": "uint8",
          "name": "v",
          "type": "uint8"
        },
        {
          "internalType": "bytes32",
          "name": "r",
          "type": "bytes32"
        },
        {
          "internalType": "bytes32",
          "name": "s",
          "type": "bytes32"
        }
      ],
      "name": "delegateBySig",
      "outputs": [],
      "stateMutability": "nonpayable",
      "type": "function"
    },
    {
      "inputs": [
        {
          "internalType": "address",
          "name": "account",
          "type": "address"
        }
      ],
      "name": "delegates",
      "outputs": [
        {
          "internalType": "address",
          "name": "",
          "type": "address"
        }
      ],
      "stateMutability": "view",
      "type": "function",
      "constant": true
    },
    {
      "inputs": [],
      "name": "eip712Domain",
      "outputs": [
        {
          "internalType": "bytes1",
          "name": "fields",
          "type": "bytes1"
        },
        {
          "internalType": "string",
          "name": "name",
          "type": "string"
        },
        {
          "internalType": "string",
          "name": "version",
          "type": "string"
        },
        {
          "internalType": "uint256",
          "name": "chainId",
          "type": "uint256"
        },
        {
          "internalType": "address",
          "name": "verifyingContract",
          "type": "address"
        },
        {
          "internalType": "bytes32",
          "name": "salt",
          "type": "bytes32"
        },
        {
          "internalType": "uint256[]",
          "name": "extensions",
          "type": "uint256[]"
        }
      ],
      "stateMutability": "view",
      "type": "function",
      "constant": true
    },
    {
      "inputs": [
        {
          "internalType": "uint256",
          "name": "timepoint",
          "type": "uint256"
        }
      ],
      "name": "getPastTotalSupply",
      "outputs": [
        {
          "internalType": "uint256",
          "name": "",
          "type": "uint256"
        }
      ],
      "stateMutability": "view",
      "type": "function",
      "constant": true
    },
    {
      "inputs": [
        {
          "internalType": "address",
          "name": "account",
          "type": "address"
        },
        {
          "internalType": "uint256",
          "name": "timepoint",
          "type": "uint256"
        }
      ],
      "name": "getPastVotes",
      "outputs": [
        {
          "internalType": "uint256",
          "name": "",
          "type": "uint256"
        }
      ],
      "stateMutability": "view",
      "type": "function",
      "constant": true
    },
    {
      "inputs": [
        {
          "internalType": "address",
          "name": "account",
          "type": "address"
        }
      ],
      "name": "getVotes",
      "outputs": [
        {
          "internalType": "uint256",
          "name": "",
          "type": "uint256"
        }
      ],
      "stateMutability": "view",
      "type": "function",
      "constant": true
    },
    {
      "inputs": [
        {
          "internalType": "address",
          "name": "spender",
          "type": "address"
        },
        {
          "internalType": "uint256",
          "name": "addedValue",
          "type": "uint256"
        }
      ],
      "name": "increaseAllowance",
      "outputs": [
        {
          "internalType": "bool",
          "name": "",
          "type": "bool"
        }
      ],
      "stateMutability": "nonpayable",
      "type": "function"
    },
    {
      "inputs": [],
      "name": "name",
      "outputs": [
        {
          "internalType": "string",
          "name": "",
          "type": "string"
        }
      ],
      "stateMutability": "view",
      "type": "function",
      "constant": true
    },
    {
      "inputs": [
        {
          "internalType": "address",
          "name": "owner",
          "type": "address"
        }
      ],
      "name": "nonces",
      "outputs": [
        {
          "internalType": "uint256",
          "name": "",
          "type": "uint256"
        }
      ],
      "stateMutability": "view",
      "type": "function",
      "constant": true
    },
    {
      "inputs": [
        {
          "internalType": "address",
          "name": "account",
          "type": "address"
        }
      ],
      "name": "numCheckpoints",
      "outputs": [
        {
          "internalType": "uint32",
          "name": "",
          "type": "uint32"
        }
      ],
      "stateMutability": "view",
      "type": "function",
      "constant": true
    },
    {
      "inputs": [],
      "name": "owner",
      "outputs": [
        {
          "internalType": "address",
          "name": "",
          "type": "address"
        }
      ],
      "stateMutability": "view",
      "type": "function",
      "constant": true
    },
    {
      "inputs": [],
      "name": "paused",
      "outputs": [
        {
          "internalType": "bool",
          "name": "",
          "type": "bool"
        }
      ],
      "stateMutability": "view",
      "type": "function",
      "constant": true
    },
    {
      "inputs": [
        {
          "internalType": "address",
          "name": "owner",
          "type": "address"
        },
        {
          "internalType": "address",
          "name": "spender",
          "type": "address"
        },
        {
          "internalType": "uint256",
          "name": "value",
          "type": "uint256"
        },
        {
          "internalType": "uint256",
          "name": "deadline",
          "type": "uint256"
        },
        {
          "internalType": "uint8",
          "name": "v",
          "type": "uint8"
        },
        {
          "internalType": "bytes32",
          "name": "r",
          "type": "bytes32"
        },
        {
          "internalType": "bytes32",
          "name": "s",
          "type": "bytes32"
        }
      ],
      "name": "permit",
      "outputs": [],
      "stateMutability": "nonpayable",
      "type": "function"
    },
    {
      "inputs": [],
      "name": "renounceOwnership",
      "outputs": [],
      "stateMutability": "nonpayable",
      "type": "function"
    },
    {
      "inputs": [],
      "name": "symbol",
      "outputs": [
        {
          "internalType": "string",
          "name": "",
          "type": "string"
        }
      ],
      "stateMutability": "view",
      "type": "function",
      "constant": true
    },
    {
      "inputs": [],
      "name": "totalSupply",
      "outputs": [
        {
          "internalType": "uint256",
          "name": "",
          "type": "uint256"
        }
      ],
      "stateMutability": "view",
      "type": "function",
      "constant": true
    },
    {
      "inputs": [
        {
          "internalType": "address",
          "name": "to",
          "type": "address"
        },
        {
          "internalType": "uint256",
          "name": "amount",
          "type": "uint256"
        }
      ],
      "name": "transfer",
      "outputs": [
        {
          "internalType": "bool",
          "name": "",
          "type": "bool"
        }
      ],
      "stateMutability": "nonpayable",
      "type": "function"
    },
    {
      "inputs": [
        {
          "internalType": "address",
          "name": "from",
          "type": "address"
        },
        {
          "internalType": "address",
          "name": "to",
          "type": "address"
        },
        {
          "internalType": "uint256",
          "name": "amount",
          "type": "uint256"
        }
      ],
      "name": "transferFrom",
      "outputs": [
        {
          "internalType": "bool",
          "name": "",
          "type": "bool"
        }
      ],
      "stateMutability": "nonpayable",
      "type": "function"
    },
    {
      "inputs": [
        {
          "internalType": "address",
          "name": "newOwner",
          "type": "address"
        }
      ],
      "name": "transferOwnership",
      "outputs": [],
      "stateMutability": "nonpayable",
      "type": "function"
    },
    {
      "inputs": [],
      "name": "pause",
      "outputs": [],
      "stateMutability": "nonpayable",
      "type": "function"
    },
    {
      "inputs": [],
      "name": "unpause",
      "outputs": [],
      "stateMutability": "nonpayable",
      "type": "function"
    },
    {
      "inputs": [
        {
          "internalType": "address",
          "name": "to",
          "type": "address"
        },
        {
          "internalType": "uint256",
          "name": "amount",
          "type": "uint256"
        }
      ],
      "name": "mint",
      "outputs": [],
      "stateMutability": "nonpayable",
      "type": "function"
    },
    {
      "inputs": [
        {
          "internalType": "address",
          "name": "to",
          "type": "address"
        },
        {
          "internalType": "uint256",
          "name": "amount",
          "type": "uint256"
        }
      ],
      "name": "burnToken",
      "outputs": [],
      "stateMutability": "nonpayable",
      "type": "function"
    }
  ],
  "bytecode": "0x6101606040523480156200001257600080fd5b506040516200550138038062005501833981810160405281019062000038919062000629565b81806040518060400160405280600181526020017f3100000000000000000000000000000000000000000000000000000000000000815250848481600390805190602001906200008a929190620003dc565b508060049080519060200190620000a3929190620003dc565b5050506000600560006101000a81548160ff021916908315150217905550620000e1620000d5620001d660201b60201c565b620001de60201b60201c565b620000fc600683620002a460201b620013a21790919060201c565b61012081815250506200011f600782620002a460201b620013a21790919060201c565b6101408181525050818051906020012060e08181525050808051906020012061010081815250504660a081815250506200015e6200030860201b60201c565b608081815250503073ffffffffffffffffffffffffffffffffffffffff1660c08173ffffffffffffffffffffffffffffffffffffffff168152505050505081600d9080519060200190620001b4929190620003dc565b5080600e9080519060200190620001cd929190620003dc565b5050506200091b565b600033905090565b6000600560019054906101000a900473ffffffffffffffffffffffffffffffffffffffff16905081600560016101000a81548173ffffffffffffffffffffffffffffffffffffffff021916908373ffffffffffffffffffffffffffffffffffffffff1602179055508173ffffffffffffffffffffffffffffffffffffffff168173ffffffffffffffffffffffffffffffffffffffff167f8be0079c531659141344cd1fd0a4f28419497f9722a3daafe3b4186f6b6457e060405160405180910390a35050565b6000602083511015620002ca57620002c2836200036560201b60201c565b905062000302565b82620002e183620003d260201b620013ed1760201c565b6000019080519060200190620002f9929190620003dc565b5060ff60001b90505b92915050565b60007f8b73c3c69bb8fe3d512ecc4cf759cc79239f7b179b0ffacaa9a75d522b39400f60e0516101005146306040516020016200034a95949392919062000729565b60405160208183030381529060405280519060200120905090565b600080829050601f81511115620003b557826040517f305a27a9000000000000000000000000000000000000000000000000000000008152600401620003ac9190620007e3565b60405180910390fd5b805181620003c39062000846565b60001c1760001b915050919050565b6000819050919050565b828054620003ea90620008e5565b90600052602060002090601f0160209004810192826200040e57600085556200045a565b82601f106200042957805160ff19168380011785556200045a565b828001600101855582156200045a579182015b82811115620004595782518255916020019190600101906200043c565b5b5090506200046991906200046d565b5090565b5b80821115620004885760008160009055506001016200046e565b5090565b6000604051905090565b600080fd5b600080fd5b600080fd5b600080fd5b6000601f19601f8301169050919050565b7f4e487b7100000000000000000000000000000000000000000000000000000000600052604160045260246000fd5b620004f582620004aa565b810181811067ffffffffffffffff82111715620005175762000516620004bb565b5b80604052505050565b60006200052c6200048c565b90506200053a8282620004ea565b919050565b600067ffffffffffffffff8211156200055d576200055c620004bb565b5b6200056882620004aa565b9050602081019050919050565b60005b838110156200059557808201518184015260208101905062000578565b83811115620005a5576000848401525b50505050565b6000620005c2620005bc846200053f565b62000520565b905082815260208101848484011115620005e157620005e0620004a5565b5b620005ee84828562000575565b509392505050565b600082601f8301126200060e576200060d620004a0565b5b815162000620848260208601620005ab565b91505092915050565b6000806040838503121562000643576200064262000496565b5b600083015167ffffffffffffffff8111156200066457620006636200049b565b5b6200067285828601620005f6565b925050602083015167ffffffffffffffff8111156200069657620006956200049b565b5b620006a485828601620005f6565b9150509250929050565b6000819050919050565b620006c381620006ae565b82525050565b6000819050919050565b620006de81620006c9565b82525050565b600073ffffffffffffffffffffffffffffffffffffffff82169050919050565b60006200071182620006e4565b9050919050565b620007238162000704565b82525050565b600060a082019050620007406000830188620006b8565b6200074f6020830187620006b8565b6200075e6040830186620006b8565b6200076d6060830185620006d3565b6200077c608083018462000718565b9695505050505050565b600081519050919050565b600082825260208201905092915050565b6000620007af8262000786565b620007bb818562000791565b9350620007cd81856020860162000575565b620007d881620004aa565b840191505092915050565b60006020820190508181036000830152620007ff8184620007a2565b905092915050565b600081519050919050565b6000819050602082019050919050565b6000620008308251620006ae565b80915050919050565b600082821b905092915050565b6000620008538262000807565b826200085f8462000812565b90506200086c8162000822565b92506020821015620008af57620008aa7fffffffffffffffffffffffffffffffffffffffffffffffffffffffffffffffff8360200360080262000839565b831692505b5050919050565b7f4e487b7100000000000000000000000000000000000000000000000000000000600052602260045260246000fd5b60006002820490506001821680620008fe57607f821691505b60208210811415620009155762000914620008b6565b5b50919050565b60805160a05160c05160e051610100516101205161014051614b8b620009766000396000610b9d01526000610b69015260006120ec015260006120cb015260006118d201526000611928015260006119510152614b8b6000f3fe608060405234801561001057600080fd5b50600436106102115760003560e01c8063715018a6116101255780639ab24eb0116100ad578063d1df306c1161007c578063d1df306c14610632578063d505accf1461064e578063dd62ed3e1461066a578063f1127ed81461069a578063f2fde38b146106ca57610211565b80639ab24eb014610586578063a457c2d7146105b6578063a9059cbb146105e6578063c3cda5201461061657610211565b806384b0196e116100f457806384b0196e146104d85780638da5cb5b146104fc5780638e539e8c1461051a57806391ddadf41461054a57806395d89b411461056857610211565b8063715018a61461047857806379cc6790146104825780637ecebe001461049e5780638456cb59146104ce57610211565b80633f4ba83a116101a8578063587cde1e11610177578063587cde1e146103ae5780635c19a95c146103de5780635c975abb146103fa5780636fcfff451461041857806370a082311461044857610211565b80633f4ba83a1461034e57806340c10f191461035857806342966c68146103745780634bf5d7e91461039057610211565b8063313ce567116101e4578063313ce567146102b25780633644e515146102d057806339509351146102ee5780633a46b1a81461031e57610211565b806306fdde0314610216578063095ea7b31461023457806318160ddd1461026457806323b872dd14610282575b600080fd5b61021e6106e6565b60405161022b9190613278565b60405180910390f35b61024e60048036038101906102499190613333565b610778565b60405161025b919061338e565b60405180910390f35b61026c61079b565b60405161027991906133b8565b60405180910390f35b61029c600480360381019061029791906133d3565b6107a5565b6040516102a9919061338e565b60405180910390f35b6102ba6107d4565b6040516102c79190613442565b60405180910390f35b6102d86107dd565b6040516102e59190613476565b60405180910390f35b61030860048036038101906103039190613333565b6107ec565b604051610315919061338e565b60405180910390f35b61033860048036038101906103339190613333565b610823565b60405161034591906133b8565b60405180910390f35b6103566108c6565b005b610372600480360381019061036d9190613333565b6108d8565b005b61038e60048036038101906103899190613491565b6108ee565b005b610398610902565b6040516103a59190613278565b60405180910390f35b6103c860048036038101906103c391906134be565b610990565b6040516103d591906134fa565b60405180910390f35b6103f860048036038101906103f391906134be565b6109f9565b005b610402610a0d565b60405161040f919061338e565b60405180910390f35b610432600480360381019061042d91906134be565b610a24565b60405161043f9190613534565b60405180910390f35b610462600480360381019061045d91906134be565b610a78565b60405161046f91906133b8565b60405180910390f35b610480610ac0565b005b61049c60048036038101906104979190613333565b610ad4565b005b6104b860048036038101906104b391906134be565b610af4565b6040516104c591906133b8565b60405180910390f35b6104d6610b44565b005b6104e0610b56565b6040516104f39796959493929190613648565b60405180910390f35b610504610c58565b60405161051191906134fa565b60405180910390f35b610534600480360381019061052f9190613491565b610c82565b60405161054191906133b8565b60405180910390f35b610552610ce7565b60405161055f91906136ed565b60405180910390f35b610570610cf7565b60405161057d9190613278565b60405180910390f35b6105a0600480360381019061059b91906134be565b610d89565b6040516105ad91906133b8565b60405180910390f35b6105d060048036038101906105cb9190613333565b610e91565b6040516105dd919061338e565b60405180910390f35b61060060048036038101906105fb9190613333565b610f08565b60405161060d919061338e565b60405180910390f35b610630600480360381019061062b9190613760565b610f2b565b005b61064c60048036038101906106479190613333565b61102f565b005b610668600480360381019061066391906137ed565b611045565b005b610684600480360381019061067f919061388f565b611187565b60405161069191906133b8565b60405180910390f35b6106b460048036038101906106af91906138fb565b61120e565b6040516106c191906139b0565b60405180910390f35b6106e460048036038101906106df91906134be565b61131e565b005b6060600380546106f5906139fa565b80601f0160208091040260200160405190810160405280929190818152602001828054610721906139fa565b801561076e5780601f106107435761010080835404028352916020019161076e565b820191906000526020600020905b81548152906001019060200180831161075157829003601f168201915b5050505050905090565b6000806107836113f7565b90506107908185856113ff565b600191505092915050565b6000600254905090565b6000806107b06113f7565b90506107bd8582856115ca565b6107c8858585611656565b60019150509392505050565b60006012905090565b60006107e76118ce565b905090565b6000806107f76113f7565b90506108188185856108098589611187565b6108139190613a5b565b6113ff565b600191505092915050565b600061082d610ce7565b65ffffffffffff168210610876576040517f08c379a000000000000000000000000000000000000000000000000000000000815260040161086d90613afd565b60405180910390fd5b6108be600b60008573ffffffffffffffffffffffffffffffffffffffff1673ffffffffffffffffffffffffffffffffffffffff16815260200190815260200160002083611985565b905092915050565b6108ce611acd565b6108d6611b4b565b565b6108e0611acd565b6108ea8282611bae565b5050565b6108ff6108f96113f7565b82611bbc565b50565b60604361090d610ce7565b65ffffffffffff1614610955576040517f08c379a000000000000000000000000000000000000000000000000000000000815260040161094c90613b69565b60405180910390fd5b6040518060400160405280601d81526020017f6d6f64653d626c6f636b6e756d6265722666726f6d3d64656661756c74000000815250905090565b6000600a60008373ffffffffffffffffffffffffffffffffffffffff1673ffffffffffffffffffffffffffffffffffffffff16815260200190815260200160002060009054906101000a900473ffffffffffffffffffffffffffffffffffffffff169050919050565b610a0a610a046113f7565b82611bca565b50565b6000600560009054906101000a900460ff16905090565b6000610a71600b60008473ffffffffffffffffffffffffffffffffffffffff1673ffffffffffffffffffffffffffffffffffffffff16815260200190815260200160002080549050611ce4565b9050919050565b60008060008373ffffffffffffffffffffffffffffffffffffffff1673ffffffffffffffffffffffffffffffffffffffff168152602001908152602001600020549050919050565b610ac8611acd565b610ad26000611d37565b565b610ae682610ae06113f7565b836115ca565b610af08282611bbc565b5050565b6000610b3d600860008473ffffffffffffffffffffffffffffffffffffffff1673ffffffffffffffffffffffffffffffffffffffff168152602001908152602001600020611dfd565b9050919050565b610b4c611acd565b610b54611e0b565b565b600060608060008060006060610b9660067f0000000000000000000000000000000000000000000000000000000000000000611e6e90919063ffffffff16565b610bca60077f0000000000000000000000000000000000000000000000000000000000000000611e6e90919063ffffffff16565b46306000801b600067ffffffffffffffff811115610beb57610bea613b89565b5b604051908082528060200260200182016040528015610c195781602001602082028036833780820191505090505b507f0f00000000000000000000000000000000000000000000000000000000000000959493929190965096509650965096509650965090919293949596565b6000600560019054906101000a900473ffffffffffffffffffffffffffffffffffffffff16905090565b6000610c8c610ce7565b65ffffffffffff168210610cd5576040517f08c379a0000000000000000000000000000000000000000000000000000000008152600401610ccc90613afd565b60405180910390fd5b610ce0600c83611985565b9050919050565b6000610cf243611f1e565b905090565b606060048054610d06906139fa565b80601f0160208091040260200160405190810160405280929190818152602001828054610d32906139fa565b8015610d7f5780601f10610d5457610100808354040283529160200191610d7f565b820191906000526020600020905b815481529060010190602001808311610d6257829003601f168201915b5050505050905090565b600080600b60008473ffffffffffffffffffffffffffffffffffffffff1673ffffffffffffffffffffffffffffffffffffffff16815260200190815260200160002080549050905060008114610e6857600b60008473ffffffffffffffffffffffffffffffffffffffff1673ffffffffffffffffffffffffffffffffffffffff1681526020019081526020016000206001820381548110610e2d57610e2c613bb8565b5b9060005260206000200160000160049054906101000a90047bffffffffffffffffffffffffffffffffffffffffffffffffffffffff16610e6b565b60005b7bffffffffffffffffffffffffffffffffffffffffffffffffffffffff16915050919050565b600080610e9c6113f7565b90506000610eaa8286611187565b905083811015610eef576040517f08c379a0000000000000000000000000000000000000000000000000000000008152600401610ee690613c59565b60405180910390fd5b610efc82868684036113ff565b60019250505092915050565b600080610f136113f7565b9050610f20818585611656565b600191505092915050565b83421115610f6e576040517f08c379a0000000000000000000000000000000000000000000000000000000008152600401610f6590613cc5565b60405180910390fd5b6000610fd0610fc87fe48329057bfd03d55e49b547132e39cffd9c1820ad7b9d4c5307691425d15adf898989604051602001610fad9493929190613ce5565b60405160208183030381529060405280519060200120611f73565b858585611f8d565b9050610fdb81611fb8565b861461101c576040517f08c379a000000000000000000000000000000000000000000000000000000000815260040161101390613d76565b60405180910390fd5b6110268188611bca565b50505050505050565b611037611acd565b6110418282611bbc565b5050565b83421115611088576040517f08c379a000000000000000000000000000000000000000000000000000000000815260040161107f90613de2565b60405180910390fd5b60007f6e71edae12b1b97f4d1f60370fef10105fa2faae0126114a169c64845d6126c98888886110b78c611fb8565b896040516020016110cd96959493929190613e02565b60405160208183030381529060405280519060200120905060006110f082611f73565b9050600061110082878787611f8d565b90508973ffffffffffffffffffffffffffffffffffffffff168173ffffffffffffffffffffffffffffffffffffffff1614611170576040517f08c379a000000000000000000000000000000000000000000000000000000000815260040161116790613eaf565b60405180910390fd5b61117b8a8a8a6113ff565b50505050505050505050565b6000600160008473ffffffffffffffffffffffffffffffffffffffff1673ffffffffffffffffffffffffffffffffffffffff16815260200190815260200160002060008373ffffffffffffffffffffffffffffffffffffffff1673ffffffffffffffffffffffffffffffffffffffff16815260200190815260200160002054905092915050565b6112166130fe565b600b60008473ffffffffffffffffffffffffffffffffffffffff1673ffffffffffffffffffffffffffffffffffffffff1681526020019081526020016000208263ffffffff168154811061126d5761126c613bb8565b5b906000526020600020016040518060400160405290816000820160009054906101000a900463ffffffff1663ffffffff1663ffffffff1681526020016000820160049054906101000a90047bffffffffffffffffffffffffffffffffffffffffffffffffffffffff167bffffffffffffffffffffffffffffffffffffffffffffffffffffffff167bffffffffffffffffffffffffffffffffffffffffffffffffffffffff1681525050905092915050565b611326611acd565b600073ffffffffffffffffffffffffffffffffffffffff168173ffffffffffffffffffffffffffffffffffffffff161415611396576040517f08c379a000000000000000000000000000000000000000000000000000000000815260040161138d90613f41565b60405180910390fd5b61139f81611d37565b50565b60006020835110156113be576113b783612016565b90506113e7565b826113c8836113ed565b60000190805190602001906113de92919061313c565b5060ff60001b90505b92915050565b6000819050919050565b600033905090565b600073ffffffffffffffffffffffffffffffffffffffff168373ffffffffffffffffffffffffffffffffffffffff16141561146f576040517f08c379a000000000000000000000000000000000000000000000000000000000815260040161146690613fd3565b60405180910390fd5b600073ffffffffffffffffffffffffffffffffffffffff168273ffffffffffffffffffffffffffffffffffffffff1614156114df576040517f08c379a00000000000000000000000000000000000000000000000000000000081526004016114d690614065565b60405180910390fd5b80600160008573ffffffffffffffffffffffffffffffffffffffff1673ffffffffffffffffffffffffffffffffffffffff16815260200190815260200160002060008473ffffffffffffffffffffffffffffffffffffffff1673ffffffffffffffffffffffffffffffffffffffff168152602001908152602001600020819055508173ffffffffffffffffffffffffffffffffffffffff168373ffffffffffffffffffffffffffffffffffffffff167f8c5be1e5ebec7d5bd14f71427d1e84f3dd0314c0f7b2291e5b200ac8c7c3b925836040516115bd91906133b8565b60405180910390a3505050565b60006115d68484611187565b90507fffffffffffffffffffffffffffffffffffffffffffffffffffffffffffffffff81146116505781811015611642576040517f08c379a0000000000000000000000000000000000000000000000000000000008152600401611639906140d1565b60405180910390fd5b61164f84848484036113ff565b5b50505050565b600073ffffffffffffffffffffffffffffffffffffffff168373ffffffffffffffffffffffffffffffffffffffff1614156116c6576040517f08c379a00000000000000000000000000000000000000000000000000000000081526004016116bd90614163565b60405180910390fd5b600073ffffffffffffffffffffffffffffffffffffffff168273ffffffffffffffffffffffffffffffffffffffff161415611736576040517f08c379a000000000000000000000000000000000000000000000000000000000815260040161172d906141f5565b60405180910390fd5b61174183838361207e565b60008060008573ffffffffffffffffffffffffffffffffffffffff1673ffffffffffffffffffffffffffffffffffffffff168152602001908152602001600020549050818110156117c7576040517f08c379a00000000000000000000000000000000000000000000000000000000081526004016117be90614287565b60405180910390fd5b8181036000808673ffffffffffffffffffffffffffffffffffffffff1673ffffffffffffffffffffffffffffffffffffffff16815260200190815260200160002081905550816000808573ffffffffffffffffffffffffffffffffffffffff1673ffffffffffffffffffffffffffffffffffffffff168152602001908152602001600020600082825401925050819055508273ffffffffffffffffffffffffffffffffffffffff168473ffffffffffffffffffffffffffffffffffffffff167fddf252ad1be2c89b69c2b068fc378daa952ba7f163c4a11628f55a4df523b3ef846040516118b591906133b8565b60405180910390a36118c8848484612096565b50505050565b60007f000000000000000000000000000000000000000000000000000000000000000073ffffffffffffffffffffffffffffffffffffffff163073ffffffffffffffffffffffffffffffffffffffff1614801561194a57507f000000000000000000000000000000000000000000000000000000000000000046145b15611977577f00000000000000000000000000000000000000000000000000000000000000009050611982565b61197f6120a6565b90505b90565b6000808380549050905060008082905060058311156119fb5760006119a98461213c565b846119b491906142a7565b9050856119c18883612236565b60000160009054906101000a900463ffffffff1663ffffffff1611156119e9578091506119f9565b6001816119f69190613a5b565b92505b505b5b80821015611a5b576000611a10838361224b565b905085611a1d8883612236565b60000160009054906101000a900463ffffffff1663ffffffff161115611a4557809150611a55565b600181611a529190613a5b565b92505b506119fc565b60008114611aa157611a708660018303612236565b60000160049054906101000a90047bffffffffffffffffffffffffffffffffffffffffffffffffffffffff16611aa4565b60005b7bffffffffffffffffffffffffffffffffffffffffffffffffffffffff16935050505092915050565b611ad56113f7565b73ffffffffffffffffffffffffffffffffffffffff16611af3610c58565b73ffffffffffffffffffffffffffffffffffffffff1614611b49576040517f08c379a0000000000000000000000000000000000000000000000000000000008152600401611b4090614327565b60405180910390fd5b565b611b53612271565b6000600560006101000a81548160ff0219169083151502179055507f5db9ee0a495bf2e6ff9c91a7834c1ba4fdd244a5e8aa4e537bd38aeae4b073aa611b976113f7565b604051611ba491906134fa565b60405180910390a1565b611bb882826122ba565b5050565b611bc68282612347565b5050565b6000611bd583610990565b90506000611be284610a78565b905082600a60008673ffffffffffffffffffffffffffffffffffffffff1673ffffffffffffffffffffffffffffffffffffffff16815260200190815260200160002060006101000a81548173ffffffffffffffffffffffffffffffffffffffff021916908373ffffffffffffffffffffffffffffffffffffffff1602179055508273ffffffffffffffffffffffffffffffffffffffff168273ffffffffffffffffffffffffffffffffffffffff168573ffffffffffffffffffffffffffffffffffffffff167f3134e8a2e6d97e929a7e54011ea5485d7d196dd5f0ba4d4ef95803e8e3fc257f60405160405180910390a4611cde828483612365565b50505050565b600063ffffffff8016821115611d2f576040517f08c379a0000000000000000000000000000000000000000000000000000000008152600401611d26906143b9565b60405180910390fd5b819050919050565b6000600560019054906101000a900473ffffffffffffffffffffffffffffffffffffffff16905081600560016101000a81548173ffffffffffffffffffffffffffffffffffffffff021916908373ffffffffffffffffffffffffffffffffffffffff1602179055508173ffffffffffffffffffffffffffffffffffffffff168173ffffffffffffffffffffffffffffffffffffffff167f8be0079c531659141344cd1fd0a4f28419497f9722a3daafe3b4186f6b6457e060405160405180910390a35050565b600081600001549050919050565b611e1361255e565b6001600560006101000a81548160ff0219169083151502179055507f62e78cea01bee320cd4e420270b5ea74000d11b0c9f74754ebdbfc544b05a258611e576113f7565b604051611e6491906134fa565b60405180910390a1565b606060ff60001b8314611e8b57611e84836125a8565b9050611f18565b818054611e97906139fa565b80601f0160208091040260200160405190810160405280929190818152602001828054611ec3906139fa565b8015611f105780601f10611ee557610100808354040283529160200191611f10565b820191906000526020600020905b815481529060010190602001808311611ef357829003601f168201915b505050505090505b92915050565b600065ffffffffffff8016821115611f6b576040517f08c379a0000000000000000000000000000000000000000000000000000000008152600401611f629061444b565b60405180910390fd5b819050919050565b6000611f86611f806118ce565b8361261c565b9050919050565b6000806000611f9e8787878761265d565b91509150611fab81612740565b8192505050949350505050565b600080600860008473ffffffffffffffffffffffffffffffffffffffff1673ffffffffffffffffffffffffffffffffffffffff168152602001908152602001600020905061200581611dfd565b9150612010816128ae565b50919050565b600080829050601f8151111561206357826040517f305a27a900000000000000000000000000000000000000000000000000000000815260040161205a9190613278565b60405180910390fd5b80518161206f906144a8565b60001c1760001b915050919050565b61208661255e565b6120918383836128c4565b505050565b6120a18383836128c9565b505050565b60007f8b73c3c69bb8fe3d512ecc4cf759cc79239f7b179b0ffacaa9a75d522b39400f7f00000000000000000000000000000000000000000000000000000000000000007f0000000000000000000000000000000000000000000000000000000000000000463060405160200161212195949392919061450f565b60405160208183030381529060405280519060200120905090565b60008082141561214f5760009050612231565b6000600161215c846128f4565b901c6001901b9050600181848161217657612175614562565b5b048201901c9050600181848161218f5761218e614562565b5b048201901c905060018184816121a8576121a7614562565b5b048201901c905060018184816121c1576121c0614562565b5b048201901c905060018184816121da576121d9614562565b5b048201901c905060018184816121f3576121f2614562565b5b048201901c9050600181848161220c5761220b614562565b5b048201901c905061222d8182858161222757612226614562565b5b046129d5565b9150505b919050565b60008260005281602060002001905092915050565b6000600282841861225c9190614591565b8284166122699190613a5b565b905092915050565b612279610a0d565b6122b8576040517f08c379a00000000000000000000000000000000000000000000000000000000081526004016122af9061460e565b60405180910390fd5b565b6122c482826129ee565b6122cc612b45565b7bffffffffffffffffffffffffffffffffffffffffffffffffffffffff166122f261079b565b1115612333576040517f08c379a000000000000000000000000000000000000000000000000000000000815260040161232a906146a0565b60405180910390fd5b612341600c612b6983612b7f565b50505050565b6123518282612e5a565b61235f600c61302883612b7f565b50505050565b8173ffffffffffffffffffffffffffffffffffffffff168373ffffffffffffffffffffffffffffffffffffffff16141580156123a15750600081115b1561255957600073ffffffffffffffffffffffffffffffffffffffff168373ffffffffffffffffffffffffffffffffffffffff161461247f57600080612428600b60008773ffffffffffffffffffffffffffffffffffffffff1673ffffffffffffffffffffffffffffffffffffffff16815260200190815260200160002061302885612b7f565b915091508473ffffffffffffffffffffffffffffffffffffffff167fdec2bacdd2f05b59de34da9b523dff8be42e5e38e818c82fdb0bae774387a72483836040516124749291906146c0565b60405180910390a250505b600073ffffffffffffffffffffffffffffffffffffffff168273ffffffffffffffffffffffffffffffffffffffff161461255857600080612501600b60008673ffffffffffffffffffffffffffffffffffffffff1673ffffffffffffffffffffffffffffffffffffffff168152602001908152602001600020612b6985612b7f565b915091508373ffffffffffffffffffffffffffffffffffffffff167fdec2bacdd2f05b59de34da9b523dff8be42e5e38e818c82fdb0bae774387a724838360405161254d9291906146c0565b60405180910390a250505b5b505050565b612566610a0d565b156125a6576040517f08c379a000000000000000000000000000000000000000000000000000000000815260040161259d90614735565b60405180910390fd5b565b606060006125b58361303e565b90506000602067ffffffffffffffff8111156125d4576125d3613b89565b5b6040519080825280601f01601f1916602001820160405280156126065781602001600182028036833780820191505090505b5090508181528360208201528092505050919050565b60006040517f190100000000000000000000000000000000000000000000000000000000000081528360028201528260228201526042812091505092915050565b6000807f7fffffffffffffffffffffffffffffff5d576e7357a4501ddfe92f46681b20a08360001c1115612698576000600391509150612737565b6000600187878787604051600081526020016040526040516126bd9493929190614755565b6020604051602081039080840390855afa1580156126df573d6000803e3d6000fd5b505050602060405103519050600073ffffffffffffffffffffffffffffffffffffffff168173ffffffffffffffffffffffffffffffffffffffff16141561272e57600060019250925050612737565b80600092509250505b94509492505050565b600060048111156127545761275361479a565b5b8160048111156127675761276661479a565b5b1415612772576128ab565b600160048111156127865761278561479a565b5b8160048111156127995761279861479a565b5b14156127da576040517f08c379a00000000000000000000000000000000000000000000000000000000081526004016127d190614815565b60405180910390fd5b600260048111156127ee576127ed61479a565b5b8160048111156128015761280061479a565b5b1415612842576040517f08c379a000000000000000000000000000000000000000000000000000000000815260040161283990614881565b60405180910390fd5b600360048111156128565761285561479a565b5b8160048111156128695761286861479a565b5b14156128aa576040517f08c379a00000000000000000000000000000000000000000000000000000000081526004016128a190614913565b60405180910390fd5b5b50565b6001816000016000828254019250508190555050565b505050565b6128d483838361308e565b6128ef6128e084610990565b6128e984610990565b83612365565b505050565b600080600090506000608084901c111561291657608083901c92506080810190505b6000604084901c111561293157604083901c92506040810190505b6000602084901c111561294c57602083901c92506020810190505b6000601084901c111561296757601083901c92506010810190505b6000600884901c111561298257600883901c92506008810190505b6000600484901c111561299d57600483901c92506004810190505b6000600284901c11156129b857600283901c92506002810190505b6000600184901c11156129cc576001810190505b80915050919050565b60008183106129e457816129e6565b825b905092915050565b600073ffffffffffffffffffffffffffffffffffffffff168273ffffffffffffffffffffffffffffffffffffffff161415612a5e576040517f08c379a0000000000000000000000000000000000000000000000000000000008152600401612a559061497f565b60405180910390fd5b612a6a6000838361207e565b8060026000828254612a7c9190613a5b565b92505081905550806000808473ffffffffffffffffffffffffffffffffffffffff1673ffffffffffffffffffffffffffffffffffffffff168152602001908152602001600020600082825401925050819055508173ffffffffffffffffffffffffffffffffffffffff16600073ffffffffffffffffffffffffffffffffffffffff167fddf252ad1be2c89b69c2b068fc378daa952ba7f163c4a11628f55a4df523b3ef83604051612b2d91906133b8565b60405180910390a3612b4160008383612096565b5050565b60007bffffffffffffffffffffffffffffffffffffffffffffffffffffffff905090565b60008183612b779190613a5b565b905092915050565b6000806000858054905090506000808214612c4557612ba18760018403612236565b6040518060400160405290816000820160009054906101000a900463ffffffff1663ffffffff1663ffffffff1681526020016000820160049054906101000a90047bffffffffffffffffffffffffffffffffffffffffffffffffffffffff167bffffffffffffffffffffffffffffffffffffffffffffffffffffffff167bffffffffffffffffffffffffffffffffffffffffffffffffffffffff1681525050612c81565b6040518060400160405280600063ffffffff16815260200160007bffffffffffffffffffffffffffffffffffffffffffffffffffffffff168152505b905080602001517bffffffffffffffffffffffffffffffffffffffffffffffffffffffff169350612cb684868863ffffffff16565b9250600082118015612ce05750612ccb610ce7565b65ffffffffffff16816000015163ffffffff16145b15612d5157612cee83613093565b612cfb8860018503612236565b60000160046101000a8154817bffffffffffffffffffffffffffffffffffffffffffffffffffffffff02191690837bffffffffffffffffffffffffffffffffffffffffffffffffffffffff160217905550612e50565b866040518060400160405280612d75612d68610ce7565b65ffffffffffff16611ce4565b63ffffffff168152602001612d8986613093565b7bffffffffffffffffffffffffffffffffffffffffffffffffffffffff168152509080600181540180825580915050600190039060005260206000200160009091909190915060008201518160000160006101000a81548163ffffffff021916908363ffffffff16021790555060208201518160000160046101000a8154817bffffffffffffffffffffffffffffffffffffffffffffffffffffffff02191690837bffffffffffffffffffffffffffffffffffffffffffffffffffffffff16021790555050505b5050935093915050565b600073ffffffffffffffffffffffffffffffffffffffff168273ffffffffffffffffffffffffffffffffffffffff161415612eca576040517f08c379a0000000000000000000000000000000000000000000000000000000008152600401612ec190614a11565b60405180910390fd5b612ed68260008361207e565b60008060008473ffffffffffffffffffffffffffffffffffffffff1673ffffffffffffffffffffffffffffffffffffffff16815260200190815260200160002054905081811015612f5c576040517f08c379a0000000000000000000000000000000000000000000000000000000008152600401612f5390614aa3565b60405180910390fd5b8181036000808573ffffffffffffffffffffffffffffffffffffffff1673ffffffffffffffffffffffffffffffffffffffff1681526020019081526020016000208190555081600260008282540392505081905550600073ffffffffffffffffffffffffffffffffffffffff168373ffffffffffffffffffffffffffffffffffffffff167fddf252ad1be2c89b69c2b068fc378daa952ba7f163c4a11628f55a4df523b3ef8460405161300f91906133b8565b60405180910390a361302383600084612096565b505050565b6000818361303691906142a7565b905092915050565b60008060ff8360001c169050601f811115613085576040517fb3512b0c00000000000000000000000000000000000000000000000000000000815260040160405180910390fd5b80915050919050565b505050565b60007bffffffffffffffffffffffffffffffffffffffffffffffffffffffff80168211156130f6576040517f08c379a00000000000000000000000000000000000000000000000000000000081526004016130ed90614b35565b60405180910390fd5b819050919050565b6040518060400160405280600063ffffffff16815260200160007bffffffffffffffffffffffffffffffffffffffffffffffffffffffff1681525090565b828054613148906139fa565b90600052602060002090601f01602090048101928261316a57600085556131b1565b82601f1061318357805160ff19168380011785556131b1565b828001600101855582156131b1579182015b828111156131b0578251825591602001919060010190613195565b5b5090506131be91906131c2565b5090565b5b808211156131db5760008160009055506001016131c3565b5090565b600081519050919050565b600082825260208201905092915050565b60005b838110156132195780820151818401526020810190506131fe565b83811115613228576000848401525b50505050565b6000601f19601f8301169050919050565b600061324a826131df565b61325481856131ea565b93506132648185602086016131fb565b61326d8161322e565b840191505092915050565b60006020820190508181036000830152613292818461323f565b905092915050565b600080fd5b600073ffffffffffffffffffffffffffffffffffffffff82169050919050565b60006132ca8261329f565b9050919050565b6132da816132bf565b81146132e557600080fd5b50565b6000813590506132f7816132d1565b92915050565b6000819050919050565b613310816132fd565b811461331b57600080fd5b50565b60008135905061332d81613307565b92915050565b6000806040838503121561334a5761334961329a565b5b6000613358858286016132e8565b92505060206133698582860161331e565b9150509250929050565b60008115159050919050565b61338881613373565b82525050565b60006020820190506133a3600083018461337f565b92915050565b6133b2816132fd565b82525050565b60006020820190506133cd60008301846133a9565b92915050565b6000806000606084860312156133ec576133eb61329a565b5b60006133fa868287016132e8565b935050602061340b868287016132e8565b925050604061341c8682870161331e565b9150509250925092565b600060ff82169050919050565b61343c81613426565b82525050565b60006020820190506134576000830184613433565b92915050565b6000819050919050565b6134708161345d565b82525050565b600060208201905061348b6000830184613467565b92915050565b6000602082840312156134a7576134a661329a565b5b60006134b58482850161331e565b91505092915050565b6000602082840312156134d4576134d361329a565b5b60006134e2848285016132e8565b91505092915050565b6134f4816132bf565b82525050565b600060208201905061350f60008301846134eb565b92915050565b600063ffffffff82169050919050565b61352e81613515565b82525050565b60006020820190506135496000830184613525565b92915050565b60007fff0000000000000000000000000000000000000000000000000000000000000082169050919050565b6135848161354f565b82525050565b600081519050919050565b600082825260208201905092915050565b6000819050602082019050919050565b6135bf816132fd565b82525050565b60006135d183836135b6565b60208301905092915050565b6000602082019050919050565b60006135f58261358a565b6135ff8185613595565b935061360a836135a6565b8060005b8381101561363b57815161362288826135c5565b975061362d836135dd565b92505060018101905061360e565b5085935050505092915050565b600060e08201905061365d600083018a61357b565b818103602083015261366f818961323f565b90508181036040830152613683818861323f565b905061369260608301876133a9565b61369f60808301866134eb565b6136ac60a0830185613467565b81810360c08301526136be81846135ea565b905098975050505050505050565b600065ffffffffffff82169050919050565b6136e7816136cc565b82525050565b600060208201905061370260008301846136de565b92915050565b61371181613426565b811461371c57600080fd5b50565b60008135905061372e81613708565b92915050565b61373d8161345d565b811461374857600080fd5b50565b60008135905061375a81613734565b92915050565b60008060008060008060c0878903121561377d5761377c61329a565b5b600061378b89828a016132e8565b965050602061379c89828a0161331e565b95505060406137ad89828a0161331e565b94505060606137be89828a0161371f565b93505060806137cf89828a0161374b565b92505060a06137e089828a0161374b565b9150509295509295509295565b600080600080600080600060e0888a03121561380c5761380b61329a565b5b600061381a8a828b016132e8565b975050602061382b8a828b016132e8565b965050604061383c8a828b0161331e565b955050606061384d8a828b0161331e565b945050608061385e8a828b0161371f565b93505060a061386f8a828b0161374b565b92505060c06138808a828b0161374b565b91505092959891949750929550565b600080604083850312156138a6576138a561329a565b5b60006138b4858286016132e8565b92505060206138c5858286016132e8565b9150509250929050565b6138d881613515565b81146138e357600080fd5b50565b6000813590506138f5816138cf565b92915050565b600080604083850312156139125761391161329a565b5b6000613920858286016132e8565b9250506020613931858286016138e6565b9150509250929050565b61394481613515565b82525050565b60007bffffffffffffffffffffffffffffffffffffffffffffffffffffffff82169050919050565b61397b8161394a565b82525050565b604082016000820151613997600085018261393b565b5060208201516139aa6020850182613972565b50505050565b60006040820190506139c56000830184613981565b92915050565b7f4e487b7100000000000000000000000000000000000000000000000000000000600052602260045260246000fd5b60006002820490506001821680613a1257607f821691505b60208210811415613a2657613a256139cb565b5b50919050565b7f4e487b7100000000000000000000000000000000000000000000000000000000600052601160045260246000fd5b6000613a66826132fd565b9150613a71836132fd565b9250827fffffffffffffffffffffffffffffffffffffffffffffffffffffffffffffffff03821115613aa657613aa5613a2c565b5b828201905092915050565b7f4552433230566f7465733a20667574757265206c6f6f6b757000000000000000600082015250565b6000613ae76019836131ea565b9150613af282613ab1565b602082019050919050565b60006020820190508181036000830152613b1681613ada565b9050919050565b7f4552433230566f7465733a2062726f6b656e20636c6f636b206d6f6465000000600082015250565b6000613b53601d836131ea565b9150613b5e82613b1d565b602082019050919050565b60006020820190508181036000830152613b8281613b46565b9050919050565b7f4e487b7100000000000000000000000000000000000000000000000000000000600052604160045260246000fd5b7f4e487b7100000000000000000000000000000000000000000000000000000000600052603260045260246000fd5b7f45524332303a2064656372656173656420616c6c6f77616e63652062656c6f7760008201527f207a65726f000000000000000000000000000000000000000000000000000000602082015250565b6000613c436025836131ea565b9150613c4e82613be7565b604082019050919050565b60006020820190508181036000830152613c7281613c36565b9050919050565b7f4552433230566f7465733a207369676e61747572652065787069726564000000600082015250565b6000613caf601d836131ea565b9150613cba82613c79565b602082019050919050565b60006020820190508181036000830152613cde81613ca2565b9050919050565b6000608082019050613cfa6000830187613467565b613d0760208301866134eb565b613d1460408301856133a9565b613d2160608301846133a9565b95945050505050565b7f4552433230566f7465733a20696e76616c6964206e6f6e636500000000000000600082015250565b6000613d606019836131ea565b9150613d6b82613d2a565b602082019050919050565b60006020820190508181036000830152613d8f81613d53565b9050919050565b7f45524332305065726d69743a206578706972656420646561646c696e65000000600082015250565b6000613dcc601d836131ea565b9150613dd782613d96565b602082019050919050565b60006020820190508181036000830152613dfb81613dbf565b9050919050565b600060c082019050613e176000830189613467565b613e2460208301886134eb565b613e3160408301876134eb565b613e3e60608301866133a9565b613e4b60808301856133a9565b613e5860a08301846133a9565b979650505050505050565b7f45524332305065726d69743a20696e76616c6964207369676e61747572650000600082015250565b6000613e99601e836131ea565b9150613ea482613e63565b602082019050919050565b60006020820190508181036000830152613ec881613e8c565b9050919050565b7f4f776e61626c653a206e6577206f776e657220697320746865207a65726f206160008201527f6464726573730000000000000000000000000000000000000000000000000000602082015250565b6000613f2b6026836131ea565b9150613f3682613ecf565b604082019050919050565b60006020820190508181036000830152613f5a81613f1e565b9050919050565b7f45524332303a20617070726f76652066726f6d20746865207a65726f2061646460008201527f7265737300000000000000000000000000000000000000000000000000000000602082015250565b6000613fbd6024836131ea565b9150613fc882613f61565b604082019050919050565b60006020820190508181036000830152613fec81613fb0565b9050919050565b7f45524332303a20617070726f766520746f20746865207a65726f20616464726560008201527f7373000000000000000000000000000000000000000000000000000000000000602082015250565b600061404f6022836131ea565b915061405a82613ff3565b604082019050919050565b6000602082019050818103600083015261407e81614042565b9050919050565b7f45524332303a20696e73756666696369656e7420616c6c6f77616e6365000000600082015250565b60006140bb601d836131ea565b91506140c682614085565b602082019050919050565b600060208201905081810360008301526140ea816140ae565b9050919050565b7f45524332303a207472616e736665722066726f6d20746865207a65726f20616460008201527f6472657373000000000000000000000000000000000000000000000000000000602082015250565b600061414d6025836131ea565b9150614158826140f1565b604082019050919050565b6000602082019050818103600083015261417c81614140565b9050919050565b7f45524332303a207472616e7366657220746f20746865207a65726f206164647260008201527f6573730000000000000000000000000000000000000000000000000000000000602082015250565b60006141df6023836131ea565b91506141ea82614183565b604082019050919050565b6000602082019050818103600083015261420e816141d2565b9050919050565b7f45524332303a207472616e7366657220616d6f756e742065786365656473206260008201527f616c616e63650000000000000000000000000000000000000000000000000000602082015250565b60006142716026836131ea565b915061427c82614215565b604082019050919050565b600060208201905081810360008301526142a081614264565b9050919050565b60006142b2826132fd565b91506142bd836132fd565b9250828210156142d0576142cf613a2c565b5b828203905092915050565b7f4f776e61626c653a2063616c6c6572206973206e6f7420746865206f776e6572600082015250565b60006143116020836131ea565b915061431c826142db565b602082019050919050565b6000602082019050818103600083015261434081614304565b9050919050565b7f53616665436173743a2076616c756520646f65736e27742066697420696e203360008201527f3220626974730000000000000000000000000000000000000000000000000000602082015250565b60006143a36026836131ea565b91506143ae82614347565b604082019050919050565b600060208201905081810360008301526143d281614396565b9050919050565b7f53616665436173743a2076616c756520646f65736e27742066697420696e203460008201527f3820626974730000000000000000000000000000000000000000000000000000602082015250565b60006144356026836131ea565b9150614440826143d9565b604082019050919050565b6000602082019050818103600083015261446481614428565b9050919050565b600081519050919050565b6000819050602082019050919050565b6000614492825161345d565b80915050919050565b600082821b905092915050565b60006144b38261446b565b826144bd84614476565b90506144c881614486565b92506020821015614508576145037fffffffffffffffffffffffffffffffffffffffffffffffffffffffffffffffff8360200360080261449b565b831692505b5050919050565b600060a0820190506145246000830188613467565b6145316020830187613467565b61453e6040830186613467565b61454b60608301856133a9565b61455860808301846134eb565b9695505050505050565b7f4e487b7100000000000000000000000000000000000000000000000000000000600052601260045260246000fd5b600061459c826132fd565b91506145a7836132fd565b9250826145b7576145b6614562565b5b828204905092915050565b7f5061757361626c653a206e6f7420706175736564000000000000000000000000600082015250565b60006145f86014836131ea565b9150614603826145c2565b602082019050919050565b60006020820190508181036000830152614627816145eb565b9050919050565b7f4552433230566f7465733a20746f74616c20737570706c79207269736b73206f60008201527f766572666c6f77696e6720766f74657300000000000000000000000000000000602082015250565b600061468a6030836131ea565b91506146958261462e565b604082019050919050565b600060208201905081810360008301526146b98161467d565b9050919050565b60006040820190506146d560008301856133a9565b6146e260208301846133a9565b9392505050565b7f5061757361626c653a2070617573656400000000000000000000000000000000600082015250565b600061471f6010836131ea565b915061472a826146e9565b602082019050919050565b6000602082019050818103600083015261474e81614712565b9050919050565b600060808201905061476a6000830187613467565b6147776020830186613433565b6147846040830185613467565b6147916060830184613467565b95945050505050565b7f4e487b7100000000000000000000000000000000000000000000000000000000600052602160045260246000fd5b7f45434453413a20696e76616c6964207369676e61747572650000000000000000600082015250565b60006147ff6018836131ea565b915061480a826147c9565b602082019050919050565b6000602082019050818103600083015261482e816147f2565b9050919050565b7f45434453413a20696e76616c6964207369676e6174757265206c656e67746800600082015250565b600061486b601f836131ea565b915061487682614835565b602082019050919050565b6000602082019050818103600083015261489a8161485e565b9050919050565b7f45434453413a20696e76616c6964207369676e6174757265202773272076616c60008201527f7565000000000000000000000000000000000000000000000000000000000000602082015250565b60006148fd6022836131ea565b9150614908826148a1565b604082019050919050565b6000602082019050818103600083015261492c816148f0565b9050919050565b7f45524332303a206d696e7420746f20746865207a65726f206164647265737300600082015250565b6000614969601f836131ea565b915061497482614933565b602082019050919050565b600060208201905081810360008301526149988161495c565b9050919050565b7f45524332303a206275726e2066726f6d20746865207a65726f2061646472657360008201527f7300000000000000000000000000000000000000000000000000000000000000602082015250565b60006149fb6021836131ea565b9150614a068261499f565b604082019050919050565b60006020820190508181036000830152614a2a816149ee565b9050919050565b7f45524332303a206275726e20616d6f756e7420657863656564732062616c616e60008201527f6365000000000000000000000000000000000000000000000000000000000000602082015250565b6000614a8d6022836131ea565b9150614a9882614a31565b604082019050919050565b60006020820190508181036000830152614abc81614a80565b9050919050565b7f53616665436173743a2076616c756520646f65736e27742066697420696e203260008201527f3234206269747300000000000000000000000000000000000000000000000000602082015250565b6000614b1f6027836131ea565b9150614b2a82614ac3565b604082019050919050565b60006020820190508181036000830152614b4e81614b12565b905091905056fea264697066735822122000f21daa77a5e7609738ff781866cb379a634d6b8ee86e722a0438a0ad693cc464736f6c63430008090033",
  "immutableReferences": {
    "3060": [
      {
        "length": 32,
        "start": 6481
      }
    ],
    "3062": [
      {
        "length": 32,
        "start": 6440
      }
    ],
    "3064": [
      {
        "length": 32,
        "start": 6354
      }
    ],
    "3066": [
      {
        "length": 32,
        "start": 8395
      }
    ],
    "3068": [
      {
        "length": 32,
        "start": 8428
      }
    ],
    "3071": [
      {
        "length": 32,
        "start": 2921
      }
    ],
    "3074": [
      {
        "length": 32,
        "start": 2973
      }
    ]
  },
  "source": "// SPDX-License-Identifier: MIT\r\npragma solidity >=0.8.0;\r\n\r\nimport \"@openzeppelin/contracts/token/ERC20/ERC20.sol\";\r\nimport \"@openzeppelin/contracts/token/ERC20/extensions/ERC20Burnable.sol\";\r\nimport \"@openzeppelin/contracts/security/Pausable.sol\";\r\nimport \"@openzeppelin/contracts/access/Ownable.sol\";\r\nimport \"@openzeppelin/contracts/token/ERC20/extensions/draft-ERC20Permit.sol\";\r\nimport \"@openzeppelin/contracts/token/ERC20/extensions/ERC20Votes.sol\";\r\n\r\n/**\r\n * MyToken Contract\r\n */\r\ncontract MyToken is\r\n    ERC20,\r\n    ERC20Burnable,\r\n    Pausable,\r\n    Ownable,\r\n    ERC20Permit,\r\n    ERC20Votes\r\n{\r\n    // \r\n    string tokenName;\r\n    // \r\n    string tokenSymbol;\r\n\r\n    /**\r\n     * \r\n     * @param _name \r\n     * @param _symbol \r\n     */\r\n    constructor(string memory _name, string memory _symbol)\r\n        ERC20(_name, _symbol)\r\n        ERC20Permit(_name)\r\n    {\r\n        // \r\n        tokenName = _name;\r\n        tokenSymbol = _symbol;\r\n    }\r\n\r\n    /**\r\n     * \r\n     */\r\n    function pause() public onlyOwner {\r\n        _pause();\r\n    }\r\n\r\n    /**\r\n     * \r\n     */\r\n    function unpause() public onlyOwner {\r\n        _unpause();\r\n    }\r\n\r\n    /**\r\n     * \r\n     * @param to \r\n     * @param amount \r\n     */\r\n    function mint(address to, uint256 amount) public onlyOwner {\r\n        _mint(to, amount);\r\n    }\r\n\r\n    /**\r\n     * \r\n     * @param to \r\n     * @param amount \r\n     */\r\n    function burnToken(address to, uint256 amount) public onlyOwner {\r\n        _burn(to, amount);\r\n    }\r\n\r\n    /**\r\n     * \r\n     * @param from \r\n     * @param to \r\n     * @param amount \r\n     */\r\n    function _beforeTokenTransfer(\r\n        address from,\r\n        address to,\r\n        uint256 amount\r\n    ) internal override whenNotPaused {\r\n        super._beforeTokenTransfer(from, to, amount);\r\n    }\r\n\r\n    /**\r\n     * \r\n     * @param from \r\n     * @param to \r\n     * @param amount \r\n     */\r\n    function _afterTokenTransfer(\r\n        address from,\r\n        address to,\r\n        uint256 amount\r\n    ) internal override(ERC20, ERC20Votes) {\r\n        super._afterTokenTransfer(from, to, amount);\r\n    }\r\n\r\n    /**\r\n     * \r\n     */\r\n    function _mint(address to, uint256 amount)\r\n        internal\r\n        override(ERC20, ERC20Votes)\r\n    {\r\n        super._mint(to, amount);\r\n    }\r\n\r\n    /**\r\n     * \r\n     */\r\n    function _burn(address account, uint256 amount)\r\n        internal\r\n        override(ERC20, ERC20Votes)\r\n    {\r\n        super._burn(account, amount);\r\n        \r\n    }\r\n}",
  "sourcePath": "/mnt/c/Users/papiarana/Downloads/IDQ Wallet/backend/contracts/Token/MyToken.sol",
  "compiler": {
    "name": "solc",
    "version": "0.8.9+commit.e5eed63a.Emscripten.clang"
  },
  "schemaVersion": "3.4.15",
  "updatedAt": "2023-09-13T13:43:01.601Z",
  "networkType": "ethereum",
  "devdoc": {
    "kind": "dev",
    "methods": {
      "CLOCK_MODE()": {
        "details": "Description of the clock"
      },
      "DOMAIN_SEPARATOR()": {
        "details": "See {IERC20Permit-DOMAIN_SEPARATOR}."
      },
      "allowance(address,address)": {
        "details": "See {IERC20-allowance}."
      },
      "approve(address,uint256)": {
        "details": "See {IERC20-approve}. NOTE: If `amount` is the maximum `uint256`, the allowance is not updated on `transferFrom`. This is semantically equivalent to an infinite approval. Requirements: - `spender` cannot be the zero address."
      },
      "balanceOf(address)": {
        "details": "See {IERC20-balanceOf}."
      },
      "burn(uint256)": {
        "details": "Destroys `amount` tokens from the caller. See {ERC20-_burn}."
      },
      "burnFrom(address,uint256)": {
        "details": "Destroys `amount` tokens from `account`, deducting from the caller's allowance. See {ERC20-_burn} and {ERC20-allowance}. Requirements: - the caller must have allowance for ``accounts``'s tokens of at least `amount`."
      },
      "burnToken(address,uint256)": {
        "params": {
          "amount": "",
          "to": ""
        }
      },
      "checkpoints(address,uint32)": {
        "details": "Get the `pos`-th checkpoint for `account`."
      },
      "clock()": {
        "details": "Clock used for flagging checkpoints. Can be overridden to implement timestamp based checkpoints (and voting)."
      },
      "constructor": {
        "params": {
          "_name": "",
          "_symbol": ""
        }
      },
      "decimals()": {
        "details": "Returns the number of decimals used to get its user representation. For example, if `decimals` equals `2`, a balance of `505` tokens should be displayed to a user as `5.05` (`505 / 10 ** 2`). Tokens usually opt for a value of 18, imitating the relationship between Ether and Wei. This is the default value returned by this function, unless it's overridden. NOTE: This information is only used for _display_ purposes: it in no way affects any of the arithmetic of the contract, including {IERC20-balanceOf} and {IERC20-transfer}."
      },
      "decreaseAllowance(address,uint256)": {
        "details": "Atomically decreases the allowance granted to `spender` by the caller. This is an alternative to {approve} that can be used as a mitigation for problems described in {IERC20-approve}. Emits an {Approval} event indicating the updated allowance. Requirements: - `spender` cannot be the zero address. - `spender` must have allowance for the caller of at least `subtractedValue`."
      },
      "delegate(address)": {
        "details": "Delegate votes from the sender to `delegatee`."
      },
      "delegateBySig(address,uint256,uint256,uint8,bytes32,bytes32)": {
        "details": "Delegates votes from signer to `delegatee`"
      },
      "delegates(address)": {
        "details": "Get the address `account` is currently delegating to."
      },
      "eip712Domain()": {
        "details": "See {EIP-5267}. _Available since v4.9._"
      },
      "getPastTotalSupply(uint256)": {
        "details": "Retrieve the `totalSupply` at the end of `timepoint`. Note, this value is the sum of all balances. It is NOT the sum of all the delegated votes! Requirements: - `timepoint` must be in the past"
      },
      "getPastVotes(address,uint256)": {
        "details": "Retrieve the number of votes for `account` at the end of `timepoint`. Requirements: - `timepoint` must be in the past"
      },
      "getVotes(address)": {
        "details": "Gets the current votes balance for `account`"
      },
      "increaseAllowance(address,uint256)": {
        "details": "Atomically increases the allowance granted to `spender` by the caller. This is an alternative to {approve} that can be used as a mitigation for problems described in {IERC20-approve}. Emits an {Approval} event indicating the updated allowance. Requirements: - `spender` cannot be the zero address."
      },
      "mint(address,uint256)": {
        "params": {
          "amount": "",
          "to": ""
        }
      },
      "name()": {
        "details": "Returns the name of the token."
      },
      "nonces(address)": {
        "details": "See {IERC20Permit-nonces}."
      },
      "numCheckpoints(address)": {
        "details": "Get number of checkpoints for `account`."
      },
      "owner()": {
        "details": "Returns the address of the current owner."
      },
      "paused()": {
        "details": "Returns true if the contract is paused, and false otherwise."
      },
      "permit(address,address,uint256,uint256,uint8,bytes32,bytes32)": {
        "details": "See {IERC20Permit-permit}."
      },
      "renounceOwnership()": {
        "details": "Leaves the contract without owner. It will not be possible to call `onlyOwner` functions. Can only be called by the current owner. NOTE: Renouncing ownership will leave the contract without an owner, thereby disabling any functionality that is only available to the owner."
      },
      "symbol()": {
        "details": "Returns the symbol of the token, usually a shorter version of the name."
      },
      "totalSupply()": {
        "details": "See {IERC20-totalSupply}."
      },
      "transfer(address,uint256)": {
        "details": "See {IERC20-transfer}. Requirements: - `to` cannot be the zero address. - the caller must have a balance of at least `amount`."
      },
      "transferFrom(address,address,uint256)": {
        "details": "See {IERC20-transferFrom}. Emits an {Approval} event indicating the updated allowance. This is not required by the EIP. See the note at the beginning of {ERC20}. NOTE: Does not update the allowance if the current allowance is the maximum `uint256`. Requirements: - `from` and `to` cannot be the zero address. - `from` must have a balance of at least `amount`. - the caller must have allowance for ``from``'s tokens of at least `amount`."
      },
      "transferOwnership(address)": {
        "details": "Transfers ownership of the contract to a new account (`newOwner`). Can only be called by the current owner."
      }
    },
    "version": 1
  },
  "userdoc": {
    "kind": "user",
    "methods": {
      "burnToken(address,uint256)": {
        "notice": ""
      },
      "constructor": {
        "notice": ""
      },
      "mint(address,uint256)": {
        "notice": ""
      },
      "pause()": {
        "notice": ""
      },
      "unpause()": {
        "notice": ""
      }
    },
    "notice": "MyToken Contract",
    "version": 1
  }
}