{
  "contractName": "WalletFactoryV4",
  "abi": [
    {
      "inputs": [],
      "stateMutability": "nonpayable",
      "type": "constructor"
    },
    {
      "anonymous": false,
      "inputs": [
        {
          "indexed": true,
          "internalType": "address",
          "name": "previousOwner",
          "type": "address"
        },
        {
          "indexed": true,
          "internalType": "address",
          "name": "newOwner",
          "type": "address"
        }
      ],
      "name": "OwnershipTransferred",
      "type": "event"
    },
    {
      "anonymous": false,
      "inputs": [
        {
          "indexed": false,
          "internalType": "address",
          "name": "addr",
          "type": "address"
        },
        {
          "indexed": false,
          "internalType": "string",
          "name": "did",
          "type": "string"
        }
      ],
      "name": "Registered",
      "type": "event"
    },
    {
      "anonymous": false,
      "inputs": [
        {
          "indexed": false,
          "internalType": "address",
          "name": "addr",
          "type": "address"
        },
        {
          "indexed": false,
          "internalType": "string",
          "name": "qrdata",
          "type": "string"
        }
      ],
      "name": "Usercreated",
      "type": "event"
    },
    {
      "anonymous": false,
      "inputs": [
        {
          "indexed": true,
          "internalType": "contract MultiSigWallet",
          "name": "wallet",
          "type": "address"
        },
        {
          "indexed": false,
          "internalType": "string",
          "name": "name",
          "type": "string"
        },
        {
          "indexed": false,
          "internalType": "address[]",
          "name": "owners",
          "type": "address[]"
        },
        {
          "indexed": false,
          "internalType": "uint256",
          "name": "required",
          "type": "uint256"
        }
      ],
      "name": "WalletCreated",
      "type": "event"
    },
    {
      "inputs": [
        {
          "internalType": "string",
          "name": "",
          "type": "string"
        }
      ],
      "name": "addrs",
      "outputs": [
        {
          "internalType": "address",
          "name": "",
          "type": "address"
        }
      ],
      "stateMutability": "view",
      "type": "function",
      "constant": true
    },
    {
      "inputs": [
        {
          "internalType": "address",
          "name": "",
          "type": "address"
        }
      ],
      "name": "dids",
      "outputs": [
        {
          "internalType": "string",
          "name": "",
          "type": "string"
        }
      ],
      "stateMutability": "view",
      "type": "function",
      "constant": true
    },
    {
      "inputs": [
        {
          "internalType": "address",
          "name": "",
          "type": "address"
        }
      ],
      "name": "isRegistered",
      "outputs": [
        {
          "internalType": "bool",
          "name": "",
          "type": "bool"
        }
      ],
      "stateMutability": "view",
      "type": "function",
      "constant": true
    },
    {
      "inputs": [],
      "name": "owner",
      "outputs": [
        {
          "internalType": "address",
          "name": "",
          "type": "address"
        }
      ],
      "stateMutability": "view",
      "type": "function",
      "constant": true
    },
    {
      "inputs": [
        {
          "internalType": "string",
          "name": "",
          "type": "string"
        }
      ],
      "name": "pass",
      "outputs": [
        {
          "internalType": "address",
          "name": "",
          "type": "address"
        }
      ],
      "stateMutability": "view",
      "type": "function",
      "constant": true
    },
    {
      "inputs": [
        {
          "internalType": "string",
          "name": "",
          "type": "string"
        }
      ],
      "name": "userExist",
      "outputs": [
        {
          "internalType": "bool",
          "name": "",
          "type": "bool"
        }
      ],
      "stateMutability": "view",
      "type": "function",
      "constant": true
    },
    {
      "inputs": [
        {
          "internalType": "string",
          "name": "",
          "type": "string"
        },
        {
          "internalType": "uint256",
          "name": "",
          "type": "uint256"
        }
      ],
      "name": "vcs",
      "outputs": [
        {
          "internalType": "string",
          "name": "name",
          "type": "string"
        },
        {
          "internalType": "string",
          "name": "cid",
          "type": "string"
        }
      ],
      "stateMutability": "view",
      "type": "function",
      "constant": true
    },
    {
      "inputs": [
        {
          "internalType": "uint256",
          "name": "",
          "type": "uint256"
        }
      ],
      "name": "wallets",
      "outputs": [
        {
          "internalType": "contract MultiSigWallet",
          "name": "",
          "type": "address"
        }
      ],
      "stateMutability": "view",
      "type": "function",
      "constant": true
    },
    {
      "inputs": [],
      "name": "walletsCount",
      "outputs": [
        {
          "internalType": "uint256",
          "name": "",
          "type": "uint256"
        }
      ],
      "stateMutability": "view",
      "type": "function",
      "constant": true
    },
    {
      "inputs": [
        {
          "internalType": "string",
          "name": "_name",
          "type": "string"
        },
        {
          "internalType": "address[]",
          "name": "_owners",
          "type": "address[]"
        },
        {
          "internalType": "uint256",
          "name": "_required",
          "type": "uint256"
        }
      ],
      "name": "createWallet",
      "outputs": [],
      "stateMutability": "nonpayable",
      "type": "function"
    },
    {
      "inputs": [
        {
          "internalType": "uint256",
          "name": "limit",
          "type": "uint256"
        },
        {
          "internalType": "uint256",
          "name": "offset",
          "type": "uint256"
        }
      ],
      "name": "getWallets",
      "outputs": [
        {
          "internalType": "contract MultiSigWallet[]",
          "name": "coll",
          "type": "address[]"
        }
      ],
      "stateMutability": "view",
      "type": "function",
      "constant": true
    },
    {
      "inputs": [
        {
          "internalType": "address",
          "name": "_addr",
          "type": "address"
        },
        {
          "internalType": "string",
          "name": "_did",
          "type": "string"
        }
      ],
      "name": "register",
      "outputs": [],
      "stateMutability": "nonpayable",
      "type": "function"
    },
    {
      "inputs": [
        {
          "internalType": "address",
          "name": "_addr",
          "type": "address"
        },
        {
          "internalType": "string",
          "name": "_pass",
          "type": "string"
        }
      ],
      "name": "creatUser",
      "outputs": [],
      "stateMutability": "nonpayable",
      "type": "function"
    },
    {
      "inputs": [
        {
          "internalType": "string",
          "name": "_did",
          "type": "string"
        }
      ],
      "name": "getVcs",
      "outputs": [
        {
          "components": [
            {
              "internalType": "string",
              "name": "name",
              "type": "string"
            },
            {
              "internalType": "string",
              "name": "cid",
              "type": "string"
            }
          ],
          "internalType": "struct WalletFactoryV4.VcInfo[]",
          "name": "",
          "type": "tuple[]"
        }
      ],
      "stateMutability": "view",
      "type": "function",
      "constant": true
    },
    {
      "inputs": [
        {
          "internalType": "string",
          "name": "_did",
          "type": "string"
        },
        {
          "internalType": "string",
          "name": "_name",
          "type": "string"
        },
        {
          "internalType": "string",
          "name": "_cid",
          "type": "string"
        }
      ],
      "name": "updateVc",
      "outputs": [],
      "stateMutability": "nonpayable",
      "type": "function"
    },
    {
      "inputs": [
        {
          "internalType": "address",
          "name": "newOwner",
          "type": "address"
        }
      ],
      "name": "transferOwnership",
      "outputs": [],
      "stateMutability": "nonpayable",
      "type": "function"
    }
  ],
  "bytecode": "0x608060405234801561001057600080fd5b5033600160006101000a81548173ffffffffffffffffffffffffffffffffffffffff021916908373ffffffffffffffffffffffffffffffffffffffff160217905550615356806100616000396000f3fe60806040523480156200001157600080fd5b5060043610620001185760003560e01c80637ad71f7211620000a5578063c3c5a547116200006f578063c3c5a5471462000352578063d4e15c781462000388578063e5b0ef9b14620003a8578063f2fde38b14620003c85762000118565b80637ad71f72146200028d5780637cecf30e14620002c35780638da5cb5b14620002f9578063afe32cb2146200031b5762000118565b806347b2470d11620000e757806347b2470d14620001df5780634ce9dde514620002015780636034c0db1462000237578063755c808714620002575762000118565b80631b81e2d2146200011d5780632cc2548f146200015357806332434a2e14620001895780633593f81b14620001a9575b600080fd5b6200013b6004803603810190620001359190620016d8565b620003e8565b6040516200014a919062001746565b60405180910390f35b6200017160048036038101906200016b9190620016d8565b6200041e565b604051620001809190620017a8565b60405180910390f35b620001a76004803603810190620001a19190620017f6565b62000467565b005b620001c76004803603810190620001c191906200185c565b620006d6565b604051620001d6919062001921565b60405180910390f35b620001e96200077e565b604051620001f8919062001960565b60405180910390f35b6200021f6004803603810190620002199190620019ae565b6200078a565b6040516200022e919062001b1d565b60405180910390f35b6200025560048036038101906200024f9190620017f6565b62000936565b005b6200027560048036038101906200026f9190620016d8565b62000b11565b60405162000284919062001cab565b60405180910390f35b620002ab6004803603810190620002a5919062001ccf565b62000cc6565b604051620002ba919062001d12565b60405180910390f35b620002e16004803603810190620002db9190620016d8565b62000d06565b604051620002f09190620017a8565b60405180910390f35b6200030362000d4f565b604051620003129190620017a8565b60405180910390f35b62000339600480360381019062000333919062001d2f565b62000d75565b6040516200034992919062001d95565b60405180910390f35b6200037060048036038101906200036a91906200185c565b62000eed565b6040516200037f919062001746565b60405180910390f35b620003a66004803603810190620003a0919062001eab565b62000f0d565b005b620003c66004803603810190620003c0919062001f45565b6200102f565b005b620003e66004803603810190620003e091906200185c565b6200110a565b005b6003818051602081018201805184825260208301602085012081835280955050505050506000915054906101000a900460ff1681565b6005818051602081018201805184825260208301602085012081835280955050505050506000915054906101000a900473ffffffffffffffffffffffffffffffffffffffff1681565b600160009054906101000a900473ffffffffffffffffffffffffffffffffffffffff1673ffffffffffffffffffffffffffffffffffffffff163373ffffffffffffffffffffffffffffffffffffffff1614620004fa576040517f08c379a0000000000000000000000000000000000000000000000000000000008152600401620004f19062002074565b60405180910390fd5b600260008373ffffffffffffffffffffffffffffffffffffffff1673ffffffffffffffffffffffffffffffffffffffff16815260200190815260200160002060009054906101000a900460ff16156200058a576040517f08c379a000000000000000000000000000000000000000000000000000000000815260040162000581906200210c565b60405180910390fd5b6001600260008473ffffffffffffffffffffffffffffffffffffffff1673ffffffffffffffffffffffffffffffffffffffff16815260200190815260200160002060006101000a81548160ff02191690831515021790555080600460008473ffffffffffffffffffffffffffffffffffffffff1673ffffffffffffffffffffffffffffffffffffffff168152602001908152602001600020908051906020019062000637929190620012e4565b50816005826040516200064b919062002170565b908152602001604051809103902060006101000a81548173ffffffffffffffffffffffffffffffffffffffff021916908373ffffffffffffffffffffffffffffffffffffffff1602179055507fb3eccf73f39b1c07947c780b2b39df2a1bb058b4037b0a42d0881ca1a028a1328282604051620006ca92919062002189565b60405180910390a15050565b60046020528060005260406000206000915090508054620006f790620021ec565b80601f01602080910402602001604051908101604052809291908181526020018280546200072590620021ec565b8015620007765780601f106200074a5761010080835404028352916020019162000776565b820191906000526020600020905b8154815290600101906020018083116200075857829003601f168201915b505050505081565b60008080549050905090565b6060620007966200077e565b821115620007db576040517f08c379a0000000000000000000000000000000000000000000000000000000008152600401620007d29062002272565b60405180910390fd5b600082620007e86200077e565b620007f49190620022c3565b905083811062000805578362000807565b805b9050601481106200081a5760146200081c565b805b90508067ffffffffffffffff8111156200083b576200083a62001591565b5b6040519080825280602002602001820160405280156200086a5781602001602082028036833780820191505090505b50915060005b818110156200092e5760008185620008899190620022fe565b815481106200089d576200089c6200235b565b5b9060005260206000200160009054906101000a900473ffffffffffffffffffffffffffffffffffffffff16838281518110620008de57620008dd6200235b565b5b602002602001019073ffffffffffffffffffffffffffffffffffffffff16908173ffffffffffffffffffffffffffffffffffffffff1681525050808062000925906200238a565b91505062000870565b505092915050565b600160009054906101000a900473ffffffffffffffffffffffffffffffffffffffff1673ffffffffffffffffffffffffffffffffffffffff163373ffffffffffffffffffffffffffffffffffffffff1614620009c9576040517f08c379a0000000000000000000000000000000000000000000000000000000008152600401620009c09062002074565b60405180910390fd5b600381604051620009db919062002170565b908152602001604051809103902060009054906101000a900460ff161562000a3a576040517f08c379a000000000000000000000000000000000000000000000000000000000815260040162000a31906200210c565b60405180910390fd5b600160038260405162000a4e919062002170565b908152602001604051809103902060006101000a81548160ff0219169083151502179055508160068260405162000a86919062002170565b908152602001604051809103902060006101000a81548173ffffffffffffffffffffffffffffffffffffffff021916908373ffffffffffffffffffffffffffffffffffffffff1602179055507ffde0c6ca67b61e58e0b09a02b4081db4ddeb59ad7110bd5ab7c34906fdab8718828260405162000b0592919062002189565b60405180910390a15050565b606060078260405162000b25919062002170565b9081526020016040518091039020805480602002602001604051908101604052809291908181526020016000905b8282101562000cbb578382906000526020600020906002020160405180604001604052908160008201805462000b8990620021ec565b80601f016020809104026020016040519081016040528092919081815260200182805462000bb790620021ec565b801562000c085780601f1062000bdc5761010080835404028352916020019162000c08565b820191906000526020600020905b81548152906001019060200180831162000bea57829003601f168201915b5050505050815260200160018201805462000c2390620021ec565b80601f016020809104026020016040519081016040528092919081815260200182805462000c5190620021ec565b801562000ca25780601f1062000c765761010080835404028352916020019162000ca2565b820191906000526020600020905b81548152906001019060200180831162000c8457829003601f168201915b5050505050815250508152602001906001019062000b53565b505050509050919050565b6000818154811062000cd757600080fd5b906000526020600020016000915054906101000a900473ffffffffffffffffffffffffffffffffffffffff1681565b6006818051602081018201805184825260208301602085012081835280955050505050506000915054906101000a900473ffffffffffffffffffffffffffffffffffffffff1681565b600160009054906101000a900473ffffffffffffffffffffffffffffffffffffffff1681565b600782805160208101820180518482526020830160208501208183528095505050505050818154811062000da857600080fd5b90600052602060002090600202016000915091505080600001805462000dce90620021ec565b80601f016020809104026020016040519081016040528092919081815260200182805462000dfc90620021ec565b801562000e4d5780601f1062000e215761010080835404028352916020019162000e4d565b820191906000526020600020905b81548152906001019060200180831162000e2f57829003601f168201915b50505050509080600101805462000e6490620021ec565b80601f016020809104026020016040519081016040528092919081815260200182805462000e9290620021ec565b801562000ee35780601f1062000eb75761010080835404028352916020019162000ee3565b820191906000526020600020905b81548152906001019060200180831162000ec557829003601f168201915b5050505050905082565b60026020528060005260406000206000915054906101000a900460ff1681565b60008383600160009054906101000a900473ffffffffffffffffffffffffffffffffffffffff168460405162000f439062001375565b62000f529493929190620024a6565b604051809103906000f08015801562000f6f573d6000803e3d6000fd5b5090506000819080600181540180825580915050600190039060005260206000200160009091909190916101000a81548173ffffffffffffffffffffffffffffffffffffffff021916908373ffffffffffffffffffffffffffffffffffffffff1602179055508073ffffffffffffffffffffffffffffffffffffffff167f467134363b98966f95b3f5c5b3a4fef880fcf46db0752f27f77d960d06a40070858585604051620010219392919062002501565b60405180910390a250505050565b600060078460405162001043919062002170565b908152602001604051809103902090508060405180604001604052808581526020018481525090806001815401808255809150506001900390600052602060002090600202016000909190919091506000820151816000019080519060200190620010b0929190620012e4565b506020820151816001019080519060200190620010cf929190620012e4565b50505080600785604051620010e5919062002170565b90815260200160405180910390209080546200110392919062001383565b5050505050565b600160009054906101000a900473ffffffffffffffffffffffffffffffffffffffff1673ffffffffffffffffffffffffffffffffffffffff163373ffffffffffffffffffffffffffffffffffffffff16146200119d576040517f08c379a0000000000000000000000000000000000000000000000000000000008152600401620011949062002074565b60405180910390fd5b600073ffffffffffffffffffffffffffffffffffffffff168173ffffffffffffffffffffffffffffffffffffffff16141562001210576040517f08c379a00000000000000000000000000000000000000000000000000000000081526004016200120790620025c2565b60405180910390fd5b6200121b816200121e565b50565b6000600160009054906101000a900473ffffffffffffffffffffffffffffffffffffffff16905081600160006101000a81548173ffffffffffffffffffffffffffffffffffffffff021916908373ffffffffffffffffffffffffffffffffffffffff1602179055508173ffffffffffffffffffffffffffffffffffffffff168173ffffffffffffffffffffffffffffffffffffffff167f8be0079c531659141344cd1fd0a4f28419497f9722a3daafe3b4186f6b6457e060405160405180910390a35050565b828054620012f290620021ec565b90600052602060002090601f01602090048101928262001316576000855562001362565b82601f106200133157805160ff191683800117855562001362565b8280016001018555821562001362579182015b828111156200136157825182559160200191906001019062001344565b5b50905062001371919062001428565b5090565b612d3c80620025e583390190565b828054828255906000526020600020906002028101928215620014155760005260206000209160020282015b82811115620014145782826000820181600001908054620013d090620021ec565b620013dd92919062001447565b506001820181600101908054620013f490620021ec565b6200140192919062001447565b50505091600201919060020190620013af565b5b509050620014249190620014df565b5090565b5b808211156200144357600081600090555060010162001429565b5090565b8280546200145590620021ec565b90600052602060002090601f016020900481019282620014795760008555620014cc565b82601f106200148c5780548555620014cc565b82800160010185558215620014cc57600052602060002091601f016020900482015b82811115620014cb578254825591600101919060010190620014ae565b5b509050620014db919062001428565b5090565b5b80821115620015185760008082016000620014fc91906200151c565b6001820160006200150e91906200151c565b50600201620014e0565b5090565b5080546200152a90620021ec565b6000825580601f106200153e57506200155f565b601f0160209004906000526020600020908101906200155e919062001428565b5b50565b6000604051905090565b600080fd5b600080fd5b600080fd5b600080fd5b6000601f19601f8301169050919050565b7f4e487b7100000000000000000000000000000000000000000000000000000000600052604160045260246000fd5b620015cb8262001580565b810181811067ffffffffffffffff82111715620015ed57620015ec62001591565b5b80604052505050565b60006200160262001562565b9050620016108282620015c0565b919050565b600067ffffffffffffffff82111562001633576200163262001591565b5b6200163e8262001580565b9050602081019050919050565b82818337600083830152505050565b6000620016716200166b8462001615565b620015f6565b90508281526020810184848401111562001690576200168f6200157b565b5b6200169d8482856200164b565b509392505050565b600082601f830112620016bd57620016bc62001576565b5b8135620016cf8482602086016200165a565b91505092915050565b600060208284031215620016f157620016f06200156c565b5b600082013567ffffffffffffffff81111562001712576200171162001571565b5b6200172084828501620016a5565b91505092915050565b60008115159050919050565b620017408162001729565b82525050565b60006020820190506200175d600083018462001735565b92915050565b600073ffffffffffffffffffffffffffffffffffffffff82169050919050565b6000620017908262001763565b9050919050565b620017a28162001783565b82525050565b6000602082019050620017bf600083018462001797565b92915050565b620017d08162001783565b8114620017dc57600080fd5b50565b600081359050620017f081620017c5565b92915050565b6000806040838503121562001810576200180f6200156c565b5b60006200182085828601620017df565b925050602083013567ffffffffffffffff81111562001844576200184362001571565b5b6200185285828601620016a5565b9150509250929050565b6000602082840312156200187557620018746200156c565b5b60006200188584828501620017df565b91505092915050565b600081519050919050565b600082825260208201905092915050565b60005b83811015620018ca578082015181840152602081019050620018ad565b83811115620018da576000848401525b50505050565b6000620018ed826200188e565b620018f9818562001899565b93506200190b818560208601620018aa565b620019168162001580565b840191505092915050565b600060208201905081810360008301526200193d8184620018e0565b905092915050565b6000819050919050565b6200195a8162001945565b82525050565b60006020820190506200197760008301846200194f565b92915050565b620019888162001945565b81146200199457600080fd5b50565b600081359050620019a8816200197d565b92915050565b60008060408385031215620019c857620019c76200156c565b5b6000620019d88582860162001997565b9250506020620019eb8582860162001997565b9150509250929050565b600081519050919050565b600082825260208201905092915050565b6000819050602082019050919050565b6000819050919050565b600062001a4c62001a4662001a408462001763565b62001a21565b62001763565b9050919050565b600062001a608262001a2b565b9050919050565b600062001a748262001a53565b9050919050565b62001a868162001a67565b82525050565b600062001a9a838362001a7b565b60208301905092915050565b6000602082019050919050565b600062001ac082620019f5565b62001acc818562001a00565b935062001ad98362001a11565b8060005b8381101562001b1057815162001af4888262001a8c565b975062001b018362001aa6565b92505060018101905062001add565b5085935050505092915050565b6000602082019050818103600083015262001b39818462001ab3565b905092915050565b600081519050919050565b600082825260208201905092915050565b6000819050602082019050919050565b600082825260208201905092915050565b600062001b8b826200188e565b62001b97818562001b6d565b935062001ba9818560208601620018aa565b62001bb48162001580565b840191505092915050565b6000604083016000830151848203600086015262001bde828262001b7e565b9150506020830151848203602086015262001bfa828262001b7e565b9150508091505092915050565b600062001c15838362001bbf565b905092915050565b6000602082019050919050565b600062001c378262001b41565b62001c43818562001b4c565b93508360208202850162001c578562001b5d565b8060005b8581101562001c99578484038952815162001c77858262001c07565b945062001c848362001c1d565b925060208a0199505060018101905062001c5b565b50829750879550505050505092915050565b6000602082019050818103600083015262001cc7818462001c2a565b905092915050565b60006020828403121562001ce85762001ce76200156c565b5b600062001cf88482850162001997565b91505092915050565b62001d0c8162001a67565b82525050565b600060208201905062001d29600083018462001d01565b92915050565b6000806040838503121562001d495762001d486200156c565b5b600083013567ffffffffffffffff81111562001d6a5762001d6962001571565b5b62001d7885828601620016a5565b925050602062001d8b8582860162001997565b9150509250929050565b6000604082019050818103600083015262001db18185620018e0565b9050818103602083015262001dc78184620018e0565b90509392505050565b600067ffffffffffffffff82111562001dee5762001ded62001591565b5b602082029050602081019050919050565b600080fd5b600062001e1b62001e158462001dd0565b620015f6565b9050808382526020820190506020840283018581111562001e415762001e4062001dff565b5b835b8181101562001e6e578062001e598882620017df565b84526020840193505060208101905062001e43565b5050509392505050565b600082601f83011262001e905762001e8f62001576565b5b813562001ea284826020860162001e04565b91505092915050565b60008060006060848603121562001ec75762001ec66200156c565b5b600084013567ffffffffffffffff81111562001ee85762001ee762001571565b5b62001ef686828701620016a5565b935050602084013567ffffffffffffffff81111562001f1a5762001f1962001571565b5b62001f288682870162001e78565b925050604062001f3b8682870162001997565b9150509250925092565b60008060006060848603121562001f615762001f606200156c565b5b600084013567ffffffffffffffff81111562001f825762001f8162001571565b5b62001f9086828701620016a5565b935050602084013567ffffffffffffffff81111562001fb45762001fb362001571565b5b62001fc286828701620016a5565b925050604084013567ffffffffffffffff81111562001fe65762001fe562001571565b5b62001ff486828701620016a5565b9150509250925092565b7f546869732061646472657373206973206e6f7420616e206f776e65722061646460008201527f7265737321000000000000000000000000000000000000000000000000000000602082015250565b60006200205c60258362001899565b9150620020698262001ffe565b604082019050919050565b600060208201905081810360008301526200208f816200204d565b9050919050565b7f54686973206164647265737320697320616c726561647920726567697374657260008201527f6564212100000000000000000000000000000000000000000000000000000000602082015250565b6000620020f460248362001899565b9150620021018262002096565b604082019050919050565b600060208201905081810360008301526200212781620020e5565b9050919050565b600081905092915050565b600062002146826200188e565b6200215281856200212e565b935062002164818560208601620018aa565b80840191505092915050565b60006200217e828462002139565b915081905092915050565b6000604082019050620021a0600083018562001797565b8181036020830152620021b48184620018e0565b90509392505050565b7f4e487b7100000000000000000000000000000000000000000000000000000000600052602260045260246000fd5b600060028204905060018216806200220557607f821691505b602082108114156200221c576200221b620021bd565b5b50919050565b7f6f6666736574206f7574206f6620626f756e6473000000000000000000000000600082015250565b60006200225a60148362001899565b9150620022678262002222565b602082019050919050565b600060208201905081810360008301526200228d816200224b565b9050919050565b7f4e487b7100000000000000000000000000000000000000000000000000000000600052601160045260246000fd5b6000620022d08262001945565b9150620022dd8362001945565b925082821015620022f357620022f262002294565b5b828203905092915050565b60006200230b8262001945565b9150620023188362001945565b9250827fffffffffffffffffffffffffffffffffffffffffffffffffffffffffffffffff0382111562002350576200234f62002294565b5b828201905092915050565b7f4e487b7100000000000000000000000000000000000000000000000000000000600052603260045260246000fd5b6000620023978262001945565b91507fffffffffffffffffffffffffffffffffffffffffffffffffffffffffffffffff821415620023cd57620023cc62002294565b5b600182019050919050565b600081519050919050565b600082825260208201905092915050565b6000819050602082019050919050565b6200240f8162001783565b82525050565b600062002423838362002404565b60208301905092915050565b6000602082019050919050565b60006200244982620023d8565b620024558185620023e3565b93506200246283620023f4565b8060005b83811015620024995781516200247d888262002415565b97506200248a836200242f565b92505060018101905062002466565b5085935050505092915050565b60006080820190508181036000830152620024c28187620018e0565b90508181036020830152620024d881866200243c565b9050620024e9604083018562001797565b620024f860608301846200194f565b95945050505050565b600060608201905081810360008301526200251d8186620018e0565b905081810360208301526200253381856200243c565b90506200254460408301846200194f565b949350505050565b7f4f776e61626c653a206e6577206f776e657220697320746865207a65726f206160008201527f6464726573730000000000000000000000000000000000000000000000000000602082015250565b6000620025aa60268362001899565b9150620025b7826200254c565b604082019050919050565b60006020820190508181036000830152620025dd816200259b565b905091905056fe60806040523480156200001157600080fd5b5060405162002d3c38038062002d3c83398181016040528101906200003791906200070a565b60008351116200007e576040517f08c379a0000000000000000000000000000000000000000000000000000000008152600401620000759062000841565b60405180910390fd5b60008111801562000090575082518111155b620000d2576040517f08c379a0000000000000000000000000000000000000000000000000000000008152600401620000c990620008d9565b60405180910390fd5b81600260006101000a81548173ffffffffffffffffffffffffffffffffffffffff021916908373ffffffffffffffffffffffffffffffffffffffff16021790555060005b835181101562000317576000848281518110620001385762000137620008fb565b5b60200260200101519050600073ffffffffffffffffffffffffffffffffffffffff168173ffffffffffffffffffffffffffffffffffffffff161415620001b5576040517f08c379a0000000000000000000000000000000000000000000000000000000008152600401620001ac906200097a565b60405180910390fd5b600560008273ffffffffffffffffffffffffffffffffffffffff1673ffffffffffffffffffffffffffffffffffffffff16815260200190815260200160002060009054906101000a900460ff161562000245576040517f08c379a00000000000000000000000000000000000000000000000000000000081526004016200023c90620009ec565b60405180910390fd5b6001600560008373ffffffffffffffffffffffffffffffffffffffff1673ffffffffffffffffffffffffffffffffffffffff16815260200190815260200160002060006101000a81548160ff0219169083151502179055506001819080600181540180825580915050600190039060005260206000200160009091909190916101000a81548173ffffffffffffffffffffffffffffffffffffffff021916908373ffffffffffffffffffffffffffffffffffffffff1602179055505080806200030e9062000a3d565b91505062000116565b5083600090805190602001906200033092919062000342565b50806003819055505050505062000af0565b828054620003509062000aba565b90600052602060002090601f016020900481019282620003745760008555620003c0565b82601f106200038f57805160ff1916838001178555620003c0565b82800160010185558215620003c0579182015b82811115620003bf578251825591602001919060010190620003a2565b5b509050620003cf9190620003d3565b5090565b5b80821115620003ee576000816000905550600101620003d4565b5090565b6000604051905090565b600080fd5b600080fd5b600080fd5b600080fd5b6000601f19601f8301169050919050565b7f4e487b7100000000000000000000000000000000000000000000000000000000600052604160045260246000fd5b6200045b8262000410565b810181811067ffffffffffffffff821117156200047d576200047c62000421565b5b80604052505050565b600062000492620003f2565b9050620004a0828262000450565b919050565b600067ffffffffffffffff821115620004c357620004c262000421565b5b620004ce8262000410565b9050602081019050919050565b60005b83811015620004fb578082015181840152602081019050620004de565b838111156200050b576000848401525b50505050565b6000620005286200052284620004a5565b62000486565b9050828152602081018484840111156200054757620005466200040b565b5b62000554848285620004db565b509392505050565b600082601f83011262000574576200057362000406565b5b81516200058684826020860162000511565b91505092915050565b600067ffffffffffffffff821115620005ad57620005ac62000421565b5b602082029050602081019050919050565b600080fd5b600073ffffffffffffffffffffffffffffffffffffffff82169050919050565b6000620005f082620005c3565b9050919050565b6200060281620005e3565b81146200060e57600080fd5b50565b6000815190506200062281620005f7565b92915050565b60006200063f62000639846200058f565b62000486565b90508083825260208201905060208402830185811115620006655762000664620005be565b5b835b818110156200069257806200067d888262000611565b84526020840193505060208101905062000667565b5050509392505050565b600082601f830112620006b457620006b362000406565b5b8151620006c684826020860162000628565b91505092915050565b6000819050919050565b620006e481620006cf565b8114620006f057600080fd5b50565b6000815190506200070481620006d9565b92915050565b60008060008060808587031215620007275762000726620003fc565b5b600085015167ffffffffffffffff81111562000748576200074762000401565b5b62000756878288016200055c565b945050602085015167ffffffffffffffff8111156200077a576200077962000401565b5b62000788878288016200069c565b93505060406200079b8782880162000611565b9250506060620007ae87828801620006f3565b91505092959194509250565b600082825260208201905092915050565b7f6e756d626572206f66206f776e657220616464726573736573206d757374206260008201527f65206d6f7265207468616e207a65726f21210000000000000000000000000000602082015250565b600062000829603283620007ba565b91506200083682620007cb565b604082019050919050565b600060208201905081810360008301526200085c816200081a565b9050919050565b7f696e76616c6964207265717569726564206e756d626572206f66206f776e657260008201527f7300000000000000000000000000000000000000000000000000000000000000602082015250565b6000620008c1602183620007ba565b9150620008ce8262000863565b604082019050919050565b60006020820190508181036000830152620008f481620008b2565b9050919050565b7f4e487b7100000000000000000000000000000000000000000000000000000000600052603260045260246000fd5b7f696e76616c696420616464726573730000000000000000000000000000000000600082015250565b600062000962600f83620007ba565b91506200096f826200092a565b602082019050919050565b60006020820190508181036000830152620009958162000953565b9050919050565b7f6f776e6572206973206e6f7420756e6971756500000000000000000000000000600082015250565b6000620009d4601383620007ba565b9150620009e1826200099c565b602082019050919050565b6000602082019050818103600083015262000a0781620009c5565b9050919050565b7f4e487b7100000000000000000000000000000000000000000000000000000000600052601160045260246000fd5b600062000a4a82620006cf565b91507fffffffffffffffffffffffffffffffffffffffffffffffffffffffffffffffff82141562000a805762000a7f62000a0e565b5b600182019050919050565b7f4e487b7100000000000000000000000000000000000000000000000000000000600052602260045260246000fd5b6000600282049050600182168062000ad357607f821691505b6020821081141562000aea5762000ae962000a8b565b5b50919050565b61223c8062000b006000396000f3fe6080604052600436106101185760003560e01c80638253951a116100a0578063dc8452cd11610064578063dc8452cd14610427578063e0cedd9c14610452578063eda8b7cd1461047d578063fe0d94c1146104ba578063febe4909146104d65761016f565b80638253951a146103175780638c85cd85146103545780639ace38c214610391578063a0e67e2b146103d1578063cf8d8ca0146103fc5761016f565b806320c5429b116100e757806320c5429b146102305780632ec4c6ae146102595780632f54bf6e146102845780635c222bad146102c157806373ff81cc146102ec5761016f565b8063025e7c27146101745780631398a5f6146101b157806314de327f146101dc57806317d7de7c146102055761016f565b3661016f573373ffffffffffffffffffffffffffffffffffffffff167f90890809c654f11d6e72a28fa60149770a0d11ec6c92319d6ceb2bb0a4ea1a153447604051610165929190611644565b60405180910390a2005b600080fd5b34801561018057600080fd5b5061019b600480360381019061019691906116a3565b6104ff565b6040516101a89190611711565b60405180910390f35b3480156101bd57600080fd5b506101c661053e565b6040516101d3919061172c565b60405180910390f35b3480156101e857600080fd5b5061020360048036038101906101fe91906117ea565b610548565b005b34801561021157600080fd5b5061021a6107a9565b60405161022791906118f7565b60405180910390f35b34801561023c57600080fd5b50610257600480360381019061025291906116a3565b61083b565b005b34801561026557600080fd5b5061026e610afe565b60405161027b9190611711565b60405180910390f35b34801561029057600080fd5b506102ab60048036038101906102a69190611945565b610b24565b6040516102b8919061198d565b60405180910390f35b3480156102cd57600080fd5b506102d6610b44565b6040516102e3919061172c565b60405180910390f35b3480156102f857600080fd5b50610301610b4c565b60405161030e919061172c565b60405180910390f35b34801561032357600080fd5b5061033e600480360381019061033991906119a8565b610b59565b60405161034b919061198d565b60405180910390f35b34801561036057600080fd5b5061037b60048036038101906103769190611945565b610b88565b604051610388919061198d565b60405180910390f35b34801561039d57600080fd5b506103b860048036038101906103b391906116a3565b610bde565b6040516103c89493929190611a4c565b60405180910390f35b3480156103dd57600080fd5b506103e6610cd3565b6040516103f39190611b56565b60405180910390f35b34801561040857600080fd5b50610411610d61565b60405161041e91906118f7565b60405180910390f35b34801561043357600080fd5b5061043c610def565b604051610449919061172c565b60405180910390f35b34801561045e57600080fd5b50610467610df5565b6040516104749190611d14565b60405180910390f35b34801561048957600080fd5b506104a4600480360381019061049f91906116a3565b610f61565b6040516104b1919061172c565b60405180910390f35b6104d460048036038101906104cf91906116a3565b61103c565b005b3480156104e257600080fd5b506104fd60048036038101906104f891906119a8565b611295565b005b6001818154811061050f57600080fd5b906000526020600020016000915054906101000a900473ffffffffffffffffffffffffffffffffffffffff1681565b6000600354905090565b600560003373ffffffffffffffffffffffffffffffffffffffff1673ffffffffffffffffffffffffffffffffffffffff16815260200190815260200160002060009054906101000a900460ff16806105ed5750600260009054906101000a900473ffffffffffffffffffffffffffffffffffffffff1673ffffffffffffffffffffffffffffffffffffffff163373ffffffffffffffffffffffffffffffffffffffff16145b61062c576040517f08c379a000000000000000000000000000000000000000000000000000000000815260040161062390611d82565b60405180910390fd5b600460405180608001604052808673ffffffffffffffffffffffffffffffffffffffff16815260200185815260200184848080601f016020809104026020016040519081016040528093929190818152602001838380828437600081840152601f19601f82011690508083019250505050505050815260200160001515815250908060018154018082558091505060019003906000526020600020906004020160009091909190915060008201518160000160006101000a81548173ffffffffffffffffffffffffffffffffffffffff021916908373ffffffffffffffffffffffffffffffffffffffff160217905550602082015181600101556040820151816002019080519060200190610742929190611588565b5060608201518160030160006101000a81548160ff021916908315150217905550505060016004805490506107779190611dd1565b7f08324b3d745b914e3abd4ffbfead91e3b78391a98c173202129215ab933adfbe60405160405180910390a250505050565b6060600080546107b890611e34565b80601f01602080910402602001604051908101604052809291908181526020018280546107e490611e34565b80156108315780601f1061080657610100808354040283529160200191610831565b820191906000526020600020905b81548152906001019060200180831161081457829003601f168201915b5050505050905090565b600560003373ffffffffffffffffffffffffffffffffffffffff1673ffffffffffffffffffffffffffffffffffffffff16815260200190815260200160002060009054906101000a900460ff16806108e05750600260009054906101000a900473ffffffffffffffffffffffffffffffffffffffff1673ffffffffffffffffffffffffffffffffffffffff163373ffffffffffffffffffffffffffffffffffffffff16145b61091f576040517f08c379a000000000000000000000000000000000000000000000000000000000815260040161091690611d82565b60405180910390fd5b806004805490508110610967576040517f08c379a000000000000000000000000000000000000000000000000000000000815260040161095e90611eb2565b60405180910390fd5b816004818154811061097c5761097b611ed2565b5b906000526020600020906004020160030160009054906101000a900460ff16156109db576040517f08c379a00000000000000000000000000000000000000000000000000000000081526004016109d290611f4d565b60405180910390fd5b60016006600085815260200190815260200160002060003373ffffffffffffffffffffffffffffffffffffffff1673ffffffffffffffffffffffffffffffffffffffff16815260200190815260200160002060006101000a81548160ff0219169083151502179055610a4c57600080fd5b60006006600085815260200190815260200160002060003373ffffffffffffffffffffffffffffffffffffffff1673ffffffffffffffffffffffffffffffffffffffff16815260200190815260200160002060006101000a81548160ff021916908315150217905550823373ffffffffffffffffffffffffffffffffffffffff167fec9ab91322523c899ede7830ec9bfc992b5981cdcc27b91162fb23de5791117b60405160405180910390a3505050565b600260009054906101000a900473ffffffffffffffffffffffffffffffffffffffff1681565b60056020528060005260406000206000915054906101000a900460ff1681565b600047905090565b6000600180549050905090565b60066020528160005260406000206020528060005260406000206000915091509054906101000a900460ff1681565b6000600560008373ffffffffffffffffffffffffffffffffffffffff1673ffffffffffffffffffffffffffffffffffffffff16815260200190815260200160002060009054906101000a900460ff169050919050565b60048181548110610bee57600080fd5b90600052602060002090600402016000915090508060000160009054906101000a900473ffffffffffffffffffffffffffffffffffffffff1690806001015490806002018054610c3d90611e34565b80601f0160208091040260200160405190810160405280929190818152602001828054610c6990611e34565b8015610cb65780601f10610c8b57610100808354040283529160200191610cb6565b820191906000526020600020905b815481529060010190602001808311610c9957829003601f168201915b5050505050908060030160009054906101000a900460ff16905084565b60606001805480602002602001604051908101604052809291908181526020018280548015610d5757602002820191906000526020600020905b8160009054906101000a900473ffffffffffffffffffffffffffffffffffffffff1673ffffffffffffffffffffffffffffffffffffffff1681526020019060010190808311610d0d575b5050505050905090565b60008054610d6e90611e34565b80601f0160208091040260200160405190810160405280929190818152602001828054610d9a90611e34565b8015610de75780601f10610dbc57610100808354040283529160200191610de7565b820191906000526020600020905b815481529060010190602001808311610dca57829003601f168201915b505050505081565b60035481565b60606004805480602002602001604051908101604052809291908181526020016000905b82821015610f5857838290600052602060002090600402016040518060800160405290816000820160009054906101000a900473ffffffffffffffffffffffffffffffffffffffff1673ffffffffffffffffffffffffffffffffffffffff1673ffffffffffffffffffffffffffffffffffffffff16815260200160018201548152602001600282018054610eac90611e34565b80601f0160208091040260200160405190810160405280929190818152602001828054610ed890611e34565b8015610f255780601f10610efa57610100808354040283529160200191610f25565b820191906000526020600020905b815481529060010190602001808311610f0857829003601f168201915b505050505081526020016003820160009054906101000a900460ff16151515158152505081526020019060010190610e19565b50505050905090565b6000805b6001805490508110156110365760066000848152602001908152602001600020600060018381548110610f9b57610f9a611ed2565b5b9060005260206000200160009054906101000a900473ffffffffffffffffffffffffffffffffffffffff1673ffffffffffffffffffffffffffffffffffffffff1673ffffffffffffffffffffffffffffffffffffffff16815260200190815260200160002060009054906101000a900460ff1615611023576001826110209190611f6d565b91505b808061102e90611fc3565b915050610f65565b50919050565b806004805490508110611084576040517f08c379a000000000000000000000000000000000000000000000000000000000815260040161107b90611eb2565b60405180910390fd5b816004818154811061109957611098611ed2565b5b906000526020600020906004020160030160009054906101000a900460ff16156110f8576040517f08c379a00000000000000000000000000000000000000000000000000000000081526004016110ef90611f4d565b60405180910390fd5b60035461110484610f61565b1015611145576040517f08c379a000000000000000000000000000000000000000000000000000000000815260040161113c90612058565b60405180910390fd5b60006004848154811061115b5761115a611ed2565b5b9060005260206000209060040201905060008160000160009054906101000a900473ffffffffffffffffffffffffffffffffffffffff1673ffffffffffffffffffffffffffffffffffffffff168260010154836002016040516111be9190612117565b60006040518083038185875af1925050503d80600081146111fb576040519150601f19603f3d011682016040523d82523d6000602084013e611200565b606091505b5050905080611244576040517f08c379a000000000000000000000000000000000000000000000000000000000815260040161123b9061217a565b60405180910390fd5b60018260030160006101000a81548160ff021916908315150217905550847fddb556f1d2c1ec821e910b019d3685b229db152a0ecd517ca7e24b8bd713928960405160405180910390a25050505050565b600560003373ffffffffffffffffffffffffffffffffffffffff1673ffffffffffffffffffffffffffffffffffffffff16815260200190815260200160002060009054906101000a900460ff168061133a5750600260009054906101000a900473ffffffffffffffffffffffffffffffffffffffff1673ffffffffffffffffffffffffffffffffffffffff163373ffffffffffffffffffffffffffffffffffffffff16145b611379576040517f08c379a000000000000000000000000000000000000000000000000000000000815260040161137090611d82565b60405180910390fd5b8160048054905081106113c1576040517f08c379a00000000000000000000000000000000000000000000000000000000081526004016113b890611eb2565b60405180910390fd5b826006600082815260200190815260200160002060003373ffffffffffffffffffffffffffffffffffffffff1673ffffffffffffffffffffffffffffffffffffffff16815260200190815260200160002060009054906101000a900460ff1615611460576040517f08c379a0000000000000000000000000000000000000000000000000000000008152600401611457906121e6565b60405180910390fd5b836004818154811061147557611474611ed2565b5b906000526020600020906004020160030160009054906101000a900460ff16156114d4576040517f08c379a00000000000000000000000000000000000000000000000000000000081526004016114cb90611f4d565b60405180910390fd5b60016006600087815260200190815260200160002060008673ffffffffffffffffffffffffffffffffffffffff1673ffffffffffffffffffffffffffffffffffffffff16815260200190815260200160002060006101000a81548160ff021916908315150217905550848473ffffffffffffffffffffffffffffffffffffffff167f90ec57f18fa7b15c6b8d5e4d1deb90796c74b2ff23d4d0cecad0cb42a96b312860405160405180910390a35050505050565b82805461159490611e34565b90600052602060002090601f0160209004810192826115b657600085556115fd565b82601f106115cf57805160ff19168380011785556115fd565b828001600101855582156115fd579182015b828111156115fc5782518255916020019190600101906115e1565b5b50905061160a919061160e565b5090565b5b8082111561162757600081600090555060010161160f565b5090565b6000819050919050565b61163e8161162b565b82525050565b60006040820190506116596000830185611635565b6116666020830184611635565b9392505050565b600080fd5b600080fd5b6116808161162b565b811461168b57600080fd5b50565b60008135905061169d81611677565b92915050565b6000602082840312156116b9576116b861166d565b5b60006116c78482850161168e565b91505092915050565b600073ffffffffffffffffffffffffffffffffffffffff82169050919050565b60006116fb826116d0565b9050919050565b61170b816116f0565b82525050565b60006020820190506117266000830184611702565b92915050565b60006020820190506117416000830184611635565b92915050565b6000611752826116d0565b9050919050565b61176281611747565b811461176d57600080fd5b50565b60008135905061177f81611759565b92915050565b600080fd5b600080fd5b600080fd5b60008083601f8401126117aa576117a9611785565b5b8235905067ffffffffffffffff8111156117c7576117c661178a565b5b6020830191508360018202830111156117e3576117e261178f565b5b9250929050565b600080600080606085870312156118045761180361166d565b5b600061181287828801611770565b94505060206118238782880161168e565b935050604085013567ffffffffffffffff81111561184457611843611672565b5b61185087828801611794565b925092505092959194509250565b600081519050919050565b600082825260208201905092915050565b60005b8381101561189857808201518184015260208101905061187d565b838111156118a7576000848401525b50505050565b6000601f19601f8301169050919050565b60006118c98261185e565b6118d38185611869565b93506118e381856020860161187a565b6118ec816118ad565b840191505092915050565b6000602082019050818103600083015261191181846118be565b905092915050565b611922816116f0565b811461192d57600080fd5b50565b60008135905061193f81611919565b92915050565b60006020828403121561195b5761195a61166d565b5b600061196984828501611930565b91505092915050565b60008115159050919050565b61198781611972565b82525050565b60006020820190506119a2600083018461197e565b92915050565b600080604083850312156119bf576119be61166d565b5b60006119cd8582860161168e565b92505060206119de85828601611930565b9150509250929050565b6119f181611747565b82525050565b600081519050919050565b600082825260208201905092915050565b6000611a1e826119f7565b611a288185611a02565b9350611a3881856020860161187a565b611a41816118ad565b840191505092915050565b6000608082019050611a6160008301876119e8565b611a6e6020830186611635565b8181036040830152611a808185611a13565b9050611a8f606083018461197e565b95945050505050565b600081519050919050565b600082825260208201905092915050565b6000819050602082019050919050565b611acd816116f0565b82525050565b6000611adf8383611ac4565b60208301905092915050565b6000602082019050919050565b6000611b0382611a98565b611b0d8185611aa3565b9350611b1883611ab4565b8060005b83811015611b49578151611b308882611ad3565b9750611b3b83611aeb565b925050600181019050611b1c565b5085935050505092915050565b60006020820190508181036000830152611b708184611af8565b905092915050565b600081519050919050565b600082825260208201905092915050565b6000819050602082019050919050565b611bad81611747565b82525050565b611bbc8161162b565b82525050565b600082825260208201905092915050565b6000611bde826119f7565b611be88185611bc2565b9350611bf881856020860161187a565b611c01816118ad565b840191505092915050565b611c1581611972565b82525050565b6000608083016000830151611c336000860182611ba4565b506020830151611c466020860182611bb3565b5060408301518482036040860152611c5e8282611bd3565b9150506060830151611c736060860182611c0c565b508091505092915050565b6000611c8a8383611c1b565b905092915050565b6000602082019050919050565b6000611caa82611b78565b611cb48185611b83565b935083602082028501611cc685611b94565b8060005b85811015611d025784840389528151611ce38582611c7e565b9450611cee83611c92565b925060208a01995050600181019050611cca565b50829750879550505050505092915050565b60006020820190508181036000830152611d2e8184611c9f565b905092915050565b7f556e617574686f72697a65640000000000000000000000000000000000000000600082015250565b6000611d6c600c83611869565b9150611d7782611d36565b602082019050919050565b60006020820190508181036000830152611d9b81611d5f565b9050919050565b7f4e487b7100000000000000000000000000000000000000000000000000000000600052601160045260246000fd5b6000611ddc8261162b565b9150611de78361162b565b925082821015611dfa57611df9611da2565b5b828203905092915050565b7f4e487b7100000000000000000000000000000000000000000000000000000000600052602260045260246000fd5b60006002820490506001821680611e4c57607f821691505b60208210811415611e6057611e5f611e05565b5b50919050565b7f747820646f6573206e6f74206578697374000000000000000000000000000000600082015250565b6000611e9c601183611869565b9150611ea782611e66565b602082019050919050565b60006020820190508181036000830152611ecb81611e8f565b9050919050565b7f4e487b7100000000000000000000000000000000000000000000000000000000600052603260045260246000fd5b7f7468697320747820616c72656164792065786563757465640000000000000000600082015250565b6000611f37601883611869565b9150611f4282611f01565b602082019050919050565b60006020820190508181036000830152611f6681611f2a565b9050919050565b6000611f788261162b565b9150611f838361162b565b9250827fffffffffffffffffffffffffffffffffffffffffffffffffffffffffffffffff03821115611fb857611fb7611da2565b5b828201905092915050565b6000611fce8261162b565b91507fffffffffffffffffffffffffffffffffffffffffffffffffffffffffffffffff82141561200157612000611da2565b5b600182019050919050565b7f617070726f76616c73203c207265717569726564000000000000000000000000600082015250565b6000612042601483611869565b915061204d8261200c565b602082019050919050565b6000602082019050818103600083015261207181612035565b9050919050565b600081905092915050565b60008190508160005260206000209050919050565b600081546120a581611e34565b6120af8186612078565b945060018216600081146120ca57600181146120db5761210e565b60ff1983168652818601935061210e565b6120e485612083565b60005b83811015612106578154818901526001820191506020810190506120e7565b838801955050505b50505092915050565b60006121238284612098565b915081905092915050565b7f7478206661696c69640000000000000000000000000000000000000000000000600082015250565b6000612164600983611869565b915061216f8261212e565b602082019050919050565b6000602082019050818103600083015261219381612157565b9050919050565b7f747820616c726561647920617070726f76656400000000000000000000000000600082015250565b60006121d0601383611869565b91506121db8261219a565b602082019050919050565b600060208201905081810360008301526121ff816121c3565b905091905056fea26469706673582212200207b08de766703d0bf919e91994219616c82b43c0c28869c5100f28b32cb31264736f6c63430008090033a2646970667358221220ffdb407336f3aa715624a3d24721876b38d7b797af53afd0956f180b1e27430c64736f6c63430008090033",
  "immutableReferences": {},
  "source": "// SPDX-License-Identifier: MIT\r\npragma solidity >=0.8.0;\r\n\r\nimport \"./MultiSigWallet.sol\";\r\n\r\n/**\r\n * WalletFactoryV4\r\n */\r\ncontract WalletFactoryV4 {\r\n    // Verifiable Credentials\r\n    struct VcInfo {\r\n        // VC\r\n        string name;\r\n        // VCCID(IPFS)\r\n        string cid;\r\n    }\r\n\r\n    // MultiSigWallet\r\n    MultiSigWallet[] public wallets;\r\n    // \r\n    uint256 constant maxLimit = 20;\r\n    // owner\r\n    address public owner;\r\n\r\n    // mapping\r\n    mapping(address => bool) public isRegistered;\r\n    mapping(string => bool) public userExist;\r\n    mapping(address => string) public dids;\r\n    mapping(string => address) public addrs;\r\n    mapping(string => address ) public pass;\r\n    mapping(string => VcInfo[]) public vcs;\r\n\r\n    //modifier\r\n    modifier onlyOwner() {\r\n        require(msg.sender == owner, \"This address is not an owner address!\");\r\n        \r\n        _;\r\n    }\r\n\r\n    // event\r\n    event WalletCreated(\r\n        MultiSigWallet indexed wallet,\r\n        string name,\r\n        address[] owners,\r\n        uint256 required\r\n    );\r\n    event Registered(address addr, string did);\r\n    event Usercreated(address addr, string qrdata);\r\n    event OwnershipTransferred(\r\n        address indexed previousOwner,\r\n        address indexed newOwner\r\n    );\r\n\r\n    /**\r\n     * \r\n     */\r\n    constructor() {\r\n        owner = msg.sender;\r\n    }\r\n\r\n    /**\r\n     * MultiSigWallet\r\n     */\r\n    function walletsCount() public view returns (uint256) {\r\n        return wallets.length;\r\n    }\r\n\r\n    /**\r\n     * MultiSigWallet\r\n     * @param _name \r\n     * @param _owners \r\n     * @param _required \r\n     */\r\n    function createWallet(\r\n        string memory _name,\r\n        address[] memory _owners,\r\n        uint256 _required\r\n    ) public {\r\n        // \r\n        MultiSigWallet wallet = new MultiSigWallet(_name, _owners, owner, _required);\r\n        // \r\n        wallets.push(wallet);\r\n        // \r\n        emit WalletCreated(wallet, _name, _owners, _required);\r\n    }\r\n\r\n    /**\r\n     * \r\n     */\r\n    function getWallets(uint256 limit, uint256 offset)\r\n        public\r\n        view\r\n        returns (MultiSigWallet[] memory coll)\r\n    {\r\n        require(offset <= walletsCount(), \"offset out of bounds\");\r\n        // limit\r\n        uint256 size = walletsCount() - offset;\r\n        size = size < limit ? size : limit;\r\n        // sizemaxLimit\r\n        size = size < maxLimit ? size : maxLimit;\r\n        coll = new MultiSigWallet[](size);\r\n\r\n        for (uint256 i = 0; i < size; i++) {\r\n            coll[i] = wallets[offset + i];\r\n        }\r\n\r\n        return coll;\r\n    }\r\n\r\n    /**\r\n     * register\r\n     * @param _addr address\r\n     * @param _did DID\r\n     */\r\n    function register(address _addr, string memory _did) public onlyOwner {\r\n        // check\r\n        require(!isRegistered[_addr], \"This address is already registered!!\");\r\n\r\n        // set\r\n        isRegistered[_addr] = true;\r\n        dids[_addr] = _did;\r\n        addrs[_did] = _addr;\r\n\r\n        emit Registered(_addr, _did);\r\n    }\r\n\r\n    function creatUser(address _addr, string memory _pass) public onlyOwner {\r\n        // check\r\n        require(!userExist[_pass], \"This address is already registered!!\");\r\n\r\n        // set\r\n        userExist[_pass] = true;\r\n        \r\n        pass[_pass] = _addr;\r\n\r\n        emit Usercreated(_addr, _pass);\r\n    }\r\n\r\n    /**\r\n     * getVcs function\r\n     * @param _did DID\r\n     * @return vcs[_did] Verifiable Credentials\r\n     */\r\n    function getVcs(string memory _did) public view returns (VcInfo[] memory) {\r\n        return vcs[_did];\r\n    }\r\n\r\n\r\n    /**\r\n     * updatVc function\r\n     * @param _did DID\r\n     * @param _name VC Name\r\n     * @param _cid VC's CID\r\n     */\r\n    function updateVc(\r\n        string memory _did,\r\n        string memory _name,\r\n        string memory _cid\r\n    ) public {\r\n        // get Vcinfo\r\n        VcInfo[] storage coll = vcs[_did];\r\n\r\n        // puch new Vc info\r\n        coll.push(VcInfo({name: _name, cid: _cid}));\r\n        // register again\r\n        vcs[_did] = coll;\r\n    }\r\n\r\n    /**\r\n     * @dev Transfers ownership of the contract to a new account (`newOwner`).\r\n     * Can only be called by the current owner.\r\n     */\r\n    function transferOwnership(address newOwner) public virtual onlyOwner {\r\n        require(\r\n            newOwner != address(0),\r\n            \"Ownable: new owner is the zero address\"\r\n        );\r\n        _transferOwnership(newOwner);\r\n    }\r\n\r\n    /**\r\n     * @dev Transfers ownership of the contract to a new account (`newOwner`).\r\n     * Internal function without access restriction.\r\n     */\r\n    function _transferOwnership(address newOwner) internal virtual {\r\n        address oldOwner = owner;\r\n        owner = newOwner;\r\n        emit OwnershipTransferred(oldOwner, newOwner);\r\n    }\r\n}",
  "sourcePath": "/mnt/c/Users/papiarana/Downloads/IDQ Wallet/backend/contracts/Wallet/WalletFactoryV4.sol",
  "compiler": {
    "name": "solc",
    "version": "0.8.9+commit.e5eed63a.Emscripten.clang"
  },
  "schemaVersion": "3.4.15",
  "updatedAt": "2023-09-24T14:27:38.519Z",
  "networkType": "ethereum",
  "devdoc": {
    "kind": "dev",
    "methods": {
      "createWallet(string,address[],uint256)": {
        "params": {
          "_name": "",
          "_owners": "",
          "_required": ""
        }
      },
      "getVcs(string)": {
        "params": {
          "_did": "DID"
        },
        "returns": {
          "_0": "vcs[_did] Verifiable Credentials"
        }
      },
      "register(address,string)": {
        "params": {
          "_addr": "address",
          "_did": "DID"
        }
      },
      "transferOwnership(address)": {
        "details": "Transfers ownership of the contract to a new account (`newOwner`). Can only be called by the current owner."
      },
      "updateVc(string,string,string)": {
        "params": {
          "_cid": "VC's CID",
          "_did": "DID",
          "_name": "VC Name"
        }
      }
    },
    "version": 1
  },
  "userdoc": {
    "kind": "user",
    "methods": {
      "constructor": {
        "notice": ""
      },
      "createWallet(string,address[],uint256)": {
        "notice": "MultiSigWallet"
      },
      "getVcs(string)": {
        "notice": "getVcs function"
      },
      "getWallets(uint256,uint256)": {
        "notice": ""
      },
      "register(address,string)": {
        "notice": "register"
      },
      "updateVc(string,string,string)": {
        "notice": "updatVc function"
      },
      "walletsCount()": {
        "notice": "MultiSigWallet"
      }
    },
    "notice": "WalletFactoryV4",
    "version": 1
  }
}